:020000040800F2
:1000000000000A2065460008054300080D4300086B
:10001000154300081D43000825430008B5460008A5
:100020000000000000000000000000002D43000858
:100030003B43000800000000494300085743000804
:10004000B5460008B5460008B5460008B5460008A4
:10005000B5460008B5460008B5460008B546000894
:10006000B5460008B5460008B5460008B546000884
:1000700063430008B5460008B5460008B5460008C9
:10008000B5460008B546000871430008B5460008AB
:10009000B5460008B54600087F430008B54600088D
:1000A000B5460008B5460008B5460008B546000844
:1000B000B5460008B5460008B5460008B546000834
:1000C000B5460008B5460008B5460008B546000824
:1000D000B5460008B5460008B5460008B546000814
:1000E000B5460008B5460008B5460008B546000804
:1000F000B5460008B5460008B5460008B5460008F4
:10010000B5460008B5460008B5460008B5460008E3
:10011000B5460008B5460008B5460008B5460008D3
:10012000B5460008B5460008B5460008B5460008C3
:10013000B546000891430008A5430008B5460008ED
:10014000B5460008B5460008B5460008B5460008A3
:10015000B5460008B5460008B5460008B546000893
:10016000B5460008B5460008B5460008B546000883
:10017000B5460008B5460008B5460008B546000873
:10018000B5460008B5460008B5460008B546000863
:10019000B5460008B5460008CD430008B54600083E
:1001A000B5460008B5460008B5460008B546000843
:1001B000B5460008B5460008B5460008B546000833
:1001C000B5460008B5460008B5460008B943000822
:1001D000B5460008B5460008B5460008B546000813
:1001E000B5460008B5460008B5460008B546000803
:1001F000B5460008B5460008B5460008B5460008F3
:10020000B5460008B5460008B5460008B5460008E2
:10021000B5460008B5460008B5460008B5460008D2
:10022000B5460008B5460008B5460008B5460008C2
:10023000B5460008B5460008B5460008B5460008B2
:0C024000B5460008B5460008B5460008A9
:1002500010B5054C237833B9044B13B10448AFF300
:1002600000800123237010BD080200200000000060
:100270005423010808B5034B1BB103490348AFF3EE
:10028000008008BD000000000C020020542301087B
:10029000034613F8012B002AFBD1181A01387047C6
:1002A00081F0004102E000BF83F0004330B54FEA27
:1002B00041044FEA430594EA050F08BF90EA020F94
:1002C0001FBF54EA000C55EA020C7FEA645C7FEA27
:1002D000655C00F0E2804FEA5454D4EB5555B8BF4A
:1002E0006D420CDD2C4480EA020281EA030382EABB
:1002F000000083EA010180EA020281EA0303362D4D
:1003000088BF30BD11F0004F4FEA01314FF4801C1F
:100310004CEA113102D0404261EB410113F0004F31
:100320004FEA03334CEA133302D0524263EB4303E8
:1003300094EA050F00F0A780A4F10104D5F1200E86
:100340000DDB02FA0EFC22FA05F2801841F10001E1
:1003500003FA0EF2801843FA05F359410EE0A5F1B5
:1003600020050EF1200E012A03FA0EFC28BF4CF0E6
:10037000020C43FA05F3C01851EBE37101F000459C
:1003800007D54FF0000EDCF1000C7EEB00006EEBA9
:100390000101B1F5801F1BD3B1F5001F0CD3490833
:1003A0005FEA30004FEA3C0C04F101044FEA44528A
:1003B00012F5800F80F09A80BCF1004F08BF5FEA11
:1003C000500C50F1000041EB045141EA050130BDF1
:1003D0005FEA4C0C404141EB0101013C28BFB1F503
:1003E000801FE9D291F0000F04BF01460020B1FA4E
:1003F00081F308BF2033A3F10B03B3F120020CDA21
:100400000C3208DD02F1140CC2F10C0201FA0CF0FE
:1004100021FA02F10CE002F11402D8BFC2F1200C63
:1004200001FA02F120FA0CFCDCBF41EA0C01904019
:10043000E41AA2BF01EB0451294330BD6FEA040462
:100440001F3C1CDA0C340EDC04F11404C4F120024D
:1004500020FA04F001FA02F340EA030021FA04F35F
:1004600045EA030130BDC4F10C04C4F1200220FAB6
:1004700002F001FA04F340EA0300294630BD21FAF4
:1004800004F0294630BD94F0000F83F4801306BFBA
:1004900081F480110134013D4EE77FEA645C18BFAE
:1004A0007FEA655C29D094EA050F08BF90EA020F45
:1004B00005D054EA000C04BF1946104630BD91EA3D
:1004C000030F1EBF0021002030BD5FEA545C05D140
:1004D0004000494128BF41F0004130BD14F580047F
:1004E0003CBF01F5801130BD01F0004545F0FE41F3
:1004F00041F470014FF0000030BD7FEA645C1ABF28
:10050000194610467FEA655C1CBF0B46024650EA5E
:10051000013406BF52EA033591EA030F41F400218A
:1005200030BD00BF90F0000F04BF0021704730B510
:100530004FF4806404F132044FF000054FF00001E5
:1005400050E700BF90F0000F04BF0021704730B5A6
:100550004FF4806404F1320410F0004548BF40427B
:100560004FF000013EE700BF42004FEAE2014FEAD0
:1005700031014FEA02701FBF12F07F4393F07F4FAB
:1005800081F06051704732F07F4208BF704793F0AE
:100590007F4F04BF41F40021704730B54FF46074C1
:1005A00001F0004521F000411CE700BF50EA0102C4
:1005B00008BF704730B54FF000050AE050EA01026D
:1005C00008BF704730B511F0004502D5404261EBDD
:1005D00041014FF4806404F132045FEA915C3FF41E
:1005E000D8AE4FF003025FEADC0C18BF03325FEABB
:1005F000DC0C18BF033202EBDC02C2F1200300FA6C
:1006000003FC20FA02F001FA03FE40EA0E0021FA90
:1006100002F11444BDE600BF70B54FF0FF0C4CF47E
:10062000E06C1CEA11541DBF1CEA135594EA0C0F30
:1006300095EA0C0F00F0DEF82C4481EA030621EA6B
:100640004C5123EA4C5350EA013518BF52EA0335A6
:1006500041F4801143F4801338D0A0FB02CE4FF058
:100660000005E1FB02E506F00042E0FB03E54FF088
:100670000006E1FB03569CF0000F18BF4EF0010E80
:10068000A4F1FF04B6F5007F64F5407404D25FEA7C
:100690004E0E6D4146EB060642EAC62141EA55512F
:1006A0004FEAC52040EA5E504FEACE2EB4F1FD0C71
:1006B00088BFBCF5E06F1ED8BEF1004F08BF5FEAEF
:1006C000500E50F1000041EB045170BD06F00046A1
:1006D00046EA010140EA020081EA0301B4EB5C044E
:1006E000C2BFD4EB0C0541EA045170BD41F4801146
:1006F0004FF0000E013C00F3AB8014F1360FDEBF6B
:10070000002001F0004170BDC4F10004203C35DA46
:100710000C341BDC04F11404C4F1200500FA05F3C9
:1007200020FA04F001FA05F240EA020001F000426A
:1007300021F0004110EBD37021FA04F642EB0601E0
:100740005EEA430E08BF20EAD37070BDC4F10C040A
:10075000C4F1200500FA04F320FA05F001FA04F2CE
:1007600040EA020001F0004110EBD37041F10001BA
:100770005EEA430E08BF20EAD37070BDC4F12005C5
:1007800000FA05F24EEA020E20FA04F301FA05F22D
:1007900043EA020321FA04F001F0004121FA04F2D5
:1007A00020EA020000EBD3705EEA430E08BF20EAA5
:1007B000D37070BD94F0000F0FD101F000464000DF
:1007C00041EB010111F4801F08BF013CF7D041EA61
:1007D000060195F0000F18BF704703F00046520065
:1007E00043EB030313F4801F08BF013DF7D043EA36
:1007F0000603704794EA0C0F0CEA135518BF95EAEC
:100800000C0F0CD050EA410618BF52EA4306D1D172
:1008100081EA030101F000414FF0000070BD50EA91
:10082000410606BF1046194652EA430619D094EA1B
:100830000C0F02D150EA013613D195EA0C0F05D105
:1008400052EA03361CBF104619460AD181EA030159
:1008500001F0004141F0FE4141F470014FF0000011
:1008600070BD41F0FE4141F4780170BD70B54FF0AC
:10087000FF0C4CF4E06C1CEA11541DBF1CEA13552C
:1008800094EA0C0F95EA0C0F00F0A7F8A4EB05040E
:1008900081EA030E52EA03354FEA013100F0888005
:1008A0004FEA03334FF0805545EA131343EA1263CE
:1008B0004FEA022245EA111545EA10654FEA002683
:1008C0000EF000419D4208BF964244F1FD0404F53C
:1008D000407402D25B084FEA3202B61A65EB030598
:1008E0005B084FEA32024FF480104FF4002CB6EB55
:1008F000020E75EB030E22BFB61A754640EA0C00D5
:100900005B084FEA3202B6EB020E75EB030E22BF14
:10091000B61A754640EA5C005B084FEA3202B6EB55
:10092000020E75EB030E22BFB61A754640EA9C0014
:100930005B084FEA3202B6EB020E75EB030E22BFE4
:10094000B61A754640EADC0055EA060E18D04FEAA2
:10095000051545EA16754FEA06164FEAC30343EA42
:1009600052734FEAC2025FEA1C1CC0D111F4801F0F
:100970000BD141EA00014FF000004FF0004CB6E708
:1009800011F4801F04BF01430020B4F1FD0C88BFA7
:10099000BCF5E06F3FF6AFAEB5EB030C04BFB6EBB2
:1009A000020C5FEA500C50F1000041EB045170BDA5
:1009B0000EF0004E4EEA113114EB5C04C2BFD4EBD2
:1009C0000C0541EA045170BD41F480114FF0000E56
:1009D000013C90E645EA060E8DE60CEA135594EAD2
:1009E0000C0F08BF95EA0C0F3FF43BAF94EA0C0FD5
:1009F0000AD150EA01347FF434AF95EA0C0F7FF44A
:100A000025AF104619462CE795EA0C0F06D152EA9D
:100A100003353FF4FDAE1046194622E750EA410681
:100A200018BF52EA43067FF4C5AE50EA41047FF492
:100A30000DAF52EA43057FF4EBAE12E74FF0FF3CF7
:100A400006E000BF4FF0010C02E000BF4FF0010CC8
:100A50004DF804CD4FEA410C7FEA6C5C4FEA430C41
:100A600018BF7FEA6C5C1BD001B050EA410C0CBF90
:100A700052EA430C91EA030F02BF90EA020F0020F2
:100A8000704710F1000F91EA030F58BF994208BF59
:100A900090422CBFD8176FEAE37040F00100704716
:100AA0004FEA410C7FEA6C5C02D150EA013C07D16D
:100AB0004FEA430C7FEA6C5CD6D152EA033CD3D0B8
:100AC0005DF8040B704700BF8446104662468C46B2
:100AD0001946634600E000BF01B5FFF7B7FF0028E5
:100AE00048BF10F1000F01BD4DF808EDFFF7F4FF0E
:100AF0000CBF012000205DF808FB00BF4DF808ED99
:100B0000FFF7EAFF34BF012000205DF808FB00BFBB
:100B10004DF808EDFFF7E0FF94BF012000205DF8DD
:100B200008FB00BF4DF808EDFFF7CEFF94BF012092
:100B300000205DF808FB00BF4DF808EDFFF7C4FF8B
:100B400034BF012000205DF808FB00BF4FEA410CD4
:100B50007FEA6C5C02D150EA013C0AD14FEA430CB7
:100B60007FEA6C5C02D152EA033C02D14FF00000F4
:100B700070474FF0010070474FEA410212F5001232
:100B800015D211D56FF47873B3EB625212D94FEAD4
:100B9000C12343F0004343EA505311F0004F23FABE
:100BA00002F018BF404270474FF00000704750EA13
:100BB000013005D111F0004008BF6FF000407047D0
:100BC0004FF00000704700BF4FEA4102B2F1E0432E
:100BD00024BFB3F5001CDCF1FE5C0DD901F0004C24
:100BE0004FEAC0024CEA5070B2F1004F40EB830074
:100BF00008BF20F00100704711F0804F21D113F1A0
:100C00003872BCBF01F00040704741F480114FEAD8
:100C10005252C2F11802C2F1200C10FA0CF320FA61
:100C200002F018BF40F001004FEAC1234FEAD3237E
:100C300003FA0CFC40EA0C0023FA02F34FEA4303E8
:100C4000CCE77FEA625307D150EA01331EBF4FF071
:100C5000FE4040F44000704701F0004040F0FE408C
:100C600040F40000704700BF53B94AB9002908BFDB
:100C700000281CBF4FF0FF314FF0FF3000F07EB96D
:100C8000ADF1080C6DE904CE00F006F8DDF804E0E3
:100C9000DDE9022304B070472DE9F04F099D0C46B1
:100CA000002B4DD18A420F4684469646B2FA82F313
:100CB00060D94BB102FA03FEC3F120029F4000FA53
:100CC00003FC20FA02F217434FEA1E461FFA8EF485
:100CD0004FEA1C42B7FBF6F106FB117701FB04F06B
:100CE00042EA0742904208D91EEB020201F1FF37A7
:100CF00002D2904200F22D813946121A1FFA8CFC62
:100D0000B2FBF6F006FB102200FB04F44CEA024CA6
:100D1000644508D91EEB0C0C00F1FF3202D2644589
:100D200000F21A81104640EA0140ACEB040C0021AD
:100D300025B12CFA03F30022C5E90032BDE8F08F9B
:100D40008B4205D90DB1C5E9000100210846F5E740
:100D5000B3FA83F100294DD1A342C0F0F280904252
:100D600080F0EF80064623460846002DE6D0C5E910
:100D70000063E3E7002B40F0A2808A1A4FEA1E4787
:100D80001FFA8EF60121B2FBF7F407FB14204FEA9D
:100D90001C4242EA004206FB04F090420FD91EEBCF
:100DA000020204F1FF382CBF4FF001094FF0000997
:100DB000904203D9B9F1000F00F0C8804446121ADE
:100DC0001FFA8CFCB2FBF7F007FB102200FB06F6C3
:100DD0004CEA024C664508D91EEB0C0C00F1FF32C0
:100DE00002D2664500F2BB801046ACEB060C40EA2E
:100DF00004409DE7C1F120068B4004FA01FE22FA6F
:100E000006F720FA06FCF4408A401F434EEA0C0322
:100E100000FA01FE4FEA17484FEA13491FFA87FC10
:100E2000B4FBF8F008FB104449EA044400FB0CF959
:100E3000A1450ED93C1900F1FF3A2CBF4FF0010B30
:100E40004FF0000BA14503D9BBF1000F00F09380D8
:100E50005046A4EB09041FFA83F9B4FBF8F308FB2E
:100E6000134403FB0CFC49EA0444A44506D93C198D
:100E700003F1FF3801D2A4457AD8434643EA004043
:100E8000A4EB0C04A0FB02984445CC46434602D395
:100E900006D1CE4504D20138B9EB020C68EB07034A
:100EA0005DB1BEEB0C0264EB030404FA06F622FA11
:100EB00001F3CC401E43C5E9006400213EE702FA7D
:100EC00003FEC3F1200104FA03F200FA03FCCC4054
:100ED0004FEA1E4720FA01F11FFA8EF6B4FBF7F035
:100EE0000A4307FB1044110C41EA044100FB06F4DD
:100EF0008C420ED91EEB010100F1FF382CBF4FF0E0
:100F000001094FF000098C4202D9B9F1000F2CD031
:100F10004046091B92B2B1FBF7F407FB141142EAF9
:100F2000014204FB06F1914207D91EEB020204F1D3
:100F3000FF3801D2914215D84446521A44EA004182
:100F400021E7861A64EB030301200EE7023C72449A
:100F500035E702397244D0E6F4440238E3E6F4445B
:100F6000023842E7023C7244E7E702387144D0E7B6
:100F7000023B3C4482E702383C446AE7704700BFCA
:100F800080B582B000AF0023FB7117E00023BB7176
:100F900008E0BA79FB791146184600F01DF8BB79D4
:100FA0000133BB71BB79032BF3D90A4B1B78002BA0
:100FB00001D001F065F9FB790133FB71FB79022B5C
:100FC000E4D9044B01221A70002318460837BD46A5
:100FD00080BD00BF84020020B0B592B000AF0346D0
:100FE0000A46FB711346BB710023FB6007F1100337
:100FF00000221A605A609A60DA601A615A611A8394
:101000000023FB724FF000033B6300237B6400234B
:10101000A7F842304FF00003FB62944B40221A7055
:10102000924B11225A70914B0C229A708F4B0022D6
:10103000DA708E4B76221A718C4BEA225A718B4BE6
:101040001E229A71894B8222DA71884B87221A728A
:10105000864BFB225A72854B00229A72834B1022D8
:10106000DA72824B00221A73804B00225A737F4B34
:1010700000229A737D4B0022DA737C4B00221A7493
:101080007A4B40225A74794B00229A74774B002293
:10109000DA74764B00221A75744B00229A74BB796D
:1010A000032B27D801A252F823F000BFBD1000087F
:1010B000CB100008D9100008E71000086B4B432242
:1010C0001A716A4BF5225A7214E0684B10221A7199
:1010D000664BF2225A720DE0644B9A221A71634BEE
:1010E000F8225A7206E0614B76221A715F4BFB229E
:1010F0005A7200BFFB79022B00F02684022B00F30A
:101100001C86002B04D0012B00F0E98100F015BEF5
:1011100000224021564803F039FF00224FF480613D
:10112000534803F033FF00220421524803F02EFFFE
:10113000012204214F4803F029FF002240214C489E
:1011400003F024FF4FF0FF33132248494A480AF0C6
:10115000C1FF012003F06EFB01224021444803F04F
:1011600015FF01224FF48061414803F00FFF012079
:1011700003F060FB002240213D4803F007FF3B4B9A
:1011800019221A704FF0FF33012238493A480AF009
:10119000A1FF01224021364803F0F8FE374B1B68BF
:1011A000184603F047FB00224021314803F0EEFED1
:1011B0002E4B13221A700023FB6370E04FF6FF736F
:1011C00001222A492C480AF085FF012003F032FB56
:1011D000FB6B5B002A4A99184FF6FF7302222648E0
:1011E0000BF08EF9012003F025FB254AFB6B32F84A
:1011F00013301B0A9BB21AB22149FB6B31F8133032
:101200001B021BB213431BB299B21D4AFB6B22F89F
:101210001310FB6B002B37DD194AFB6B32F81330D0
:101220001946FB6B013B164A32F81330CB1A012BDF
:101230000CDDFB6B013B124A32F813301946104AA1
:10124000FB6B32F81330CB1A012B08DC0C4AFB6B1A
:1012500032F813301A467B6C13447B641CE0094B54
:101260001B780133DAB2074B1A7015E02402002014
:101270000014024200080242107800200000002002
:101280004802002085020020C54AFB6B32F813306B
:101290001A467B6C13447B64FB6B0133FB63FB6B73
:1012A000092B8BDDBF4B1B78052B01D900237B64F9
:1012B000BC4B00221A7001224021BB4803F066FE9D
:1012C000786CFFF72FF94FF00002B84BFFF7CEFA1A
:1012D00002460B4610461946FFF776FC0346FB62B2
:1012E0007B6CB34AA2FB0323DB08A7F84230D7ED9F
:1012F0000B7A9FEDB07A67EE877AF1EE006A87EE9F
:10130000A67ADFEDAD6AC7EE267AC7ED0C7A9FEDBF
:10131000AB7AD7ED0C7AF4EEC77AF1EE10FA50DB27
:10132000DFEDA77AF1EE677A17EE903A1846FFF7ED
:101330001BF904460D469FEDA27ADFEDA17A27EE58
:10134000277ADFEDA06AF1EE007A66EEA76ADFED9C
:101350009B5A97ED0C6AC6EE257AB7EE006A76EED8
:10136000677A66EEA77A77EE677A17EE900AFFF74C
:10137000FBF802460B4643EC102B10F0E1FE53EC59
:10138000102B20462946FEF791FF02460B461446D5
:101390001D46DFED8C7A77EEA77A17EE900AFFF7FD
:1013A000E3F802460B4620462946FFF75FFA02465D
:1013B0000B4610461946FFF707FC0346824A1360A6
:1013C00017E09FED7E7AD7ED0C7A77EEC77A17EEAD
:1013D000900AFFF7C9F870A3D3E90023FFF746FA94
:1013E00002460B4610461946FFF7EEFB0346764AC7
:1013F0001360FA7C754B5B7A9A420ED101224FF44E
:101400000061734803F0C2FD012003F013FA0022CB
:101410004FF400616E4803F0B9FD0022402162489C
:1014200003F0B4FD694B21221A70684B00225A70F8
:101430004FF6FF730222654966480AF04BFE07F13A
:101440000B014FF6FF73012262480BF059F801229D
:101450004021554803F09AFDFB7A184600F0A0FCA5
:101460000346002B0ED00023FB72574B4FF00002B7
:101470001A600023A7F842301422002148480EF0D9
:101480006AFD15E0B7F84230184600F071FC0346DB
:10149000002B0DD00023FB724B4B4FF000021A6063
:1014A0000023A7F84230142200213D480EF053FDDE
:1014B0000023FB72F979BB79434A126846488900D8
:1014C0000B449B0003441A60FA79BB7943499200AC
:1014D0001344B7F8422021F8132000F02EBC00225C
:1014E0004FF400613E4803F051FD002240213D4889
:1014F00003F04CFD00224FF480713A4803F046FDA2
:1015000001224FF48071374803F040FD00224FF470
:101510000061334803F03AFD4FF0FF3313222B49AB
:1015200031480AF0D7FD012003F084F901224FF47D
:1015300000612B4803F02AFD01224021294803F0D5
:1015400025FD012003F076F900224FF400612448C4
:1015500003F01CFD1D4B19221A704FF0FF330122BE
:101560001A4921480AF0B6FD01224FF400611C48D7
:1015700003F00CFD1D4B1B68184603F05BF90022BD
:101580004FF40061164803F001FD104B13221A704E
:101590000023BB638FE000BFA4703D0AD7A3D83FF0
:1015A000480200208502002000140242000024406E
:1015B000CDCCCCCC0000FA4400FF7F470000C842ED
:1015C0003211803B7F051BB544020020240200201D
:1015D000001002421078002088020020B80200208B
:1015E0000004024200180242F076002000000020B1
:1015F0004FF6FF730122C449C4480AF06BFD012075
:1016000003F018F9BB6B5B00C14A99184FF6FF73E2
:101610000222BE480AF074FF012003F00BF9BC4A15
:10162000BB6B32F813301B0A9BB21AB2B849BB6BC2
:1016300031F813301B021BB213431BB299B2B44AE8
:10164000BB6B22F81310BB6B002B29DDB04ABB6BC0
:1016500032F813301946BB6B013BAD4A32F81330F8
:10166000CB1A012B0CDDBB6B013BA94A32F81330BE
:101670001946A74ABB6B32F81330CB1A012B08DC92
:10168000A34ABB6B32F813301A467B6C13447B645D
:101690000EE0A04B1B780133DAB29E4B1A7007E0C4
:1016A0009B4ABB6B32F813301A467B6C13447B6445
:1016B000BB6B0133BB63BB6B092B99DD954B1B786F
:1016C000052B01D900237B64924B00221A707B6C9E
:1016D000914AA2FB0323DB08A7F84230786CFEF79F
:1016E00021FF4FF000028D4BFFF7C0F802460B467A
:1016F00010461946FFF768FA0346FB6201224FF4D1
:101700000061874803F042FCD7ED0B7A9FED857AA4
:1017100067EE877AF1EE006A87EEA67ADFED826ADD
:10172000C7EE267AC7ED0C7A9FED807AD7ED0C7A5A
:10173000F4EEC77AF1EE10FA50DBDFED7D7AF1EED0
:10174000677A17EE903A1846FEF70EFF04460D46EC
:101750009FED777ADFED767A27EE277ADFED756AEF
:10176000F1EE007A66EEA76ADFED705A97ED0C6A2B
:10177000C6EE257AB7EE006A76EE677A66EEA77A4D
:1017800077EE677A17EE900AFEF7EEFE02460B46FA
:1017900043EC102B10F0D4FC53EC102B20462946C0
:1017A000FEF784FD02460B4614461D46DFED617AC6
:1017B00077EEA77A17EE900AFEF7D6FE02460B46A2
:1017C00020462946FFF752F802460B4610461946B6
:1017D000FFF7FAF90346584A136017E09FED537A72
:1017E000D7ED0C7A77EEC77A17EE900AFEF7BCFEBB
:1017F00043A3D3E90023FFF739F802460B4610460E
:101800001946FFF7E1F903464B4A1360FA7C3E4B59
:101810005B7A9A420ED101224FF48051474803F07F
:10182000B5FB012003F006F800224FF48051434835
:1018300003F0ACFB00224FF40061394803F0A6FB33
:10184000314B21221A70304B00225A704FF6FF7331
:1018500002222D492D480AF03DFC07F10B014FF6FD
:10186000FF73012229480AF04BFE01224FF4006168
:101870002B4803F08BFBFB7A184600F091FA0346E5
:10188000002B0ED00023FB722B4B4FF000021A608E
:101890000023A7F84230142200211D480EF05BFB04
:1018A00015E0B7F84230184600F062FA0346002B04
:1018B0000DD00023FB72204B4FF000021A60002372
:1018C000A7F842301422002111480EF044FB0023F7
:1018D000FB72F979BB79184A1268194889000B44E0
:1018E0009B0003441A60FA79BB79164992001344AD
:1018F000B7F8422021F813201FE200BFAFF30080A9
:10190000A4703D0AD7A3D83F24020020F07600201F
:101910005C02002085020020CDCCCCCC000024400D
:10192000000402420000FA4400FF7F470000C84262
:101930003211803B7F051BB544020020001002429B
:1019400088020020B802002000221021A54803F0E0
:101950001DFB00224FF48061A34803F017FB002217
:101960004FF48051A04803F011FB01224FF4805145
:101970009D4803F00BFB002210219A4803F006FB60
:101980004FF0FF331322994999480AF0A3FB012035
:1019900002F050FF01221021924803F0F7FA0122D1
:1019A0004FF48061904803F0F1FA012002F042FF09
:1019B000002210218B4803F0E9FA8C4B19221A708F
:1019C0004FF0FF330122894989480AF083FB012245
:1019D0001021844803F0DAFA864B1B68184602F09F
:1019E00029FF002210217F4803F0D0FA7F4B1322F9
:1019F0001A7000237B6362E04FF6FF7301227B497C
:101A00007B480AF067FB012002F014FF7B6B5B0050
:101A1000794A99184FF6FF73022275480AF070FD53
:101A2000012002F007FF744A7B6B32F813301B0A67
:101A30009BB21AB270497B6B31F813301B021BB298
:101A400013431BB299B26C4A7B6B22F813107B6B69
:101A5000002B29DD684A7B6B32F8133019467B6B0B
:101A6000013B654A32F81330CB1A012B0CDD7B6B3E
:101A7000013B614A32F8133019465F4A7B6B32F8FA
:101A80001330CB1A012B08DC5B4A7B6B32F8133026
:101A90001A467B6C13447B640EE0584B1B78013371
:101AA000DAB2564B1A7007E0534A7B6B32F81330A8
:101AB0001A467B6C13447B647B6B01337B637B6BCB
:101AC000092B99DD4D4B1B78052B01D900237B6435
:101AD0004A4B00221A707B6C494AA2FB0323DB08A5
:101AE000A7F84230786CFEF71DFD4FF00002454B21
:101AF000FEF7BCFE02460B4610461946FFF764F897
:101B00000346FB6201221021364803F03FFAD7ED6D
:101B10000B7A9FED3D7A67EE877AF1EE006A87EEE9
:101B2000A67ADFED3A6AC7EE267AC7ED0C7A9FED0A
:101B30003B7AD7ED0C7AF4EEC77AF1EE10FA6FDB50
:101B4000DFED337AF1EE677A17EE903A1846FEF73A
:101B50000BFD04460D469FED2E7ADFED2D7A27EE24
:101B6000277ADFED2C6AF1EE007A66EEA76ADFEDE8
:101B70002B5A97ED0C6AC6EE257AB7EE006A76EE20
:101B8000677A66EEA77A77EE677A17EE900AFEF725
:101B9000EBFC02460B4643EC102B10F0D1FA53EC51
:101BA000102B20462946FEF781FB02460B461446C1
:101BB0001D46DFED187A77EEA77A17EE900AFEF74A
:101BC000D3FC02460B4620462946FEF74FFE02464E
:101BD0000B4610461946FEF7F7FF03460E4A136000
:101BE00036E000BF000C0242000002422402002046
:101BF0008077002000000020700200208502002075
:101C0000CDCCCCCC000024400000FA4400FF7F473C
:101C10003211803B7F051BB5440200200000C84202
:101C20001FED027AD7ED0C7A77EEC77A17EE900A9D
:101C3000FEF79AFC4CA3D3E90023FEF717FE0246F9
:101C40000B4610461946FEF7BFFF03463E4A136097
:101C5000FA7C3E4B5B7A9A420ED101224FF400513E
:101C60003B4803F093F9012002F0E4FD00224FF419
:101C70000051374803F08AF900221021354803F05B
:101C800085F9324B21221A70304B00225A704FF6E0
:101C9000FF7302222D4930480AF01CFA07F10B01AC
:101CA0004FF6FF7301222C480AF02AFC0122102172
:101CB000284803F06BF9FB7A184600F071F80346E8
:101CC000002B0ED00023FB721F4B4FF000021A6056
:101CD0000023A7F842301422002120480EF03BF9DF
:101CE00015E0B7F84230184600F042F80346002BE2
:101CF0000DD00023FB72144B4FF000021A6000233A
:101D0000A7F842301422002114480EF024F90023D1
:101D1000FB72F979BB790C4A1268114889000B44AF
:101D20009B0003441A60FA79BB790E499200134470
:101D3000B7F8422021F8132000BF00231846483787
:101D4000BD46B0BDAFF30080440200202402002055
:101D500000100242000C0242807700207002002036
:101D600088020020B8020020A4703D0AD7A3D83F03
:101D700080B483B000AF0346FB80FB8842F2D632CA
:101D8000934204D9FB8846F26662934201D901234B
:101D900000E0002318460C37BD465DF8047B704711
:101DA00080B485B000AF0346FB710023FB731B4B6F
:101DB000DB79C22B02D10123FB7308E0174BDB79DF
:101DC000822B02D10223FB7301E00023FB73FB7B18
:101DD000012B02D0022B0AD013E0FB79012B01D199
:101DE000012314E0FB79002B0DD100230FE0FB79D8
:101DF000032B01D101230AE0FB79022B05D100233B
:101E000005E0002303E000BF00E000BF0023184608
:101E10001437BD465DF8047B704700BF24020020E4
:101E200080B584B002AF4FF40041644803F0C6F8B7
:101E3000634B1B887F2B0BD900F0E4F9604B002229
:101E40001A805F495F4803F047FF642002F0F2FC0C
:101E50004FF4005200215C480EF07DF84FF4005220
:101E600000215A480EF077F8584800F0F1FB0123A2
:101E7000564A5349534803F0FBFA0123524A50494A
:101E8000504803F09BF94FF400524F494F4800F07F
:101E900034F90346FB80FB88312B13D8484B1B8851
:101EA000002B08D1464B1888454B9988444B5A88DB
:101EB000012300F0CDF8424B1B8801339AB2404B0E
:101EC0001A8024E0424B1B8801339AB2404B1A809F
:101ED0003F4B1B881A463F493F480DF0D9FF3E480B
:101EE000FEF7D6F903469AB24FF0FF333A493B4822
:101EF0000AF0D8FE6422002137480EF02CF8384B47
:101F000000221A8000F022F9354B00221A80354B4E
:101F100001221A7000F040FC00F050FC2C4B1B8892
:101F20001A462C492C480DF0B3FF2B48FEF7B0F9A8
:101F300003469AB24FF0FF33274928480AF0B2FE11
:101F40006422002124480EF006F81D4B1B881A4617
:101F50001B4B5B8819461A4B9B8800930B46224902
:101F60001D480DF095FF1C48FEF792F903469AB202
:101F70004FF0FF33184919480AF094FE64220021FB
:101F800015480DF0E8FF194B1B781A4618491248FE
:101F90000DF07EFF1048FEF77BF903469AB24FF032
:101FA000FF330D490D480AF07DFE642200210A48E6
:101FB0000DF0D1FF00BF0837BD4680BD00100242C2
:101FC000E8020020487B0020F4020020F4220020D8
:101FD0001C55002070230108B854002034790020DB
:101FE000B6540020B454002084230108B5540020C6
:101FF000B023010880B582B000AF0023FB8016E05B
:102000000F4AFB88938001230E4A0D490E4803F0C6
:1020100087FB0C4B1B78FF2B0CBF01230023DAB28C
:10202000FB881146094AD154FB880133FB80FB88A9
:10203000B3F5805FE4D300BF00BF0837BD4680BD65
:10204000E8020020F4420020487B0020B444002035
:1020500090B585B000AF0446084611461A4623469F
:10206000FB800346BB800B467B8013467B700023BE
:102070003B81BB887B817B88BB8107F10801012301
:102080000D4A0E4803F04CFB7B78002B01D0FF2259
:1020900000E00022084B1A70BB8809497A78CA54BC
:1020A00007F108010123044A044803F0A4FC00BF1F
:1020B0001437BD4690BD00BFF4420020487B00208D
:1020C000B444002080B485B000AF0346FB71002308
:1020D000FB6008E0FB7903F00103FA681344FB603E
:1020E000FB795B08FB71FB79002BF3D1FB68184689
:1020F0001437BD465DF8047B704780B586B000AFED
:10210000F860B9607A6000237B6100233B6113E0D3
:10211000FA683B6913441A78B9683B690B441B7829
:102120005340DBB21846FFF7CDFF02467B691344EC
:102130007B613B6901333B613A697B689A42E7D333
:102140007B6918461837BD4680BD000080B500AFDA
:10215000274B00221A802649264803F0BDFD642043
:1021600002F068FB244B1B885A1C91B2224A118052
:1021700040F6FE72934238D80123204A1C491D487C
:1021800003F076F901231E4A19491A4803F016F89C
:102190004FF400521A491948FFF7AFFF0346312B9D
:1021A0000FDC134B1888124B9988114B5A88012366
:1021B000FFF74EFF0E4B1B8801339AB20C4B1A806F
:1021C00014E00B4B18880A4B9988094B5A88002356
:1021D000FFF73EFF064B00221A8000F013F8FFF7CE
:1021E000B5FF0A2002F026FB00E000BF80BD00BF63
:1021F000E8020020487B0020B6540020F422002092
:10220000F402002080B400AF10E01A4B9B88013329
:102210009AB2184B9A80174B9B88B3F5805F05D311
:10222000144B00229A80144B01221A70114B9B8888
:1022300040F6FE72934206D80E4B9B8801330F4A3C
:10224000D35C002BE1D00B4B9B8801339AB2094B36
:102250009A80084B9B88B3F5805F05D3054B00221D
:102260009A80054B01221A7000BFBD465DF8047BC1
:10227000704700BFE8020020B5540020B44400209D
:102280002DE9F04FD7B034AF0023C7F880300023DA
:10229000C7F88430A74B1B68194607F18002072353
:1022A000A5480AF011FC97F88020A44B1B789A42AD
:1022B00000F0A98101224FF48041A14802F066FE9E
:1022C000012002F0B7FA00224FF480419C4802F04E
:1022D0005DFE4FF4AF7200219A480DF03CFE9A4B20
:1022E00040221A70994B1B681846FEF73DF9C7E962
:1022F0001E01974B1B887B67944B5B681846FEF763
:1023000033F9C7E91A01924B5B883B678F4B9B6897
:102310001846FEF729F9C7E918018D4B9B88FB6524
:102320008A4BDB681846FEF71FF9C7E91401884B92
:10233000DB88BB65854B1B691846FEF715F9C7E9B5
:102340001201834B1B897B64804B5B691846FEF747
:102350000BF9C7E90E017E4B5B893B647B4B9B69A4
:102360001846FEF701F9C7E90C01794B9B89FB621E
:10237000764BDB691846FEF7F7F8C7E90801744B9E
:10238000DB89BB62714B1B6A1846FEF7EDF8C7E9A3
:1023900006016F4B1B8A7B616C4B5B6A1846FEF72C
:1023A000E3F882468B466A4B5B8A3B61674B9B6ACC
:1023B0001846FEF7D9F880468946654B9B8AFB6034
:1023C000624BDB6A1846FEF7CFF804460D46604BB9
:1023D000DB8ABB6097F882307B6097F881301E46BD
:1023E00097F88030184697F88430194697F885306A
:1023F0001A4697F886303293319230912F902E966C
:1024000079682D91B9682C91CDE92A45F968289110
:10241000CDE9268939692491CDE922AB79692091EA
:1024200097ED067B8DED1E7BB96A1C9197ED087BBD
:102430008DED1A7BF96A189197ED0C7B8DED167B6B
:10244000396C149197ED0E7B8DED127B796C1091A8
:1024500097ED127B8DED0E7BB96D0C9197ED147B92
:102460008DED0A7BF96D089197ED187B8DED067B5C
:10247000396F049197ED1A7B8DED027B7B6F009392
:10248000D7E91E2333492F480DF002FD03469AB2C7
:102490002D4BA3F862212C4BB3F86231033B2A4A3F
:1024A000134424225A702C4B1B681946264BB3F850
:1024B00062310133244A20480AF060FB224BB3F812
:1024C000623101331A46204924480DF04CFD1E4B61
:1024D000B3F862311A46204B1B68134401331E4A7D
:1024E0001360194BB3F862211D4B1B8813449BB238
:1024F00001339AB21A4B1A8001220221194802F0C4
:1025000045FD01220421174802F040FD012201216E
:10251000144802F03BFD022002F08CF90A4BB3F89C
:10252000623101339BB21A4607490F480AF058FC42
:102530001CE000BF18000020F07A00202055002089
:102540000010024289750020887500208802002052
:10255000B8020020C82301080400002024550020F0
:102560001E55002000000242C87900202D4BB3F810
:10257000623101339BB21A462A492B480AF030FCDB
:10258000284BB3F8623101339BB21A4625492748DC
:102590000AF026FC642002F04DF9002201212448B3
:1025A00002F0F4FC00220221214802F0EFFC00229C
:1025B00004211F4802F0EAFC1E4B1B881A46194BE7
:1025C000B3F8623101331344B3F5005F15DD1A4BE4
:1025D0001B681A4A13604FF4AF72002118480DF0BF
:1025E000BAFC104B0022A3F86221FFF719FC4FF44C
:1025F0000052002113480DF0AEFC00F005F997F8E9
:102600008020114B1A70114B1B78002B04D00F4BFC
:1026100000221A7000F04CF9002318468C37BD4692
:10262000BDE8F08F887500205C7A0020A07800203B
:10263000000002421E550020080000200400002077
:10264000897500202455002020550020AE7B0020F5
:1026500080B5ADF5005D84B000AF07F1100343F81D
:102660000C0C07F110031A46002342F8043C1046F4
:1026700041F6FC731A4600210DF06DFC2A4B1B68D5
:10268000194607F110031A464FF4005352F80C2C68
:1026900026480AF019FA07F110034FF400522449B2
:1026A00053F80C0CFFF729FD034607F5005202F121
:1026B0000E02138007F5005303F10E031B88002B55
:1026C00021D01C4B1B8801339AB21A4B1A80194B2C
:1026D0001B881A4607F5005303F10E031B881649A1
:1026E00016480DF0D5FB1548FDF7D2FD03469AB20A
:1026F0004FF0FF33114912480AF0D4FA6422002146
:102700000E480DF028FC084B1B68194607F1100213
:10271000043A4FF4005305480AF030FA00BF07F5B9
:1027200000571037BD4680BD08000020F07A002019
:1027300024550020EC760020D024010824750020C8
:102740003479002080B500AF104B1B681946062372
:102750000F4A10480AF0B8F90D4B1B887F2B02D99D
:102760000B4B00221A800A4B9B88B3F5805F02D383
:10277000074B00229A80064B5B88022B02D9044B40
:1027800000225A800023184680BD00BF0C000020A4
:10279000E8020020F07A002080B500AF044B1B68EF
:1027A00019460623034A04480AF0E8F900BF80BD31
:1027B0000C000020E8020020F07A002080B500AF75
:1027C000044B1B6819460123034A04480AF0D6F952
:1027D00000BF80BD10000020B5540020F07A00201A
:1027E00080B500AF054B1B6819460123044A054814
:1027F0000AF06AF9024B1B78184680BD10000020D1
:10280000B5540020F07A002080B500AF094B1B685A
:1028100019460223084A09480AF0B0F9084B1B7808
:10282000012B05D1064B00221A70034B00221A809F
:1028300000BF80BD140000201E550020F07A00204B
:10284000B454002080B582B000AF00237B60144BED
:102850001B6819460223134A13480AF035F9114B35
:102860001B88002B02D1114B1B6815E00D4B1B88F8
:1028700041F60572934207D90A4B00221A80FFF7EE
:10288000C3FF0A4B1B6807E0064B1B881A46074B21
:102890001B6813447B607B6818460837BD4680BDC3
:1028A000140000201E550020F07A002008000020AF
:1028B00080B582B000AF7B4B1B78402B40F0ED80A1
:1028C000784B1B7D242B40F0E880764B5B792D2BD9
:1028D00040F0E380734B1B7A2D2B40F0DE80714B70
:1028E000DB7A202B40F0D9806E4B9B7B3A2B40F05B
:1028F000D4806C4B5B7C3A2B40F0CF80694B9B794A
:10290000303BDBB21B01DAB2664BDB791344DBB23E
:10291000303BFB71634BDB78303BDBB21B01DAB23F
:10292000604B1B791344DBB2303BBB715D4B5B7A70
:10293000303BDBB21B01DAB25A4B9B7A1344DBB259
:10294000303B7B71574BDB7B303BDBB21B01DAB298
:10295000544B1B7C1344DBB2303B3B71514B1B7B14
:10296000303BDBB21B01DAB24E4B5B7B1344DBB274
:10297000303BFB704B4B9B7C303BDBB21B01DAB234
:10298000484BDB7C1344DBB2303BBB70464B474AC1
:102990001A60474B80221A70434B1B681946454BFF
:1029A0001B68434A44480AF0E9F83F4B434A1A601F
:1029B0003F4ABB7813703C4B1B6819463D4B1B6864
:1029C0003B4A3D480AF0DAF8374B3D4A1A60384A2C
:1029D0003B791370344B1B681946364B1B68344ADD
:1029E00035480AF0CBF8304B364A1A60304AFB784B
:1029F00013702D4B1B6819462E4B1B682C4A2E4812
:102A00000AF0BCF8284B304A1A60294B02221A708F
:102A1000254B1B681946274B1B68254A26480AF098
:102A2000ADF8214B294A1A60214A7B7913701E4B5D
:102A30001B6819461F4B1B681D4A1F480AF09EF869
:102A4000194B234A1A601A4AFB791370164B1B68FC
:102A50001946184B1B68164A17480AF08FF8124B94
:102A60001C4A1A60124ABB7913700F4B1B68194637
:102A7000104B1B680E4A10480AF080F80A4B0B4AAC
:102A80001A600B4B00221A70074B1B681946094B42
:102A90001B68074A08480AF071F800BF0837BD46AE
:102AA00080BD00BF8C7B0020887B0020F8FF076082
:102AB0001C00002020000020F07A0020F9FF0760B1
:102AC000FAFF0760FBFF0760FCFF0760FDFF076080
:102AD000FEFF0760FFFF076080B5ADF5005D00AF4A
:102AE00001F0EAFD00F04CF800F0CEFB00F000FB36
:102AF00000F0CAF800F01EF900F072F900F0C6F913
:102B000000F010FA00F05AFA00F0A6FA00F0A8F867
:102B100000F06AFD144B154A1A60154B00221A701A
:102B2000114B1B6819460123114A12480AF026F876
:102B3000114802F009FBFFF75DFAFFF703FEFFF70C
:102B40004FFEFFF77FFE03460C4A13603B46002210
:102B50001A60043341F6FC72002118460DF0FBF9AF
:102B6000FEF70EFAFCE700BF887B0020F8FF076045
:102B70001C000020F07A0020487B00200400002088
:102B800080B59CB000AF07F1200350220021184609
:102B90000DF0E1F907F1080300221A605A609A600B
:102BA000DA601A615A612C4B1B692B4A43F03003DF
:102BB0001361294B1B6903F030037B607B6800BF06
:102BC000254B5B6903F00803082BF9D101233B6215
:102BD0004FF480337B620223BB640323FB64042332
:102BE0003B6550237B650223BB650223FB65022303
:102BF0003B6608237B660023BB660023FB6607F168
:102C00002003184603F02AF90346002B01D000F0F8
:102C10005EFF1F23BB600323FB6000233B61002397
:102C20007B610023BB610023FB6107F108030521E1
:102C3000184603F04BFD0346002B01D000F047FF80
:102C4000064B1B6823F03003044A43F02003136053
:102C500000BF7037BD4680BD00080244002002401E
:102C600080B500AF002002F0F5F90346002B01D03B
:102C700000F02DFF02F00EFA0346002B01D000F009
:102C800026FF00BF80BD000080B500AF274B284A5B
:102C90001A60264B4FF480025A60244B00229A603F
:102CA000224B0722DA60214B00221A611F4B4FF0A2
:102CB00080725A611D4B4FF080629A611B4B4FF03E
:102CC000A042DA61194B00221A62184B00225A62A4
:102CD000164B00229A62154B0722DA62134B002230
:102CE0005A63124B00229A63104B0022DA630F4B97
:102CF00000229A640D4B0022DA640C4B00221A6504
:102D00000A4B00225A65094B00229A65074B0022A4
:102D1000DA65064B00221A66044809F06BF8034690
:102D2000002B01D000F0D3FE00BF80BDF076002064
:102D30000038004080B500AF274B284A1A60264B68
:102D40004FF480025A60244B00229A60224B0722E3
:102D5000DA60214B00221A611F4B4FF080725A61DA
:102D60001D4B4FF080629A611B4B4FF0A042DA611D
:102D7000194B00221A62184B00225A62164B00228D
:102D80009A62154B0722DA62134B00225A63124BE8
:102D900000229A63104B0022DA630F4B00229A64E0
:102DA0000D4B0022DA640C4B00221A650A4B0022FC
:102DB0005A65094B00229A65074B0022DA65064BDB
:102DC00000221A66044809F015F80346002B01D0CA
:102DD00000F07DFE00BF80BD80770020003C0040F9
:102DE00080B500AF274B284A1A60264B4FF480026B
:102DF0005A60244B00229A60224B0722DA60214B52
:102E000000221A611F4B4FF080725A611D4B4FF028
:102E100080629A611B4B4FF0A042DA61194B00228D
:102E20001A62184B00225A62164B00229A62154B06
:102E30000722DA62134B00225A63124B00229A6374
:102E4000104B0022DA630F4B00229A640D4B0022D4
:102E5000DA640C4B00221A650A4B00225A65094BB2
:102E600000229A65074B0022DA65064B00221A669B
:102E7000044808F0BFFF0346002B01D000F027FEF6
:102E800000BF80BD107800200020004480B500AF56
:102E9000224B234A1A60214B4FF4E1325A601F4BF8
:102EA00000229A601D4B0022DA601C4B00221A613E
:102EB0001A4B0C225A61194B00229A61174B0022BF
:102EC000DA61164B00221A62144B00225A62134B2D
:102ED00000229A62114809F095FE0346002B01D0AA
:102EE00000F0F5FD00210D480CF031F80346002BF1
:102EF00001D000F0ECFD002108480CF066F8034614
:102F0000002B01D000F0E3FD04480BF0E7FF03467F
:102F1000002B01D000F0DBFD00BF80BDA0780020B9
:102F2000004C004080B500AF224B234A1A60214B71
:102F30004FF4E1325A601F4B00229A601D4B002271
:102F4000DA601C4B00221A611A4B0C225A61194B91
:102F500000229A61174B0022DA61164B00221A6296
:102F6000144B00225A62134B00229A62114809F056
:102F700049FE0346002B01D000F0A9FD00210D48B9
:102F80000BF0E5FF0346002B01D000F0A0FD00216F
:102F900008480CF01AF80346002B01D000F097FD0A
:102FA00004480BF09BFF0346002B01D000F08FFD7F
:102FB00000BF80BD347900200050004080B500AFD4
:102FC000234B244A1A60224B4FF4E1325A60204BC3
:102FD00000229A601E4B0022DA601D4B00221A610B
:102FE0001B4B0C225A611A4B00229A61184B00228B
:102FF000DA61174B00221A62154B00225A62144BF9
:1030000000229A62124809F0FDFD0346002B01D010
:1030100000F05DFD4FF020410D480BF098FF034696
:10302000002B01D000F053FD002109480BF0CDFF2B
:103030000346002B01D000F04AFD05480BF04EFF7F
:103040000346002B01D000F042FD00BF80BD00BF51
:10305000C8790020007C004080B500AF224B234A95
:103060001A60214B4FF4E1325A601F4B00229A60E4
:103070001D4B0022DA601C4B00221A611A4B0C22F5
:103080005A61194B00229A61174B0022DA61164BE4
:1030900000221A62144B00225A62134B00229A62D9
:1030A000114809F0AFFD0346002B01D000F00FFDE1
:1030B00000210D480BF04BFF0346002B01D000F020
:1030C00006FD002108480BF080FF0346002B01D0CD
:1030D00000F0FDFC04480BF001FF0346002B01D07B
:1030E00000F0F5FC00BF80BD5C7A00200068004065
:1030F00080B590B000AF07F12003202200211846D0
:103100000CF029FF07F1100300221A605A609A6040
:10311000DA603B4600221A605A609A60DA60554BCA
:10312000554A1A60534B554A5A60524B00229A60D6
:10313000504B0022DA604F4B00221A614D4B0022A7
:103140005A614C4B00229A614A4B0022DA61494B8A
:1031500000221A62474B4FF480525A62454B0022BC
:103160009A62444B0022DA62424B00221A63414BBE
:1031700000225A633F4B00229A633E4B0022DA63DF
:103180003C4B00225A643B4B00221A64394B00220C
:1031900083F848200F233B620F237B62FF23BB622F
:1031A0000323FB620F233B6310237B631123BB6369
:1031B0000023FB6307F12003002219462D4809F084
:1031C00033FC0346002B01D000F081FC2C4B2D4A30
:1031D0001A602B4B4FF480725A60294B02229A607E
:1031E000274B0022DA60264B40221A61244B4FF411
:1031F00020225A61224B0F229A61214B0F22DA6161
:103200001F4B4FF400525A621D4B4FF4E0729A620A
:103210001B4B8022DA621A4B4FF480521A63184B10
:1032200002225A63164B4FF400629A63144B012238
:1032300083F83C2013233B6113237B610623BB618E
:103240000323FB6113233B6013237B600A23BB60D2
:103250000923FB603A4607F110031946084801F0BC
:1032600029FF0346002B01D000F031FC00BF40379E
:10327000BD4680BDF07A00200004004704050047E9
:10328000487B00208004004780B58EB000AF07F176
:10329000240300221A605A609A60DA601A61C24BF5
:1032A000D3F88C30C04A43F01003C2F88C30BE4BC8
:1032B000D3F88C3003F010033B623B6ABA4BD3F86F
:1032C0008C30B94A43F00403C2F88C30B64BD3F8C3
:1032D0008C3003F00403FB61FB69B34BD3F88C30F3
:1032E000B14A43F02003C2F88C30AF4BD3F88C3096
:1032F00003F02003BB61BB69AB4BD3F88C30AA4A07
:1033000043F08003C2F88C30A74BD3F88C3003F025
:1033100080037B617B69A44BD3F88C30A24A43F0D5
:103320000103C2F88C30A04BD3F88C3003F00103BA
:103330003B613B699C4BD3F88C309B4A43F00203C2
:10334000C2F88C30984BD3F88C3003F00203FB604A
:10335000FB68954BD3F88C30934A43F04003C2F896
:103360008C30914BD3F88C3003F04003BB60BB68CA
:103370008D4BD3F88C308C4A43F00803C2F88C3064
:10338000894BD3F88C3003F008037B607B68002204
:103390004FF44461854801F0F9FD0022042184487E
:1033A00001F0F4FD002241F26741824801F0EEFD98
:1033B000002240F60301804801F0E8FD00224FF4AE
:1033C00078417E4801F0E2FD01224FF480617A48A5
:1033D00001F0DCFD00224FF4A071794801F0D6FD28
:1033E00000221021774801F0D1FD70237B62002379
:1033F000BB620023FB6207F1240319466F4801F00A
:1034000073FC4FF488637B620123BB620023FB6281
:1034100003233B6307F124031946644801F064FC6D
:1034200002237B62684BBB620023FB6207F124032B
:1034300019465F4801F058FC04237B620123BB62FC
:103440000023FB6203233B6307F12403194658481A
:1034500001F04AFC67237B620123BB620023FB620D
:1034600000233B6307F124031946524801F03CFC5A
:1034700003237B620123BB620023FB6200233B63C7
:1034800007F1240319464C4801F02EFC4FF4006369
:103490007B620123BB620023FB6200233B6307F1D5
:1034A00024031946414801F01FFC4FF478437B6226
:1034B0000123BB620023FB6200233B6307F124036B
:1034C00019463E4801F010FC4FF440637B62012333
:1034D000BB620023FB6203233B6307F1240319460D
:1034E000354801F001FC4FF4A0737B620123BB62FD
:1034F0000023FB6203233B6307F124031946304892
:1035000001F0F2FB80237B622F4BBB620023FB6246
:1035100007F1240319462A4801F0E6FB4FF4A053B3
:103520007B620123BB620023FB6203233B6307F141
:10353000240319461F4801F0D7FB4FF400637B6258
:10354000214BBB620023FB6207F124031946194893
:1035500001F0CAFB0C237B620023BB620023FB62E9
:1035600007F124031946174801F0BEFB10237B62C4
:103570000123BB620023FB6203233B6307F12403A7
:103580001946104801F0B0FB002200210C2001F088
:103590002DFA0C2001F044FA00220021122001F043
:1035A00025FA122012E000BF000C0244001402426F
:1035B00000080242000002420004024200100242DF
:1035C00000180242000C02420000211001F028FA0B
:1035D00000220021162001F009FA162001F020FA3D
:1035E00000BF3837BD4680BD80B500AF01220A4913
:1035F0000A4809F099FC012209490A4809F094FC9B
:1036000001220949094809F08FFC012208490948AB
:1036100009F08AFC00BF80BDA87B0020A0780020B4
:10362000AC7B0020C8790020B07B002034790020DA
:10363000B47B00205C7A002080B582B000AF786057
:103640007B681B689B4A934269D101229A499B4837
:1036500009F06AFC984B1B78232B0ED1984B1B78F2
:103660005A1CD1B2964A11701A46934B1978954B51
:103670009954954B01221A7018E0934B1B78012B3B
:1036800014D18F4B1B785A1CD1B28D4A11701A4637
:10369000894B19788B4B9954894B1B780F2B05D983
:1036A000874B00221A70884B00221A70864B1B78B9
:1036B000012B40F0E881804B1B78242B40F0E38104
:1036C0007F4B1B78013B7F4AD35C242B09D17F4B76
:1036D00001221A707A4B00221A707B4B00221A705A
:1036E000D1E1784B5B78322B0DD1764B9B78392B1F
:1036F00009D1764B01221A70714B00221A70724B5D
:1037000000221A70BFE16E4B00221A706E4B00222D
:103710001A700F2200216B480CF01DFCB3E17B688E
:103720001B686B4A934240F0E380012269496A4872
:1037300009F0FAFB674B1B78402B11D1674B002235
:103740001A70664B1B785A1CD1B2644A11701A4623
:10375000604B1978624B9954624B01221A7018E041
:10376000604B1B78012B14D15C4B1B785A1CD1B2D7
:103770005A4A11701A46574B1978594B9954574B5E
:103780001B78162B05D9554B00221A70554B002279
:103790001A70504B1B78242B12D1504B1B78152BD1
:1037A00003D1514B01221A700AE04E4B00221A70CD
:1037B0004A4B00221A701922002149480CF0CBFB19
:1037C000444B1B78232B0ED13D4B1B785A1CD1B296
:1037D0003B4A11701A463F4B19783A4B99543A4B71
:1037E00001221A7018E0384B1B78012B14D1344B8E
:1037F0001B785A1CD1B2324A11701A46354B1978CF
:10380000304B99542E4B1B780F2B05D92C4B002293
:103810001A702D4B00221A702B4B1B78012B40F095
:1038200032812C4B1B78242B40F02D81244B1B78AC
:10383000032B12D8224B1B781A4622492B480CF036
:103840002AFC0F2200211F480CF085FB1C4B002294
:103850001A701D4B00221A7015E1194B1B78042BAE
:1038600009D11A4B01221A70154B00221A70164BFF
:1038700000221A7007E1134B5B78322B0DD1114BEC
:103880009B78362B09D1114B01221A700C4B002268
:103890001A700D4B00221A70F5E0094B00221A70C5
:1038A000094B00221A700F22002106480CF053FB2E
:1038B000E9E000BF004C0040A87B0020A078002079
:1038C000E4020020D0020020A67B0020E5020020B8
:1038D00000500040B07B002034790020A57B002000
:1038E0008C7B0020AD7B0020AE7B0020F00200200E
:1038F0007B681B68664A934258D101226549664835
:1039000009F012FB634B1B78232B0ED1634B1B7802
:103910005A1CD1B2614A11701A465E4B1978604B3D
:103920009954604B01221A7018E05E4B1B78012BF2
:1039300014D15A4B1B785A1CD1B2584A11701A46EE
:10394000544B1978564B9954544B1B780F2B05D96F
:10395000524B00221A70534B00221A70514B1B78A5
:10396000012B40F090804B4B1B78242B40F08B8038
:103970004B4B5B78322B0DD1494B9B78372B09D1C0
:10398000494B01221A70454B00221A70454B002208
:103990001A7078E0414B00221A70424B00221A70D4
:1039A0000F2200213E480CF0D6FA6CE07B681B68C1
:1039B0003E4A934267D101223D493E4809F0B4FA9C
:1039C0003B4B1B78232B0ED1344B1B785A1CD1B2A6
:1039D000324A11701A46364B1978314B9954314B93
:1039E00001221A7018E02F4B1B78012B14D12B4B9E
:1039F0001B785A1CD1B2294A11701A462C4B1978DF
:103A0000274B9954254B1B780F2B05D9234B0022AC
:103A10001A70244B00221A70224B1B78012B32D1D2
:103A2000234B1B78242B2ED11C4B1B78013B1C4AAB
:103A3000D35C242B09D11C4B01221A70174B002296
:103A40001A70184B00221A701DE0154B5B78322B50
:103A50000DD1134B9B78382B09D1134B01221A70CF
:103A60000E4B00221A700F4B00221A700BE00B4B0A
:103A700000221A700B4B00221A700F2200210848F6
:103A80000CF069FAFFE700BF0837BD4680BD00BFF4
:103A9000007C0040AC7B0020C8790020E4020020BC
:103AA000D0020020A67B0020E50200200068004034
:103AB000B47B00205C7A002080B483B000AF034662
:103AC000FB8000BF0C37BD465DF8047B704780B4B7
:103AD00000AF72B600BF00BFFDE780B400AF00BF0B
:103AE000BD465DF8047B704780B5D0B000AF07F5E8
:103AF000A073A3F59E73186007F5967300221A60F1
:103B00005A609A60DA601A6107F5A073A3F59073A2
:103B100018464FF484731A4600210CF01CFA07F57E
:103B2000A073A3F59E731B681B689C4A93425FD1E8
:103B300007F5A073A3F590714FF080524FF000038A
:103B4000C1E9002307F5A073A3F590730022C3F821
:103B5000E42007F12003184603F0FAF80346002B8F
:103B600001D0FFF7B4FF8E4BD3F89C308C4A43F45E
:103B70008043C2F89C308A4BD3F89C3003F48042D7
:103B800007F5A073A3F592731A6007F5A073A3F568
:103B900092731B68824BD3F88C30814A43F0020346
:103BA000C2F88C307E4BD3F88C3003F0020207F55C
:103BB000A073A3F594731A6007F5A073A3F594732B
:103BC0001B684FF46043C7F82C310223C7F830312B
:103BD0000023C7F834310023C7F838310523C7F86C
:103BE0003C3107F5967319466E4801F07DF8D0E038
:103BF00007F5A073A3F59E731B681B686A4A93427E
:103C00005FD107F5A073A3F590714FF000524FF00C
:103C10000003C1E9002307F5A073A3F59073002208
:103C2000C3F8E82007F12003184603F091F8034693
:103C3000002B01D0FFF74BFF594BD3F89C30584A6B
:103C400043F40043C2F89C30554BD3F89C3003F446
:103C5000004207F5A073A3F596731A6007F5A073E9
:103C6000A3F596731B684E4BD3F88C304C4A43F047
:103C70000403C2F88C304A4BD3F88C3003F00402B2
:103C800007F5A073A3F598731A6007F5A073A3F561
:103C900098731B684FF4E053C7F82C310223C7F820
:103CA00030310023C7F834310023C7F838310623F8
:103CB000C7F83C3107F5967319463C4801F014F8F3
:103CC00067E007F5A073A3F59E731B681B68384A6D
:103CD00093425ED107F5A073A3F590714FF00042B7
:103CE0004FF00003C1E9002307F5A073A3F590731B
:103CF0000022C3F8F02007F12003184603F028F84B
:103D00000346002B01D0FFF7E2FE254BD3F8A83085
:103D1000234A43F02003C2F8A830214BD3F8A8303F
:103D200003F0200207F5A073A3F59A731A6007F554
:103D3000A073A3F59A731B68194BD3F88C30184AFB
:103D400043F02003C2F88C30154BD3F88C3003F0CD
:103D5000200207F5A073A3F59C731A6007F5A07302
:103D6000A3F59C731B684FF46073C7F82C310223D2
:103D7000C7F830310023C7F834310023C7F8383191
:103D80000523C7F83C3107F596731946094800F03A
:103D9000ABFF00BF07F5A077BD4680BD00380040EF
:103DA000000C024400040242003C004000080242B1
:103DB000002000440014024280B5D2B000AF07F5E5
:103DC000A473A3F5A273186007F59A7300221A6012
:103DD0005A609A60DA601A6107F5A473A3F59073CC
:103DE00018464FF484731A4600210CF0B4F807F516
:103DF000A473A3F5A2731B681B68A44A934266D1FF
:103E000007F5A473A3F590714FF008024FF000037B
:103E1000C1E9002307F5A473A3F5907300229A6605
:103E200007F12803184602F093FF0346002B01D048
:103E3000FFF74DFE964BD3F89C30954A43F4002390
:103E4000C2F89C30924BD3F89C3003F4002207F563
:103E5000A473A3F592731A6007F5A473A3F5927384
:103E60001B688B4BD3F88C30894A43F00203C2F8AD
:103E70008C30874BD3F88C3003F0020207F5A47323
:103E8000A3F594731A6007F5A473A3F594731B68E4
:103E90004FF44073C7F834310223C7F83831002398
:103EA000C7F83C310023C7F840310823C7F8443134
:103EB00007F59A731946774800F016FF0022002193
:103EC0003D2000F093FD3D2000F0AAFD59E107F5EB
:103ED000A473A3F5A2731B681B686F4A934265D154
:103EE00007F5A473A3F590714FF010024FF0000393
:103EF000C1E9002307F5A473A3F590730022DA66E5
:103F000007F12803184602F023FF0346002B01D0D7
:103F1000FFF7DDFD5E4BD3F89C305D4A43F4801320
:103F2000C2F89C305A4BD3F89C3003F4801207F54A
:103F3000A473A3F596731A6007F5A473A3F596739B
:103F40001B68534BD3F88C30514A43F00203C2F83C
:103F50008C304F4BD3F88C3003F0020207F5A4737A
:103F6000A3F598731A6007F5A473A3F598731B68FB
:103F70006023C7F834310223C7F838310023C7F86B
:103F80003C310023C7F840310E23C7F8443107F510
:103F90009A7319463F4800F0A7FE002200213E20F8
:103FA00000F024FD3E2000F03BFDEAE007F5A4739D
:103FB000A3F5A2731B681B68384A934272D107F5B8
:103FC000A473A3F590714FF080024FF00003C1E994
:103FD000002307F5A473A3F5907300229A6707F1F5
:103FE0002803184602F0B4FE0346002B01D0FFF769
:103FF0006EFD274BD3F89C30254A43F00043C2F8AE
:104000009C30234BD3F89C3003F0004207F5A47397
:10401000A3F59A731A6007F5A473A3F59A731B6846
:104020001B4BD3F88C301A4A43F01003C2F88C3083
:10403000174BD3F88C3003F0100207F5A473A3F5E7
:104040009C731A6007F5A473A3F59C731B68032384
:10405000C7F834310223C7F838310023C7F83C31A0
:104060000023C7F840310823C7F8443107F59A7395
:1040700019460B4800F038FE00220021632000F0B2
:10408000B5FC632000F0CCFC7BE000BF004C00409E
:10409000000C02440004024200500040007C00403A
:1040A0000010024207F5A473A3F5A2731B681B68F6
:1040B000364A934265D107F5A473A3F590714FF486
:1040C00000724FF00003C1E9002307F5A473A3F5C4
:1040D00090730022C3F8802007F12803184602F0ED
:1040E00037FE0346002B01D0FFF7F1FC284BD3F835
:1040F0009C30274A43F08063C2F89C30244BD3F8AD
:104100009C3003F0806207F5A473A3F59E731A60D8
:1041100007F5A473A3F59E731B681D4BD3F88C3071
:104120001B4A43F01003C2F88C30194BD3F88C3083
:1041300003F0100207F5A473A3F5A0731A6007F546
:10414000A473A3F5A0731B680C23C7F834310223B2
:10415000C7F838310023C7F83C310023C7F8403195
:104160000723C7F8443107F59A731946094800F048
:10417000BBFD00220021562000F038FC562000F044
:104180004FFC00BF07F5A477BD4680BD0068004026
:10419000000C02440010024280B586B000AF3B1D07
:1041A00000221A605A609A60DA601A61434B1B68F9
:1041B000002B7FD1414B01221A60414BD3F8943040
:1041C0003F4A43F48033C2F894303D4BD3F89430E7
:1041D00003F480333B603B684FF23F037B60022374
:1041E000BB600023FB6003233B610C237B613B1D11
:1041F0001946344800F078FD80237B600223BB60C1
:104200000023FB6003233B610D237B613B1D1946AB
:104210002D4800F069FD3F237B600223BB60002333
:10422000FB6003233B610C237B613B1D1946274840
:1042300000F05AFD4FF4F0637B600223BB60002363
:10424000FB6003233B610C237B613B1D1946204827
:1042500000F04AFD4FF683037B600223BB6000231E
:10426000FB6003233B610C237B613B1D194619480E
:1042700000F03AFDC0237B600223BB600023FB609B
:1042800003233B6109237B613B1D1946124800F063
:104290002BFD4FF480737B600223BB600023FB6027
:1042A00003233B610C237B613B1D1946064800F04C
:1042B0001BFD00E000BF1837BD4680BDB87B002065
:1042C000000C0244001402420000024200180242A4
:1042D00000100242000C02420008024280B582B087
:1042E00000AF7860FFF758FF00BF0837BD4680BDBC
:1042F00080B582B000AF7860FFF74EFF00BF08378F
:10430000BD4680BD80B400AF00BFFDE780B400AF04
:1043100000BFFDE780B400AF00BFFDE780B400AF91
:1043200000BFFDE780B400AF00BFFDE780B400AF81
:1043300000BFBD465DF8047B704780B400AF00BF8E
:10434000BD465DF8047B704780B400AF00BFBD463A
:104350005DF8047B704780B500AF00F04BFA00BFFA
:1043600080BD80B500AF022000F042FE00BF80BDDE
:1043700080B500AF802000F03BFE00BF80BD80B55F
:1043800000AF4FF4006000F033FE00BF80BD0000BE
:1043900080B500AF024808F029FE00BF80BD00BF15
:1043A000A078002080B500AF024808F01FFE00BFD3
:1043B00080BD00BF3479002080B500AF024808F00E
:1043C00015FE00BF80BD00BFC879002080B500AFDA
:1043D000024808F00BFE00BF80BD00BF5C7A0020E1
:1043E00080B400AF01231846BD465DF8047B7047DA
:1043F00080B582B000AF786039600BF011FE0346E3
:1044000016221A604FF0FF3318460837BD4680BDAC
:1044100080B582B000AF78604FF0FF317868FFF769
:10442000E7FF00BFFDE780B586B000AFF860B96078
:104430007A6000237B610AE0AFF300800146BB682D
:104440005A1CBA60CAB21A707B6901337B617A69FF
:104450007B689A42F0DB7B6818461837BD4680BD02
:1044600080B586B000AFF860B9607A6000237B61E8
:1044700009E0BB685A1CBA601B781846AFF300808D
:104480007B6901337B617A697B689A42F1DB7B68E7
:1044900018461837BD4680BD80B483B000AF786041
:1044A0004FF0FF3318460C37BD465DF8047B70476C
:1044B00080B483B000AF786039603B684FF400523D
:1044C0005A60002318460C37BD465DF8047B7047E0
:1044D00080B483B000AF7860012318460C37BD4626
:1044E0005DF8047B704780B485B000AFF860B960B8
:1044F0007A60002318461437BD465DF8047B704788
:1045000080B586B000AF7860144A154BD31A7B6132
:104510007B693B61134B1B68002B02D1114B124A84
:104520001A60104B1A687B6813443A699A4207D2A2
:104530000BF076FD03460C221A604FF0FF3309E0C2
:10454000084B1B68FB60074B1A687B681344054ADD
:104550001360FB6818461837BD4680BD00000A206E
:1045600000040000BC7B0020107D002080B483B0DC
:1045700000AF354BD3F88830334A43F47003C2F8A8
:104580008830324B01221A60304B0022DA612F4B07
:1045900000221A622D4B1A682C492D4B13400B60D8
:1045A0002A4B00229A62294B0022DA62274B002212
:1045B0001A63264B274A5A63244B00229A63234BE3
:1045C000244ADA63214B00221A64204B214A5A64A0
:1045D0001E4B00229A641D4B1B681C4A23F4802347
:1045E00013601A4B00221A65174B4FF000629A6055
:1045F000194B9B6903F060437B607B68B3F1604FAC
:1046000003D07B68B3F1404F17D1134BDB6903F044
:104610000103002B05D0104B104ADA600E4B104AF4
:10462000DA600D4BDB690C4A43F00203D3610A4B9D
:10463000DB69094A43F00103D36100BF0C37BD4673
:104640005DF8047B704700BF00ED00E0000C024401
:10465000E3EAE2EA80020101002002403B2A190855
:104660007F6E5D4C0D488546FFF780FF0C480D4975
:104670000D4A002302E0D458C4500433C4188C42BD
:10468000F9D30A4A0A4C002301E013600432A24223
:10469000FBD30BF0CBFCFEF71FFAFEE700000A206D
:1046A0000000002008020020C028010808020020A5
:1046B000107D0020FEE7000080B500AF032000F071
:1046C0008AF902F0BBF902460C4B1B6A03F00F0398
:1046D0000B49CB5C22FA03F30A4A1360042000F072
:1046E000CFF90F2000F010F80346002B01D0012372
:1046F00002E0FFF7F2F90023184680BD000C0244E7
:10470000FC2401082400002080B584B000AF78604C
:104710000023FB60334B1B78002B01D101235CE0AD
:10472000314B1B6803F00403042B0CD12F4B1A6888
:104730002C4B1B7819464FF47A73B3FBF1F3B2FBA1
:10474000F3F3FB6037E000F0F3F9B860BB68022BCD
:1047500023D0BB68022B2DD8BB68002B03D0BB68CD
:10476000012B0DD026E0214B1A681E4B1B781946F1
:104770004FF4FA53B3FBF1F3B2FBF3F3FB601AE02F
:10478000184B1B781A464FF47A73B3FBF2F34FF4CD
:10479000FA42B2FBF3F3FB600DE0124B1B781A46B2
:1047A0004FF47A73B3FBF2F34FF40042B2FBF3F32E
:1047B000FB6000E000BFF86800F040F90346002B02
:1047C00001D0012309E0002279684FF0FF3000F0AA
:1047D0000DF9074A7B681360002318461037BD4661
:1047E00080BD00BF2C00002010E000E0240000206D
:1047F0002800002080B400AF064B1B781A46064BF9
:104800001B681344044A136000BFBD465DF8047B77
:10481000704700BF2C000020C07B002080B400AF98
:10482000034B1B681846BD465DF8047B704700BF0C
:10483000C07B002080B584B000AF7860FFF7EEFF4A
:10484000B8607B68FB60FB68B3F1FF3F05D00A4BA3
:104850001B781A46FB681344FB6000BFFFF7DEFFBE
:104860000246BB68D31AFA689A42F7D800BF00BF65
:104870001037BD4680BD00BF2C00002080B485B03D
:1048800000AF78607B6803F00703FB600C4BDB68CC
:10489000BB60BA684FF6FF031340BB60FB681A02A7
:1048A000BB68134343F0BF6343F40033BB60044A67
:1048B000BB68D36000BF1437BD465DF8047B70470A
:1048C00000ED00E080B400AF044BDB681B0A03F08E
:1048D00007031846BD465DF8047B704700ED00E015
:1048E00080B483B000AF0346FB80B7F90630002BDD
:1048F0000BDBFB8803F01F020749B7F906305B09A1
:10490000012000FA02F241F8232000BF0C37BD4617
:104910005DF8047B704700BF00E100E080B483B025
:1049200000AF03463960FB80B7F90630002B0ADB85
:104930003B68DAB20C49B7F906301201D2B20B4427
:1049400083F800230AE03B68DAB20849FB8803F0E9
:104950000F03043B1201D2B20B441A7600BF0C378E
:10496000BD465DF8047B704700E100E000ED00E02B
:1049700080B489B000AFF860B9607A60FB6803F07A
:104980000703FB61FB69C3F10703042B28BF042362
:10499000BB61FB690433062B02D9FB69033B00E0D2
:1049A00000237B614FF0FF32BB6902FA03F3DA4365
:1049B000BB681A407B699A404FF0FF317B6901FA6E
:1049C00003F3D9437B680B40134318462437BD4695
:1049D0005DF8047B704780B582B000AF786078687E
:1049E000FFF74CFF00BF0837BD4680BD80B586B0DD
:1049F00000AF0346B9607A60FB81FFF763FF78611F
:104A00007A68B9687869FFF7B3FF0246B7F90E30E4
:104A100011461846FFF782FF00BF1837BD4680BD1C
:104A200080B582B000AF0346FB80B7F90630184668
:104A3000FFF756FF00BF0837BD4680BD80B483B086
:104A400000AF78607B68013BB3F1807F01D3012325
:104A50000DE00A4A7B68013B5360084B00229A60D4
:104A6000064B1B68054A43F00303136000231846F6
:104A70000C37BD465DF8047B704700BF10E000E0D6
:104A800080B483B000AF78607B68042B44D801A267
:104A900052F823F0B74A0008D54A0008F74A000840
:104AA000194B0008A94A00081F4B1B681E4A43F017
:104AB0000403136031E01C4B1B681B4A23F0040302
:104AC00013601A4BD3F8E430184A23F00C03C2F8F1
:104AD000E43022E0144B1B68134A23F004031360F4
:104AE000124BD3F8E43023F00C03104A43F00403D4
:104AF000C2F8E43011E00C4B1B680B4A23F00403AE
:104B000013600A4BD3F8E43023F00C03074A43F058
:104B10000803C2F8E43000E000BF00BF0C37BD4618
:104B20005DF8047B704700BF10E000E0000C024419
:104B300080B483B000AF174B1B6803F00403002B55
:104B400002D004237B601EE0134BD3F8E43003F063
:104B50000C033B603B68082B0FD03B68082B0FD839
:104B60003B68002B03D03B68042B03D008E00023F4
:104B70007B6008E001237B6005E002237B6002E0AC
:104B800000237B6000BF7B6818460C37BD465DF88C
:104B9000047B704710E000E0000C024480B584B054
:104BA00000AF7860FFF73AFEF8607B68002B01D118
:104BB00001236BE07B6893F85430DBB2022B08D002
:104BC0007B6820229A657B68002283F84C200123B1
:104BD0005CE07B681B685A697B681B6842F00402D2
:104BE0005A617B68052283F8542020E0FFF716FE07
:104BF0000246FB68D31A052B19D97B689B6D43F0DD
:104C000010027B689A657B68032283F854207B68D6
:104C10001B6D03F08003002B03D07B685B6F0122C8
:104C20001A737B68002283F84C2001232EE07B68F6
:104C30001B681B6903F40053002BD7D07B681B68EB
:104C40005A697B681B6842F002025A617B68042241
:104C500083F854207B681B684FF4FE42DA607B685F
:104C6000012283F854207B681B6D03F08003002B26
:104C700007D07B685B6F01221A737B681B68002278
:104C80009A647B68002283F84C2000231846103772
:104C9000BD4680BD80B483B000AF78607B68002BD8
:104CA00001D1012319E07B6893F85430DBB2022B69
:104CB00004D07B6820229A6501230EE07B680422E1
:104CC00083F854207B681B685B697A68126843F438
:104CD000005343F004035361002318460C37BD46CC
:104CE0005DF8047B7047000080B487B000AF786047
:104CF000396000233B6136E13B681A6801213B695A
:104D000001FA03F31340FB60FB68002B00F02881DD
:104D10003B685B68022B03D03B685B68122B25D194
:104D20003B69DA087B68083253F822307B613B69C3
:104D300003F007039B000F2202FA03F3DB437A69B7
:104D400013407B613B681B6903F00F023B6903F072
:104D500007039B0002FA03F37A6913437B613B6903
:104D6000DA087B680832796943F822107B681B688F
:104D70007B613B695B00032202FA03F3DB437A6940
:104D800013407B613B685B6803F003023B695B0097
:104D900002FA03F37A6913437B617B687A691A60CC
:104DA0003B685B68012B0BD03B685B68022B07D02C
:104DB0003B685B68112B03D03B685B68122B30D1DA
:104DC0007B689B687B613B695B00032202FA03F30B
:104DD000DB437A6913407B613B68DA683B695B00BF
:104DE00002FA03F37A6913437B617B687A699A60FC
:104DF0007B685B687B6101223B6902FA03F3DB435A
:104E00007A6913407B613B685B681B0903F0010210
:104E10003B6902FA03F37A6913437B617B687A6921
:104E20005A603B685B68032B17D07B68DB687B614B
:104E30003B695B00032202FA03F3DB437A69134008
:104E40007B613B689A683B695B0002FA03F37A690D
:104E500013437B617B687A69DA603B685B6803F0C7
:104E60008053002B7CD0474A3B699B08183352F88B
:104E700023307B613B6903F00303DB000F2202FA5E
:104E800003F3DB437A6913407B617B689A0A3E4BEC
:104E900013403A6902F00302D20093407A69134347
:104EA0007B6138493B699B0818337A6941F82320B4
:104EB000344B1B687B61FB68DB437A6913407B6181
:104EC0003B685B6803F48013002B03D07A69FB68AE
:104ED00013437B612B4A7B6913602A4B5B687B61C0
:104EE000FB68DB437A6913407B613B685B6803F4D2
:104EF0000013002B03D07A69FB6813437B61214ABE
:104F00007B6953601F4BD3F884307B61FB68DB43C4
:104F10007A6913407B613B685B6803F40033002BC4
:104F200003D07A69FB6813437B61164A7B69C2F838
:104F30008430144BD3F880307B61FB68DB437A69A3
:104F400013407B613B685B6803F48033002B03D024
:104F50007A69FB6813437B610A4A7B69C2F8803037
:104F60003B6901333B613B681A683B6922FA03F3F2
:104F7000002B7FF4C1AE00BF00BF1C37BD465DF8FB
:104F8000047B7047002002447F7F2F0080B483B0F1
:104F900000AF78600B467B8013467B707B78002BDC
:104FA00003D07A887B689A6102E07A887B689A628B
:104FB00000BF0C37BD465DF8047B704780B485B0F8
:104FC00000AF78600B467B807B685B69FB607A880A
:104FD000FB6813401A04FB68D9437B880B401A43D3
:104FE0007B689A6100BF1437BD465DF8047B70474B
:104FF00080B582B000AF0346FB800F4BDA68FB88B8
:105000001340002B06D00C4AFB88D360FB8818465F
:1050100000F014F8084B1A69FB881340002B06D0E7
:10502000054AFB881361FB881846FEF745FD00BF63
:105030000837BD4680BD00BF0020024480B483B065
:1050400000AF0346FB8000BF0C37BD465DF8047B14
:105050007047000080B485B000AF78600023FB7318
:105060000B4B1B6803F00103002B02D00123FB73E1
:1050700007E0074B1B6823F0040205497B681343D4
:105080000B60FB7B18461437BD465DF8047B704708
:105090000004034080B400AF054B1B68044A43F092
:1050A0000103136000231846BD465DF8047B70477A
:1050B0000004034080B584B000AFF860B9607A6046
:1050C000FB68002B01D1012337E0FB6893F8213006
:1050D000DBB2002B06D1FB68002283F82020F868A1
:1050E000FFF706F9FB681A68FB6804331946104697
:1050F0000AF04EF9FB681868FB685B681A46B968E5
:105100000AF070F9FB681868FB685B681A467968F2
:105110000AF085F9FB681B681A68FB681B6842F097
:1051200004021A60074B1B68064A43F000431360F1
:10513000FB68012283F82120002318461037BD4662
:1051400080BD00BF0004004780B485B000AF786028
:105150007B6893F82130DBB2022B01D1022327E0D8
:105160007B6893F82130DBB2012B20D17B6893F868
:105170002030012B01D102231AE07B68012283F841
:1051800020207B68022283F821204FF00043FB603F
:10519000FB6843F48033FF221A707B68012283F896
:1051A00021207B68002283F82020002300E00123D7
:1051B00018461437BD465DF8047B704780B58CB047
:1051C00000AFF860B9607A603B600023BB623B6867
:1051D0003B627B68FB61FB6893F82130DBB2022BFA
:1051E00001D1022340E1FB6893F82130DBB2012BAF
:1051F00040F03981FB6893F82030012B01D1022364
:1052000032E1FB68012283F82020FB68022283F848
:1052100021204FF00043BB61BB681B881946BB6867
:105220009B881A46BB685B881846FB689B6B00FB33
:1052300003F31344FA68D26A02FB03F30B447B6264
:10524000FAE0BB6943F4803300221A70BFF34F8F3A
:1052500000BFFB685B6AB3F5007F48D8FB68DB6A78
:10526000FA68126B02FB03F3B3F5803F1AD2BB69F5
:1052700043F4003300221A70BFF34F8F00BFBB69A5
:1052800043F400337A6AD2B21A70BFF34F8F00BF73
:105290007B6A1A0ABB6943F40033D2B21A70BFF3B7
:1052A0004F8F7DE0BB6943F4003300221A70BFF3D7
:1052B0004F8F00BFBB6943F400337A6AD2B21A70D1
:1052C000BFF34F8F00BF7B6A1A0ABB6943F40033F8
:1052D000D2B21A70BFF34F8F00BF7B6A1A0CBB6942
:1052E00043F40033D2B21A70BFF34F8F58E0FB681B
:1052F000DB6AFA68126B02FB03F3B3F5803F22D23C
:10530000BB6943F4003300221A70BFF34F8F00BF14
:10531000BB6943F4003300221A70BFF34F8F00BF04
:10532000BB6943F400337A6AD2B21A70BFF34F8F6D
:1053300000BF7B6A1A0ABB6943F40033D2B21A7009
:10534000BFF34F8F2CE0BB6943F4003300221A7087
:10535000BFF34F8F00BFBB6943F4003300221A70C4
:10536000BFF34F8F00BFBB6943F400337A6AD2B2F8
:105370001A70BFF34F8F00BF7B6A1A0ABB6943F4F0
:105380000033D2B21A70BFF34F8F00BF7B6A1A0C82
:10539000BB6943F40033D2B21A70BFF34F8F00BF22
:1053A000BB6943F4803330221A70BFF34F8F00BFC4
:1053B000FB6893F83C30012B23D1FFF72FFA78617B
:1053C00011E0FFF72BFA02467B69D31AB3F1807F15
:1053D00009D9FB68032283F82120FB68002283F8A7
:1053E0002020032340E0F86800F013FD0346402B23
:1053F000E7D1BB6943F4803300221A70BFF34F8FAB
:1054000000BF0023FB6209E0BB691A78FB691A70D0
:10541000FB690133FB61FB6A0133FB62FB685B6A7A
:10542000FA6A9A42F0D3BB6A0133BB623B6A013B22
:105430003B627B6A01337B623B6A002B09D0FB68CD
:10544000DB6AFA68126B02FB03F37A6A9A42FFF492
:10545000F8AEFB68012283F82120FB68002283F864
:105460002020002300E0012318463037BD4680BDD0
:1054700080B58CB000AFF860B9607A603B60002303
:10548000BB623B683B627B68FB61FB6893F8213041
:10549000DBB2022B01D102233EE1FB6893F82130FD
:1054A000DBB2012B40F03781FB6893F82030012BF1
:1054B00001D1022330E1FB68012283F82020FB6840
:1054C000022283F821204FF00043BB61BB681B8898
:1054D0001946BB689B881A46BB685B881846FB6800
:1054E0009B6B00FB03F31344FA68D26A02FB03F3DD
:1054F0000B447B62F8E0BB6943F4803300221A70EE
:10550000BFF34F8F00BFBB6943F4803380221A7012
:10551000BFF34F8F00BFFB685B6AB3F5007F48D8CD
:10552000FB68DB6AFA68126B02FB03F3B3F5803F9A
:105530001AD2BB6943F4003300221A70BFF34F8FB5
:1055400000BFBB6943F400337A6AD2B21A70BFF36A
:105550004F8F00BF7B6A1A0ABB6943F40033D2B293
:105560001A70BFF34F8F7DE0BB6943F40033002214
:105570001A70BFF34F8F00BFBB6943F400337A6AE0
:10558000D2B21A70BFF34F8F00BF7B6A1A0ABB6991
:1055900043F40033D2B21A70BFF34F8F00BF7B6A5F
:1055A0001A0CBB6943F40033D2B21A70BFF34F8FA9
:1055B00058E0FB68DB6AFA68126B02FB03F3B3F591
:1055C000803F22D2BB6943F4003300221A70BFF33C
:1055D0004F8F00BFBB6943F4003300221A70BFF342
:1055E0004F8F00BFBB6943F400337A6AD2B21A709E
:1055F000BFF34F8F00BF7B6A1A0ABB6943F40033C5
:10560000D2B21A70BFF34F8F2CE0BB6943F4003362
:1056100000221A70BFF34F8F00BFBB6943F4003301
:1056200000221A70BFF34F8F00BFBB6943F40033F1
:105630007A6AD2B21A70BFF34F8F00BF7B6A1A0A20
:10564000BB6943F40033D2B21A70BFF34F8F00BF6F
:105650007B6A1A0CBB6943F40033D2B21A70BFF3F1
:105660004F8F00BF0023FB620CE0BB69FA69127820
:105670001A70FB690133FB61BFF34F8F00BFFB6AF8
:105680000133FB62FB685B6AFA6A9A42EDD3BB693D
:1056900043F4803310221A70BFF34F8F00BFFFF71F
:1056A000BDF8786111E0FFF7B9F802467B69D31ABB
:1056B000B3F1807F09D9FB68032283F82120FB68BE
:1056C000002283F82020032326E0F86800F0A1FBE5
:1056D0000346402BE7D1BB6A0133BB623B6A013B07
:1056E0003B627B6A01337B623B6A002B09D0FB681B
:1056F000DB6AFA68126B02FB03F37A6A9A42FFF4E0
:10570000FAAEFB68012283F82120FB68002283F8AF
:105710002020002300E0012318463037BD4680BD1D
:1057200080B58CB000AFF860B9607A603B60002350
:10573000BB623B683B627B68FB61FB6893F821308E
:10574000DBB2022B01D1022351E1FB6893F8213037
:10575000DBB2012B40F04A81FB6893F82030012B2B
:1057600001D1022343E1FB68012283F82020FB687A
:10577000022283F821204FF00043BB61BB681B88E5
:105780001946BB689B881A46BB685B881846FB684D
:105790009B6B00FB03F31344FA68D26A02FB03F32A
:1057A0000B447B62FB685B6A7B6108E1FB685B6AB8
:1057B000B3F5007F50D8BB6943F4803350221A7090
:1057C000BFF34F8F00BFFB68DB6AFA68126B02FB06
:1057D00003F3B3F5803F1AD2BB6943F400330022D0
:1057E0001A70BFF34F8F00BFBB6943F400337A6A6E
:1057F000D2B21A70BFF34F8F00BF7B6A1A0ABB691F
:1058000043F40033D2B21A70BFF34F8F8BE0BB6901
:1058100043F4003300221A70BFF34F8F00BFBB69FF
:1058200043F400337A6AD2B21A70BFF34F8F00BFCD
:105830007B6A1A0ABB6943F40033D2B21A70BFF311
:105840004F8F00BF7B6A1A0CBB6943F40033D2B29E
:105850001A70BFF34F8F66E0BB6943F480330022B8
:105860001A70BFF34F8F00BFFB68DB6AFA68126BD8
:1058700002FB03F3B3F5803F25D2BB6943F4003349
:105880007A69D2B21A70BFF34F8F00BF7B691A0AD0
:10589000BB6943F40033D2B21A70BFF34F8F00BF1D
:1058A000BB6943F400337A6AD2B21A70BFF34F8FE8
:1058B00000BF7B6A1A0ABB6943F40033D2B21A7084
:1058C000BFF34F8F2FE0BB6943F400337A69D2B244
:1058D0001A70BFF34F8F00BF7B691A0ABB6943F48C
:1058E0000033D2B21A70BFF34F8F00BFBB6943F4CD
:1058F00000337A6AD2B21A70BFF34F8F00BF7B6A4F
:105900001A0ABB6943F40033D2B21A70BFF34F8F47
:1059100000BF7B6A1A0CBB6943F40033D2B21A7021
:10592000BFF34F8F00BFBB6943F4803330221A703E
:10593000BFF34F8F00BFFB6893F83C30012B23D19E
:10594000FEF76CFF386111E0FEF768FF02463B6925
:10595000D31AB3F1807F09D9FB68032283F8212091
:10596000FB68002283F82020032340E0F86800F061
:1059700050FA0346402BE7D1BB6943F48033002241
:105980001A70BFF34F8F00BF0023FB6209E0BB69B1
:105990001A78FB691A70FB690133FB61FB6A0133FA
:1059A000FB62FB689B6AFA6A9A42F0D3BB6A0133D6
:1059B000BB623B6A013B3B627B6A01337B623B6AB1
:1059C000002B09D0FB68DB6AFA68126B02FB03F359
:1059D0007A6A9A42FFF4EAAEFB68012283F821203A
:1059E000FB68002283F82020002300E001231846F2
:1059F0003037BD4680BD80B58CB000AFF860B9606F
:105A00007A603B600023BB623B683B627B68FB6162
:105A1000FB6893F82130DBB2022B01D1022357E15E
:105A2000FB6893F82130DBB2012B40F05081FB681A
:105A300093F82030012B01D1022349E1FB680122B8
:105A400083F82020FB68022283F821204FF00043D6
:105A5000BB61BB681B881946BB689B881A46BB683C
:105A60005B881846FB689B6B00FB03F31344FA68E2
:105A7000D26A02FB03F30B447B62FB685B6A7B61C7
:105A80000EE1FB685B6AB3F5007F58D8BB6943F44D
:105A9000803350221A70BFF34F8F00BFBB6943F4AD
:105AA000803380221A70BFF34F8F00BFFB68DB6A20
:105AB000FA68126B02FB03F3B3F5803F1AD2BB699D
:105AC00043F4003300221A70BFF34F8F00BFBB694D
:105AD00043F400337A6AD2B21A70BFF34F8F00BF1B
