:020000040800F2
:10C0000000000A2025CB0008B9C90008C1C90008F2
:10C01000C9C90008D1C90008D9C9000875CB0008F2
:10C02000000000000000000000000000E1C900085E
:10C03000EFC9000800000000FDC900080BCA000895
:10C0400075CB000875CB000875CB000875CB0008D0
:10C0500075CB000875CB000875CB000875CB0008C0
:10C0600075CB000875CB000875CB000875CB0008B0
:10C0700075CB000875CB000875CB000875CB0008A0
:10C0800075CB000875CB000875CB000875CB000890
:10C0900075CB000875CB000875CB000875CB000880
:10C0A00075CB000875CB000875CB000875CB000870
:10C0B00075CB000875CB000875CB000875CB000860
:10C0C00075CB000875CB000875CB000875CB000850
:10C0D00075CB000875CB000875CB000875CB000840
:10C0E00075CB000875CB000875CB000875CB000830
:10C0F00075CB000875CB000875CB000875CB000820
:10C1000075CB000875CB000875CB000875CB00080F
:10C1100075CB000875CB000875CB000875CB0008FF
:10C1200075CB000875CB000875CB000875CB0008EF
:10C1300075CB000875CB000819CA000875CB00083C
:10C1400075CB000875CB000875CB000875CB0008CF
:10C1500075CB000875CB000875CB000875CB0008BF
:10C1600075CB000875CB000875CB000875CB0008AF
:10C1700075CB000875CB000875CB000875CB00089F
:10C1800075CB000875CB000875CB000875CB00088F
:10C1900075CB000875CB000875CB000875CB00087F
:10C1A00075CB000875CB000875CB000875CB00086F
:10C1B00075CB000875CB000875CB000875CB00085F
:10C1C00075CB000875CB000875CB000875CB00084F
:10C1D00075CB000875CB000875CB000875CB00083F
:10C1E00075CB000875CB000875CB000875CB00082F
:10C1F00075CB000875CB000875CB000875CB00081F
:10C2000075CB000875CB000875CB000875CB00080E
:10C2100075CB000875CB000875CB000875CB0008FE
:10C2200075CB000875CB000875CB000875CB0008EE
:10C2300075CB000875CB000875CB000875CB0008DE
:0CC2400075CB000875CB000875CB00081A
:10C24C0010B5054C237833B9044B13B10448AFF344
:10C25C0000800123237010BD0C00002000000000A2
:10C26C004447010808B5034B1BB103490348AFF31E
:10C27C00008008BD000000001000002044470108A9
:10C28C0053B94AB9002908BF00281CBF4FF0FF3131
:10C29C004FF0FF3000F07EB9ADF1080C6DE904CE23
:10C2AC0000F006F8DDF804E0DDE9022304B0704785
:10C2BC002DE9F04F099D0C46002B4DD18A420F46BB
:10C2CC0084469646B2FA82F360D94BB102FA03FE69
:10C2DC00C3F120029F4000FA03FC20FA02F217433C
:10C2EC004FEA1E461FFA8EF44FEA1C42B7FBF6F1DA
:10C2FC0006FB117701FB04F042EA0742904208D991
:10C30C001EEB020201F1FF3702D2904200F22D81A6
:10C31C003946121A1FFA8CFCB2FBF6F006FB1022FF
:10C32C0000FB04F44CEA024C644508D91EEB0C0CDF
:10C33C0000F1FF3202D2644500F21A81104640EA45
:10C34C000140ACEB040C002125B12CFA03F30022C4
:10C35C00C5E90032BDE8F08F8B4205D90DB1C5E9B6
:10C36C00000100210846F5E7B3FA83F100294DD10D
:10C37C00A342C0F0F280904280F0EF800646234644
:10C38C000846002DE6D0C5E90063E3E7002B40F03A
:10C39C00A2808A1A4FEA1E471FFA8EF60121B2FBC1
:10C3AC00F7F407FB14204FEA1C4242EA004206FB5A
:10C3BC0004F090420FD91EEB020204F1FF382CBF9F
:10C3CC004FF001094FF00009904203D9B9F1000F69
:10C3DC0000F0C8804446121A1FFA8CFCB2FBF7F02E
:10C3EC0007FB102200FB06F64CEA024C664508D906
:10C3FC001EEB0C0C00F1FF3202D2664500F2BB8042
:10C40C001046ACEB060C40EA04409DE7C1F1200657
:10C41C008B4004FA01FE22FA06F720FA06FCF440DF
:10C42C008A401F434EEA0C0300FA01FE4FEA1748FC
:10C43C004FEA13491FFA87FCB4FBF8F008FB1044D1
:10C44C0049EA044400FB0CF9A1450ED93C1900F152
:10C45C00FF3A2CBF4FF0010B4FF0000BA14503D955
:10C46C00BBF1000F00F093805046A4EB09041FFAB7
:10C47C0083F9B4FBF8F308FB134403FB0CFC49EA07
:10C48C000444A44506D93C1903F1FF3801D2A44554
:10C49C007AD8434643EA0040A4EB0C04A0FB029874
:10C4AC004445CC46434602D306D1CE4504D201388E
:10C4BC00B9EB020C68EB07035DB1BEEB0C0264EB4D
:10C4CC00030404FA06F622FA01F3CC401E43C5E934
:10C4DC00006400213EE702FA03FEC3F1200104FAD6
:10C4EC0003F200FA03FCCC404FEA1E4720FA01F19C
:10C4FC001FFA8EF6B4FBF7F00A4307FB1044110C3D
:10C50C0041EA044100FB06F48C420ED91EEB0101FA
:10C51C0000F1FF382CBF4FF001094FF000098C429D
:10C52C0002D9B9F1000F2CD04046091B92B2B1FBD5
:10C53C00F7F407FB141142EA014204FB06F19142A5
:10C54C0007D91EEB020204F1FF3801D2914215D833
:10C55C004446521A44EA004121E7861A64EB03036D
:10C56C0001200EE7023C724435E702397244D0E6F2
:10C57C00F4440238E3E6F444023842E7023C7244E5
:10C58C00E7E702387144D0E7023B3C4482E70238CB
:10C59C003C446AE7704700BF80B582B000AF00F042
:10C5AC00E5FA00F017F800F0D1F800F083F8074B2B
:10C5BC007B604FF47A732D227968054806F074FF7E
:10C5CC00642000F091FB00BFF3E700BF5C4701085B
:10C5DC002800002080B59CB000AF07F1200350224A
:10C5EC000021184608F07CF807F1080300221A60B5
:10C5FC005A609A60DA601A615A612C4B1B692B4A9B
:10C60C0043F030031361294B1B6903F030037B604B
:10C61C007B6800BF254B5B6903F00803082BF9D13D
:10C62C0001233B624FF480337B620223BB64032300
:10C63C00FB6404233B6550237B650223BB6502230B
:10C64C00FB6502233B6608237B660023BB66002345
:10C65C00FB6607F12003184600F00AFF0346002B87
:10C66C0001D000F001F91F23BB600323FB60002302
:10C67C003B6100237B610023BB610023FB6107F15D
:10C68C0008030521184601F02BFB0346002B01D0B3
:10C69C0000F0EAF8064B1B6823F03003044A43F021
:10C6AC002003136000BF7037BD4680BD00080244F4
:10C6BC000020024080B500AF224B234A1A60214B68
:10C6CC004FF4E1325A601F4B00229A601D4B00223E
:10C6DC00DA601C4B00221A611A4B0C225A61194B5E
:10C6EC0000229A61174B0022DA61164B00221A6263
:10C6FC00144B00225A62134B00229A62114806F026
:10C70C0083FE0346002B01D000F0AEF800210D484B
:10C71C0007F01BFF0346002B01D000F0A5F8002109
:10C72C00084807F050FF0346002B01D000F09CF89E
:10C73C00044807F0D1FE0346002B01D000F094F81A
:10C74C0000BF80BD280000200050004080B58AB09A
:10C75C0000AF07F1140300221A605A609A60DA6085
:10C76C001A613E4BD3F88C303C4A43F01003C2F8AC
:10C77C008C303A4BD3F88C3003F010033B613B699F
:10C78C00364BD3F88C30354A43F00403C2F88C3066
:10C79C00324BD3F88C3003F00403FB60FB682F4B57
:10C7AC00D3F88C302D4A43F08003C2F88C302B4BDD
:10C7BC00D3F88C3003F08003BB60BB68274BD3F8F5
:10C7CC008C30264A43F00803C2F88C30234BD3F844
:10C7DC008C3003F008037B607B68204BD3F88C30E3
:10C7EC001E4A43F00203C2F88C301C4BD3F88C3039
:10C7FC0003F002033B603B6800224FF400611848D1
:10C80C0000F01EFE10237B610023BB610023FB6143
:10C81C0007F114031946124800F0C0FC4FF40063F2
:10C82C007B610123BB610023FB6100233B6207F1A9
:10C83C00140319460A4800F0B1FC08237B6100235D
:10C84C00BB610023FB6107F114031946054800F096
:10C85C00A5FC00BF2837BD4680BD00BF000C0244BC
:10C86C0000100242000C024280B400AF72B600BF4E
:10C87C0000BFFDE780B400AF00BFBD465DF8047B90
:10C88C007047000080B5CCB000AF07F59873A3F5E6
:10C89C009673186007F58E7300221A605A609A60BE
:10C8AC00DA601A6107F59873A3F5907318464FF484
:10C8BC0084731A46002107F013FF07F59873A3F54C
:10C8CC0096731B681B68364A934264D107F59873BC
:10C8DC00A3F590714FF010024FF00003C1E9002353
:10C8EC0007F59873A3F590730022DA6607F110032D
:10C8FC00184601F037FD0346002B01D0FFF7B4FFBB
:10C90C00284BD3F89C30274A43F48013C2F89C3050
:10C91C00244BD3F89C3003F4801207F59873A3F5DD
:10C92C0092731A6007F59873A3F592731B681D4BED
:10C93C00D3F88C301B4A43F00203C2F88C30194BED
:10C94C00D3F88C3003F0020207F59873A3F59473B7
:10C95C001A6007F59873A3F594731B686023C7F8E6
:10C96C001C310223C7F820310023C7F824310023DF
:10C97C00C7F828310E23C7F82C3107F58E731946EA
:10C98C00094800F00BFC002200213E2000F088FA40
:10C99C003E2000F09FFA00BF07F59877BD4680BD9A
:10C9AC0000500040000C02440004024280B400AF6E
:10C9BC0000BFFDE780B400AF00BFFDE780B400AF5F
:10C9CC0000BFFDE780B400AF00BFFDE780B400AF4F
:10C9DC0000BFFDE780B400AF00BFBD465DF8047B2F
:10C9EC00704780B400AF00BFBD465DF8047B704754
:10C9FC0080B400AF00BFBD465DF8047B704780B5C6
:10CA0C0000AF00F051F900BF80BD000080B500AF51
:10CA1C00024806F0E7FD00BF80BD00BF28000020E3
:10CA2C0080B483B000AF344BD3F88830324A43F42F
:10CA3C007003C2F88830314B01221A602F4B002250
:10CA4C00DA612E4B00221A622C4B1A682B492C4BA4
:10CA5C0013400B60294B00229A62284B0022DA62A9
:10CA6C00264B00221A63254B264A5A63234B00227D
:10CA7C009A63224B234ADA63204B00221A641F4B21
:10CA8C00204A5A641D4B00229A641C4B1B681B4A9B
:10CA9C0023F480231360194B00221A65164B1A4A93
:10CAAC009A601A4B9B6903F060437B607B68B3F11F
:10CABC00604F03D07B68B3F1404F17D1134BDB6948
:10CACC0003F00103002B05D0104B114ADA600F4B19
:10CADC00104ADA600D4BDB690C4A43F00203D36158
:10CAEC000A4BDB69094A43F00103D36100BF0C37E1
:10CAFC00BD465DF8047B704700ED00E0000C02447D
:10CB0C00E3EAE2EA8002010100C0000800200240D2
:10CB1C003B2A19087F6E5D4C0D488546FFF780FF58
:10CB2C000C480D490D4A002302E0D458C45004337C
:10CB3C00C4188C42F9D30A4A0A4C002301E0136052
:10CB4C000432A242FBD307F0D3FDFFF725FDFEE72D
:10CB5C0000000A20000000200C000020DC47010827
:10CB6C000C000020C0000020FEE7000080B500AFE4
:10CB7C00032000F08AF901F06BFA02460C4B1B6A99
:10CB8C0003F00F030B49CB5C22FA03F30A4A136040
:10CB9C00042000F0CFF90F2000F010F80346002B12
:10CBAC0001D0012302E0FFF765FE0023184680BD8B
:10CBBC00000C02448C4701080000002080B584B0B2
:10CBCC0000AF78600023FB60334B1B78002B01D146
:10CBDC0001235CE0314B1B6803F00403042B0CD1E4
:10CBEC002F4B1A682C4B1B7819464FF47A73B3FBF6
:10CBFC00F1F3B2FBF3F3FB6037E000F0F3F9B8604C
:10CC0C00BB68022B23D0BB68022B2DD8BB68002B32
:10CC1C0003D0BB68012B0DD026E0214B1A681E4BAC
:10CC2C001B7819464FF4FA53B3FBF1F3B2FBF3F351
:10CC3C00FB601AE0184B1B781A464FF47A73B3FB5F
:10CC4C00F2F34FF4FA42B2FBF3F3FB600DE0124B3C
:10CC5C001B781A464FF47A73B3FBF2F34FF400428D
:10CC6C00B2FBF3F3FB6000E000BFF86800F040F9A2
:10CC7C000346002B01D0012309E0002279684FF014
:10CC8C00FF3000F00DF9074A7B681360002318464B
:10CC9C001037BD4680BD00BF0800002010E000E04A
:10CCAC00000000200400002080B400AF064B1B786D
:10CCBC001A46064B1B681344044A136000BFBD465A
:10CCCC005DF8047B704700BF08000020BC0000200A
:10CCDC0080B400AF034B1B681846BD465DF8047B5F
:10CCEC00704700BFBC00002080B584B000AF7860F6
:10CCFC00FFF7EEFFB8607B68FB60FB68B3F1FF3FAA
:10CD0C0005D00A4B1B781A46FB681344FB6000BF26
:10CD1C00FFF7DEFF0246BB68D31AFA689A42F7D8CF
:10CD2C0000BF00BF1037BD4680BD00BF080000200B
:10CD3C0080B485B000AF78607B6803F00703FB60BC
:10CD4C000C4BDB68BB60BA684FF6FF031340BB604B
:10CD5C00FB681A02BB68134343F0BF6343F4003310
:10CD6C00BB60044ABB68D36000BF1437BD465DF896
:10CD7C00047B704700ED00E080B400AF044BDB682F
:10CD8C001B0A03F007031846BD465DF8047B704789
:10CD9C0000ED00E080B483B000AF0346FB80B7F930
:10CDAC000630002B0BDBFB8803F01F020749B7F999
:10CDBC0006305B09012000FA02F241F8232000BF83
:10CDCC000C37BD465DF8047B704700BF00E100E006
:10CDDC0080B483B000AF03463960FB80B7F90630EE
:10CDEC00002B0ADB3B68DAB20C49B7F906301201AA
:10CDFC00D2B20B4483F800230AE03B68DAB208494C
:10CE0C00FB8803F00F03043B1201D2B20B441A76D9
:10CE1C0000BF0C37BD465DF8047B704700E100E0B5
:10CE2C0000ED00E080B489B000AFF860B9607A60C2
:10CE3C00FB6803F00703FB61FB69C3F10703042BD9
:10CE4C0028BF0423BB61FB690433062B02D9FB69A1
:10CE5C00033B00E000237B614FF0FF32BB6902FA19
:10CE6C0003F3DA43BB681A407B699A404FF0FF31F9
:10CE7C007B6901FA03F3D9437B680B4013431846D3
:10CE8C002437BD465DF8047B704780B582B000AF97
:10CE9C0078607868FFF74CFF00BF0837BD4680BD4F
:10CEAC0080B586B000AF0346B9607A60FB81FFF7AE
:10CEBC0063FF78617A68B9687869FFF7B3FF024657
:10CECC00B7F90E3011461846FFF782FF00BF18372E
:10CEDC00BD4680BD80B582B000AF0346FB80B7F97C
:10CEEC0006301846FFF756FF00BF0837BD4680BD19
:10CEFC0080B483B000AF78607B68013BB3F1807F76
:10CF0C0001D301230DE00A4A7B68013B5360084BB7
:10CF1C0000229A60064B1B68054A43F0030313601A
:10CF2C00002318460C37BD465DF8047B704700BFE4
:10CF3C0010E000E080B483B000AF78607B68042B15
:10CF4C0044D801A252F823F077CF000895CF0008FF
:10CF5C00B7CF0008D9CF000869CF00081F4B1B685A
:10CF6C001E4A43F00403136031E01C4B1B681B4A40
:10CF7C0023F0040313601A4BD3F8E430184A23F05F
:10CF8C000C03C2F8E43022E0144B1B68134A23F064
:10CF9C0004031360124BD3F8E43023F00C03104A53
:10CFAC0043F00403C2F8E43011E00C4B1B680B4A4D
:10CFBC0023F0040313600A4BD3F8E43023F00C0382
:10CFCC00074A43F00803C2F8E43000E000BF00BF9A
:10CFDC000C37BD465DF8047B704700BF10E000E0E5
:10CFEC00000C024480B483B000AF174B1B6803F0F5
:10CFFC000403002B02D004237B601EE0134BD3F8F8
:10D00C00E43003F00C033B603B68082B0FD03B680B
:10D01C00082B0FD83B68002B03D03B68042B03D0A4
:10D02C0008E000237B6008E001237B6005E002231D
:10D03C007B6002E000237B6000BF7B6818460C37E6
:10D04C00BD465DF8047B704710E000E0000C024424
:10D05C0080B584B000AF7860FFF73AFEF8607B686B
:10D06C00002B01D101236BE07B6893F85430DBB2C9
:10D07C00022B08D07B6820229A657B68002283F8FB
:10D08C004C2001235CE07B681B685A697B681B6839
:10D09C0042F004025A617B68052283F8542020E098
:10D0AC00FFF716FE0246FB68D31A052B19D97B68CD
:10D0BC009B6D43F010027B689A657B68032283F8B2
:10D0CC0054207B681B6D03F08003002B03D07B681E
:10D0DC005B6F01221A737B68002283F84C200123BA
:10D0EC002EE07B681B681B6903F40053002BD7D020
:10D0FC007B681B685A697B681B6842F002025A61A4
:10D10C007B68042283F854207B681B684FF4FE4232
:10D11C00DA607B68012283F854207B681B6D03F076
:10D12C008003002B07D07B685B6F01221A737B682E
:10D13C001B6800229A647B68002283F84C20002331
:10D14C0018461037BD4680BD80B483B000AF786000
:10D15C007B68002B01D1012319E07B6893F85430D4
:10D16C00DBB2022B04D07B6820229A6501230EE0EF
:10D17C007B68042283F854207B681B685B697A689F
:10D18C00126843F4005343F0040353610023184620
:10D19C000C37BD465DF8047B7047000080B487B047
:10D1AC0000AF7860396000233B6136E13B681A6858
:10D1BC0001213B6901FA03F31340FB60FB68002B70
:10D1CC0000F028813B685B68022B03D03B685B68EE
:10D1DC00122B25D13B69DA087B68083253F82230D0
:10D1EC007B613B6903F007039B000F2202FA03F3F8
:10D1FC00DB437A6913407B613B681B6903F00F02C8
:10D20C003B6903F007039B0002FA03F37A691343AB
:10D21C007B613B69DA087B680832796943F8221034
:10D22C007B681B687B613B695B00032202FA03F39A
:10D23C00DB437A6913407B613B685B6803F0030254
:10D24C003B695B0002FA03F37A6913437B617B68E9
:10D25C007A691A603B685B68012B0BD03B685B6892
:10D26C00022B07D03B685B68112B03D03B685B68D3
:10D27C00122B30D17B689B687B613B695B0003227E
:10D28C0002FA03F3DB437A6913407B613B68DA688B
:10D29C003B695B0002FA03F37A6913437B617B6899
:10D2AC007A699A607B685B687B6101223B6902FA50
:10D2BC0003F3DB437A6913407B613B685B681B09B2
:10D2CC0003F001023B6902FA03F37A6913437B61B1
:10D2DC007B687A695A603B685B68032B17D07B6864
:10D2EC00DB687B613B695B00032202FA03F3DB43DF
:10D2FC007A6913407B613B689A683B695B0002FA70
:10D30C0003F37A6913437B617B687A69DA603B6863
:10D31C005B6803F08053002B7CD0474A3B699B0829
:10D32C00183352F823307B613B6903F00303DB00B5
:10D33C000F2202FA03F3DB437A6913407B617B68AB
:10D34C009A0A3E4B13403A6902F00302D200934012
:10D35C007A6913437B6138493B699B0818337A69B6
:10D36C0041F82320344B1B687B61FB68DB437A69F3
:10D37C0013407B613B685B6803F48013002B03D084
:10D38C007A69FB6813437B612B4A7B6913602A4BD8
:10D39C005B687B61FB68DB437A6913407B613B68AC
:10D3AC005B6803F40013002B03D07A69FB6813430A
:10D3BC007B61214A7B6953601F4BD3F884307B61BE
:10D3CC00FB68DB437A6913407B613B685B6803F461
:10D3DC000033002B03D07A69FB6813437B61164A38
:10D3EC007B69C2F88430144BD3F880307B61FB68C6
:10D3FC00DB437A6913407B613B685B6803F48033E1
:10D40C00002B03D07A69FB6813437B610A4A7B6962
:10D41C00C2F880303B6901333B613B681A683B6959
:10D42C0022FA03F3002B7FF4C1AE00BF00BF1C3700
:10D43C00BD465DF8047B7047002002447F7F2F00BF
:10D44C0080B483B000AF78600B467B8013467B7052
:10D45C007B78002B03D07A887B689A6102E07A880B
:10D46C007B689A6200BF0C37BD465DF8047B704741
:10D47C0080B588B000AF78607B68002B02D10123A7
:10D48C0000F028BC944BDB6903F01803FB61924B52
:10D49C009B6A03F00303BB617B681B6803F01003FA
:10D4AC00002B5BD0FB69082B05D0FB69182B14D122
:10D4BC00BB69022B11D17B68DB69002B02D10123E4
:10D4CC0000F008BC844B9B6923F47C127B681B6ABC
:10D4DC001B04814913438B6140E07B68DB69002BA3
:10D4EC0023D07D4B1B687C4A43F480731360FFF799
:10D4FC00EFFB786108E0FFF7EBFB02467B69D31A80
:10D50C00022B01D90323E5E3734B1B6803F400736F
:10D51C00002BF0D0704B9B6923F47C127B681B6A48
:10D52C001B046D4913438B6118E06B4B1B686A4AF3
:10D53C0023F480731360FFF7CBFB786108E0FFF7EF
:10D54C00C7FB02467B69D31A022B01D90323C1E323
:10D55C00614B1B6803F40073002BF0D17B681B68D4
:10D56C0003F00103002B00F0A080FB69102B05D009
:10D57C00FB69182B09D1BB69032B06D17B685B684F
:10D58C00002B40F092800123A4E37B685B68B3F529
:10D59C00803F06D1504B1B684F4A43F480331360D5
:10D5AC0058E07B685B68002B12D14B4B1B684A4AD6
:10D5BC0023F480331360484B1B68474A23F48013D1
:10D5CC001360454B1B68444A23F48023136041E0ED
:10D5DC007B685B68B3F5A02F12D13F4B1B683E4AAA
:10D5EC0043F4802313603C4B1B683B4A23F48013A9
:10D5FC001360394B1B68384A43F48033136029E0BD
:10D60C007B685B68B3F5A81F12D1334B1B68324A99
:10D61C0043F480231360304B1B682F4A43F4801370
:10D62C0013602D4B1B682C4A43F48033136011E0BC
:10D63C00294B1B68284A23F480331360264B1B6844
:10D64C00254A23F480231360234B1B68224A23F4BE
:10D65C00801313607B685B68002B13D0FFF738FBDB
:10D66C00786108E0FFF734FB02467B69D31A642B20
:10D67C0001D903232EE3184B1B6803F40033002B52
:10D68C00F0D012E0FFF724FB786108E0FFF720FBF5
:10D69C0002467B69D31A642B01D903231AE30E4B80
:10D6AC001B6803F40033002BF0D17B681B6803F07C
:10D6BC000203002B00F09A80FB69002B05D0FB695C
:10D6CC00182B49D1BB69012B46D17B68DB68002B39
:10D6DC0004D10123FEE200BF000C0244FB69002BC5
:10D6EC001CD19A4B1B6803F018027B681B699A4289
:10D6FC0014D0964B1B6823F018027B681B69934966
:10D70C0013430B6000F0D0FD914B1B681846FFF7DC
:10D71C0055FA0346002B01D00123DBE2FFF7D8FAC0
:10D72C00786108E0FFF7D4FA02467B69D31A022B22
:10D73C0001D90323CEE2854B1B6803F00203002BB7
:10D74C00F0D0824B1B6923F4FE027B685B691B04DF
:10D75C007E4913430B6149E07B68DB68002B2CD0BE
:10D76C007A4B1B6823F018027B681B6977491343BB
:10D77C000B60764B1B68754A43F001031360FFF78F
:10D78C00A7FA786108E0FFF7A3FA02467B69D31A7F
:10D79C00022B01D903239DE26C4B1B6803F002039F
:10D7AC00002BF0D0694B1B6923F4FE027B685B698C
:10D7BC001B04664913430B6118E0644B1B68634AF6
:10D7CC0023F001031360FFF783FA786108E0FFF799
:10D7DC007FFA02467B69D31A022B01D9032379E223
:10D7EC005A4B1B6803F00203002BF0D17B681B68BB
:10D7FC0003F00803002B3CD07B689B69002B1CD0EA
:10D80C00524BD3F8F030514A43F08063C2F8F030F9
:10D81C00FFF75EFA786108E0FFF75AFA02467B6977
:10D82C00D31A022B01D9032354E2484BD3F8F0301E
:10D83C0003F00063002BEFD01BE0444BD3F8F03027
:10D84C00424A23F08063C2F8F030FFF741FA786166
:10D85C0008E0FFF73DFA02467B69D31A022B01D987
:10D86C00032337E2394BD3F8F03003F00063002B7D
:10D87C00EFD17B681B6803F00403002B00F0D2800F
:10D88C00344B5B6A03F00103002B18D1314B5B6AFC
:10D89C00304A43F001035362FFF71AFA786108E04B
:10D8AC00FFF716FA02467B69D31A022B01D9032320
:10D8BC0010E2284B5B6A03F00103002BF0D07B686D
:10D8CC009B68012B08D1214BD3F8F0301F4A43F051
:10D8DC000103C2F8F03074E07B689B68002B18D110
:10D8EC001A4BD3F8F030194A23F00103C2F8F03088
:10D8FC00164BD3F8F030154A23F08003C2F8F03001
:10D90C00124BD3F8F030114A23F00403C2F8F03074
:10D91C0057E07B689B68052B1ED10C4BD3F8F0307D
:10D92C000A4A43F00403C2F8F030084BD3F8F03045
:10D93C00064A23F08003C2F8F030044BD3F8F030E1
:10D94C00024A43F00103C2F8F0303AE0000C024402
:10D95C0004000020000802447B689B68852B18D1CA
:10D96C00A24BD3F8F030A14A43F00403C2F8F030D4
:10D97C009E4BD3F8F0309D4A43F08003C2F8F03050
:10D98C009A4BD3F8F030994A43F00103C2F8F030C7
:10D99C0017E0964BD3F8F030944A23F00103C2F809
:10D9AC00F030924BD3F8F030904A23F00403C2F8D5
:10D9BC00F0308E4BD3F8F0308C4A23F08003C2F851
:10D9CC00F0307B689B68002B16D0FFF781F97861EB
:10D9DC000AE0FFF77DF902467B69D31A41F28832DF
:10D9EC00934201D9032375E1804BD3F8F03003F057
:10D9FC000203002BEDD015E0FFF76AF978610AE01D
:10DA0C00FFF766F902467B69D31A41F288329342DA
:10DA1C0001D903235EE1754BD3F8F03003F0020318
:10DA2C00002BEDD17B681B6803F02003002B36D054
:10DA3C007B685B6A002B19D06C4B1B686B4A43F4F8
:10DA4C0080531360FFF744F9786108E0FFF740F961
:10DA5C0002467B69D31A022B01D903233AE1634BAB
:10DA6C001B6803F40053002BF0D018E05F4B1B68CD
:10DA7C005E4A23F480531360FFF72AF9786108E0BB
:10DA8C00FFF726F902467B69D31A022B01D903232F
:10DA9C0020E1564B1B6803F40053002BF0D17B683C
:10DAAC009B6A002B00F01581FB69182B00F0AF80EE
:10DABC007B689B6A022B40F086804C4B1B684B4A60
:10DACC0023F080731360FFF703F9786108E0FFF728
:10DADC00FFF802467B69D31A022B01D90323F9E024
:10DAEC00424B1B6803F00073002BF0D13F4B9B6A39
:10DAFC0023F47C5323F003037A68D16A7A68126B9F
:10DB0C0012020A43394913438B627B685B6B013BFE
:10DB1C00C3F308027B689B6B013B5B029BB21A430D
:10DB2C007B68DB6B013B1B0403F4FE031A437B682D
:10DB3C001B6C013B1B0603F0FE432C4913434B6348
:10DB4C002A4B9B6A294A23F0100393627B68DB6C97
:10DB5C00264ADB009363254B9B6A244A43F010034F
:10DB6C009362224B9B6A23F00C027B685B6C1F490F
:10DB7C0013438B621D4B9B6A23F020027B689B6CCA
:10DB8C001A4913438B62194B9B6A184A43F480332E
:10DB9C009362164B1B68154A43F080731360FFF7B2
:10DBAC0097F8786108E0FFF793F802467B69D31A7F
:10DBBC00022B01D903238DE00C4B1B6803F000737F
:10DBCC00002BF0D085E0094B1B68084A23F08073CA
:10DBDC001360FFF77DF878610AE0FFF779F80246E9
:10DBEC007B69D31A022B03D9032373E0000C024484
:10DBFC003A4B1B6803F00073002BEED1374B9B6A3A
:10DC0C00364A23F4E02323F00303936261E0334BA1
:10DC1C009B6A3B61314B5B6BFB607B689B6A012BA6
:10DC2C0031D03B6903F003027B68DB6A9A422AD14C
:10DC3C003B691B0A03F03F027B681B6B9A4222D1A3
:10DC4C00FB68C3F308027B685B6B013B9A421AD1F9
:10DC5C00FB685B0A03F07F027B689B6B013B9A427B
:10DC6C0011D1FB681B0C03F07F027B68DB6B013B63
:10DC7C009A4208D1FB681B0E03F07F027B681B6C79
:10DC8C00013B9A4201D0012324E0144B9B6BDB082F
:10DC9C00C3F30C027B68DB6C9A421AD00F4B9B6A65
:10DCAC000E4A23F010039362FFF712F8786100BF5D
:10DCBC00FFF70EF802467B699342F9D07B68DB6C68
:10DCCC00064ADB009363054B9B6A044A43F010033E
:10DCDC009362002318462037BD4680BD000C0244D9
:10DCEC0080B584B000AF786039607B68002B01D1BF
:10DCFC0001239EE1834B1B6803F00F033A689A42A1
:10DD0C0010D9804B1B6823F00F027E493B681343EC
:10DD1C000B607C4B1B6803F00F033A689A4201D0EE
:10DD2C00012386E17B681B6803F01003002B12D0E3
:10DD3C007B685A69744B1B6A1B0A03F070039A4286
:10DD4C0009D9714B1B6A23F4E0427B685B691B02A7
:10DD5C006D4913430B627B681B6803F00803002BAF
:10DD6C0012D07B681A69684B1B6A1B0903F070039D
:10DD7C009A4209D9644B1B6A23F4E0627B681B69E5
:10DD8C001B01614913430B627B681B6803F004039E
:10DD9C00002B10D07B68DA685B4B1B6A03F07003B6
:10DDAC009A4208D9584B1B6A23F070027B68DB68D7
:10DDBC00554913430B627B681B6803F00203002B6D
:10DDCC0010D07B689A68504B1B6A03F00F039A4281
:10DDDC0008D94D4B1B6A23F00F027B689B684A499C
:10DDEC0013430B627B681B6803F00103002B00F0EC
:10DDFC0093807B685B68032B07D1434B1B6803F054
:10DE0C000073002B21D1012313E17B685B68022B8B
:10DE1C0007D13D4B1B6803F40033002B15D10123B4
:10DE2C0007E17B685B68012B07D1374B1B6803F458
:10DE3C000073002B09D10123FBE0334B1B6803F06B
:10DE4C000203002B01D10123F3E02F4BDB6923F0FC
:10DE5C0003027B685B682C491343CB61FEF738FFE8
:10DE6C00F8607B685B68032B12D10AE0FEF730FF89
:10DE7C000246FB68D31A41F28832934201D903233C
:10DE8C00D7E0214BDB6903F01803182BEED143E0EC
:10DE9C007B685B68022B12D10AE0FEF719FF024681
:10DEAC00FB68D31A41F28832934201D90323C0E0B4
:10DEBC00154BDB6903F01803102BEED12CE07B68BB
:10DECC005B68012B22D10AE0FEF702FF0246FB68D9
:10DEDC00D31A41F28832934201D90323A9E00A4BA9
:10DEEC00DB6903F01803082BEED115E0FEF7F0FE0A
:10DEFC000246FB68D31A41F28832934206D90323B7
:10DF0C0097E000BF00200240000C02444B4BDB6941
:10DF1C0003F01803002BE9D17B681B6803F00203A4
:10DF2C00002B10D07B689A68444B1B6A03F00F03DC
:10DF3C009A4208D2414B1B6A23F00F027B689B6804
:10DF4C003E4913430B623E4B1B6803F00F033A68C8
:10DF5C009A4210D23A4B1B6823F00F0238493B68A7
:10DF6C0013430B60364B1B6803F00F033A689A425D
:10DF7C0001D001235DE07B681B6803F00403002BD8
:10DF8C0010D07B68DA682D4B1B6A03F070039A4241
:10DF9C0008D22A4B1B6A23F070027B68DB68274986
:10DFAC0013430B627B681B6803F00803002B12D031
:10DFBC007B681A69214B1B6A1B0903F070039A4298
:10DFCC0009D21E4B1B6A23F4E0627B681B691B01A0
:10DFDC001A4913430B627B681B6803F01003002B78
:10DFEC0012D07B685A69154B1B6A1B0A03F070032D
:10DFFC009A4209D2114B1B6A23F4E0427B685B699D
:10E00C001B020E4913430B6200F022F802460B4B25
:10E01C001B6A03F00F030B49CB5C22FA03F30A4A89
:10E02C0013600A4B1B681846FEF7C8FD0346FB72CB
:10E03C00FB7A18461037BD4680BD00BF000C024469
:10E04C00002002408C470108000000200400002042
:10E05C0080B489B000AF8C4BDB6903F01803082B3C
:10E06C0002D18A4BFB6107E1874BDB6903F0180394
:10E07C00002B12D1844B1B6803F02003002B09D01A
:10E08C00814B1B68DB0803F00303814A22FA03F37C
:10E09C00FB61F1E07E4BFB61EEE07B4BDB6903F057
:10E0AC001803102B02D17B4BFB61E5E0764BDB694F
:10E0BC0003F01803182B40F0DD80734B9B6A03F0C0
:10E0CC0003037B61704B9B6A1B0A03F03F033B61AC
:10E0DC006D4B9B6A1B0903F00103FB606A4B9B6B46
:10E0EC00DB08C3F30C03FA6802FB03F307EE903A68
:10E0FC00F8EE677AC7ED027A3B69002B00F0B78027
:10E10C007B69012B03D07B69032B56D077E05E4BE8
:10E11C001B6803F02003002B2DD05B4B1B68DB0826
:10E12C0003F003035A4A22FA03F37B607B6807EE81
:10E13C00903AF8EE676A3B6907EE903AF8EE677A28
:10E14C0086EEA77A504B5B6BC3F3080307EE903A4D
:10E15C00F8EE676A97ED026ADFED4F5AC6EE257A44
:10E16C0076EEA77AF7EE006A77EEA67A67EE277A54
:10E17C00C7ED067A65E03B6907EE903AF8EE677AF0
:10E18C00DFED466A86EEA77A3F4B5B6BC3F3080361
:10E19C0007EE903AF8EE676A97ED026ADFED3E5AA9
:10E1AC00C6EE257A76EEA77AF7EE006A77EEA67AB7
:10E1BC0067EE277AC7ED067A43E03B6907EE903AA3
:10E1CC00F8EE677ADFED366A86EEA77A2E4B5B6B3C
:10E1DC00C3F3080307EE903AF8EE676A97ED026A0C
:10E1EC00DFED2D5AC6EE257A76EEA77AF7EE006AA9
:10E1FC0077EEA67A67EE277AC7ED067A21E03B69BF
:10E20C0007EE903AF8EE677ADFED266A86EEA77A8B
:10E21C001D4B5B6BC3F3080307EE903AF8EE676A8D
:10E22C0097ED026ADFED1C5AC6EE257A76EEA77AD8
:10E23C00F7EE006A77EEA67A67EE277AC7ED067AD4
:10E24C0000BF114B5B6B5B0A03F07F0301333B6038
:10E25C003B6807EE903AB8EE677AD7ED066AC6EEE1
:10E26C00877AFCEEE77A17EE903AFB6104E0002324
:10E27C00FB6101E0064BFB61FB6918462437BD4688
:10E28C005DF8047B704700BF000C024400093D00A0
:10E29C000090D00340787D01000000460024744CAF
:10E2AC0020BCBE4B0024744A80B500AFFFF7D0FEF3
:10E2BC000246084B1B6A03F00F030749CB5C03F0C3
:10E2CC001F0322FA03F3054A1360044B1B6818461C
:10E2DC0080BD00BF000C02448C47010800000020E8
:10E2EC0080B500AFFFF7E0FF0246064B1B6A1B0927
:10E2FC0003F007030449CB5C03F01F0322FA03F37A
:10E30C00184680BD000C02449C47010880B500AF44
:10E31C00FFF7CAFF0246064B1B6A1B0A03F00703F2
:10E32C000449CB5C03F01F0322FA03F3184680BDAB
:10E33C00000C02449C47010880B500AFFFF7B4FF06
:10E34C000246064B1B6A1B0B03F007030449CB5C0C
:10E35C0003F01F0322FA03F3184680BD000C02449D
:10E36C009C4701082DE9B04FD8B000AFC7F84C015D
:10E37C00002387F85B31002387F85A31D7F84C31EA
:10E38C00D3E9002302F08074002554EA05030BD076
:10E39C00CD4BD3F8E83023F04041D7F84C319B6D8E
:10E3AC00C94A0B43C2F8E830D7F84C31D3E9002303
:10E3BC0002F001084FF0000958EA090342D0D7F8DF
:10E3CC004C31DB6D052B23D801A252F823F000BF92
:10E3DC0025E40008F5E3000809E4000825E400083A
:10E3EC0025E4000825E40008D7F84C31083318461A
:10E3FC0004F0DAFE034687F85B310EE0D7F84C31B7
:10E40C003033184604F068FF034687F85B3104E0AC
:10E41C00012387F85B3100E000BF97F85B31002BDC
:10E42C000CD1A94BD3F8D83023F00701D7F84C31D5
:10E43C00DB6DA54A0B43C2F8D83003E097F85B318B
:10E44C0087F85A31D7F84C31D3E9002302F0020A8D
:10E45C004FF0000B5AEA0B0300F08880D7F84C31D0
:10E46C001B6E282B68D801A252F823F04DE500084A
:10E47C0045E5000845E5000845E5000845E50008C8
:10E48C0045E5000845E5000845E500081DE50008E0
:10E49C0045E5000845E5000845E5000845E50008A8
:10E4AC0045E5000845E5000845E5000831E50008AC
:10E4BC0045E5000845E5000845E5000845E5000888
:10E4CC0045E5000845E5000845E500084DE5000870
:10E4DC0045E5000845E5000845E5000845E5000868
:10E4EC0045E5000845E5000845E500084DE5000850
:10E4FC0045E5000845E5000845E5000845E5000848
:10E50C0045E5000845E5000845E500084DE500082F
:10E51C00D7F84C310833184604F046FE034687F80A
:10E52C005B310EE0D7F84C313033184604F0D4FE92
:10E53C00034687F85B3104E0012387F85B3100E088
:10E54C0000BF97F85B31002B0CD15F4BD3F8D83060
:10E55C0023F03801D7F84C311B6E5B4A0B43C2F8E1
:10E56C00D83003E097F85B3187F85A31D7F84C3143
:10E57C00D3E9002302F00403C7F840310023C7F8A5
:10E58C004431D7E950120B4613434ED0D7F84C31D7
:10E59C005B6EB3F5A07F2CD0B3F5A07F25D8B3F577
:10E5AC00807F28D0B3F5807F1FD8C02B25D0C02BFF
:10E5BC001BD8802B0FD0802B17D8002B1FD0402BB3
:10E5CC0013D1D7F84C310833184604F0EDFD03464F
:10E5DC0087F85B3114E0D7F84C313033184604F02F
:10E5EC007BFE034687F85B310AE0012387F85B3139
:10E5FC0006E000BF04E000BF02E000BF00E000BF87
:10E60C0097F85B31002B0CD12F4BD3F8D83023F477
:10E61C00E071D7F84C315B6E2B4A0B43C2F8D83003
:10E62C0003E097F85B3187F85A31D7F84C31D3E9CE
:10E63C00002302F00803C7F838310023C7F83C3137
:10E64C00D7E94E120B46134356D0D7F84C319B6E7C
:10E65C00B3F5206F31D0B3F5206F2AD8B3F5006F26
:10E66C002DD0B3F5006F24D8B3F5C06F29D0B3F516
:10E67C00C06F1ED8B3F5806F11D0B3F5806F18D86A
:10E68C00002B23D0B3F5007F13D1D7F84C310833CE
:10E69C00184604F089FD034687F85B3117E0D7F87C
:10E6AC004C313033184604F017FE034687F85B31C3
:10E6BC000DE0012387F85B3109E000BF07E000BFE4
:10E6CC0005E000BF03E000BF000C024400BF97F858
:10E6DC005B31002B0CD1BB4BD3F8D83023F46061E9
:10E6EC00D7F84C319B6EB74A0B43C2F8D83003E0D5
:10E6FC0097F85B3187F85A31D7F84C31D3E90023BE
:10E70C0002F01003C7F830310023C7F83431D7E9D1
:10E71C004C120B46134353D0D7F84C31DB6EB3F588
:10E72C00A04F31D0B3F5A04F2AD8B3F5804F2DD0E0
:10E73C00B3F5804F24D8B3F5405F29D0B3F5405FD3
:10E74C001ED8B3F5005F11D0B3F5005F18D8002BBD
:10E75C0020D0B3F5805F13D1D7F84C31083318466D
:10E76C0004F022FD034687F85B3114E0D7F84C31F6
:10E77C003033184604F0B0FD034687F85B310AE0ED
:10E78C00012387F85B3106E000BF04E000BF02E024
:10E79C0000BF00E000BF97F85B31002B0CD1894B18
:10E7AC00D3F8D83023F4E041D7F84C31DB6E854AEE
:10E7BC000B43C2F8D83003E097F85B3187F85A3135
:10E7CC00D7F84C31D3E9002302F02003C7F82831E5
:10E7DC000023C7F82C31D7E94A120B46134353D008
:10E7EC00D7F84C311B6FB3F5203F31D0B3F5203F38
:10E7FC002AD8B3F5003F2DD0B3F5003F24D8B3F59C
:10E80C00C03F29D0B3F5C03F1ED8B3F5803F11D01F
:10E81C00B3F5803F18D8002B20D0B3F5004F13D19F
:10E82C00D7F84C310833184604F0BEFC034687F881
:10E83C005B3114E0D7F84C313033184604F04CFD02
:10E84C00034687F85B310AE0012387F85B3106E069
:10E85C0000BF04E000BF02E000BF00E000BF97F87B
:10E86C005B31002B0CD1574BD3F8D83023F46031EB
:10E87C00D7F84C311B6F534A0B43C2F8D83003E026
:10E88C0097F85B3187F85A31D7F84C31D3E900232C
:10E89C0002F04003C7F820310023C7F82431D7E930
:10E8AC0048120B46134353D0D7F84C315B6FB3F57A
:10E8BC00A01F31D0B3F5A01F2AD8B3F5801F2DD0DF
:10E8CC00B3F5801F24D8B3F5402F29D0B3F5402FD2
:10E8DC001ED8B3F5002F11D0B3F5002F18D8002B8C
:10E8EC0020D0B3F5802F13D1D7F84C31083318460C
:10E8FC0004F05AFC034687F85B3114E0D7F84C312E
:10E90C003033184604F0E8FC034687F85B310AE024
:10E91C00012387F85B3106E000BF04E000BF02E092
:10E92C0000BF00E000BF97F85B31002B0CD1254BEA
:10E93C00D3F8D83023F4E011D7F84C315B6F214A6F
:10E94C000B43C2F8D83003E097F85B3187F85A31A3
:10E95C00D7F84C31D3E9002302F08003C7F8183103
:10E96C000023C7F81C31D7E946120B46134355D088
:10E97C00D7F84C319B6FB3F5200F33D0B3F5200F84
:10E98C002CD8B3F5000F2FD0B3F5000F26D8B3F564
:10E99C00C00F2BD0B3F5C00F20D8B3F5800F13D018
:10E9AC00B3F5800F1AD8002B22D0B3F5001F15D168
:10E9BC00D7F84C310833184604F0F6FB034687F8B9
:10E9CC005B3116E0000C0244D7F84C31303318465A
:10E9DC0004F082FC034687F85B310AE0012387F8D8
:10E9EC005B3106E000BF04E000BF02E000BF00E0C6
:10E9FC0000BF97F85B31002B0CD1BB4BD3F8D83050
:10EA0C0023F46001D7F84C319B6FB74A0B43C2F823
:10EA1C00D83003E097F85B3187F85A31D7F84C318E
:10EA2C00D3E9002302F48073C7F810310023C7F830
:10EA3C001431D7E944120B46134353D0D7F84C3159
:10EA4C00DB6FB3F1A06F31D0B3F1A06F2AD8B3F163
:10EA5C00806F2DD0B3F1806F24D8B3F1407F29D0D3
:10EA6C00B3F1407F1ED8B3F1007F11D0B3F1007F1A
:10EA7C0018D8002B20D0B3F1807F13D1D7F84C31AC
:10EA8C000833184604F090FB034687F85B3114E01A
:10EA9C00D7F84C313033184604F01EFC034687F887
:10EAAC005B310AE0012387F85B3106E000BF04E02C
:10EABC0000BF02E000BF00E000BF97F85B31002B05
:10EACC000CD1894BD3F8D83023F0E061D7F84C3116
:10EADC00DB6F854A0B43C2F8D83003E097F85B3103
:10EAEC0087F85A31D7F84C31D3E9002302F400737C
:10EAFC00C7F808310023C7F80C31D7E942120B468E
:10EB0C00134355D0D7F84C31D3F88030B3F1205F94
:10EB1C0031D0B3F1205F2AD8B3F1005F2DD0B3F11F
:10EB2C00005F24D8B3F1C05F29D0B3F1C05F1ED809
:10EB3C00B3F1805F11D0B3F1805F18D8002B20D0D7
:10EB4C00B3F1006F13D1D7F84C310833184604F0E9
:10EB5C002BFB034687F85B3114E0D7F84C3130338C
:10EB6C00184604F0B9FB034687F85B310AE0012331
:10EB7C0087F85B3106E000BF04E000BF02E000BF95
:10EB8C0000E000BF97F85B31002B0DD1564BD3F84A
:10EB9C00D83023F06051D7F84C31D3F88030524A3A
:10EBAC000B43C2F8D83003E097F85B3187F85A3141
:10EBBC00D7F84C31D3E9002302F48063C7F8003155
:10EBCC000023C7F80431D7E940120B46134344D055
:10EBDC00D7F84C31D3F88430052B23D801A252F846
:10EBEC0023F000BF39EC000809EC00081DEC00080C
:10EBFC0039EC000839EC000839EC0008D7F84C3136
:10EC0C000833184604F0D0FA034687F85B310EE05F
:10EC1C00D7F84C313033184604F05EFB034687F8C6
:10EC2C005B3104E0012387F85B3100E000BF97F80B
:10EC3C005B31002B0DD12C4BD3F8DC3023F00701CA
:10EC4C00D7F84C31D3F88430274A0B43C2F8DC3068
:10EC5C0003E097F85B3187F85A31D7F84C31D3E998
:10EC6C00002302F40063C7F8F8300023C7F8FC3027
:10EC7C00D7E93E120B4613434FD0D7F84C31D3F89B
:10EC8C008830502B29D0502B23D8402B27D0402B09
:10EC9C001FD8302B25D0302B1BD8202B0FD0202B5E
:10ECAC0017D8002B22D0102B13D1D7F84C310833A6
:10ECBC00184604F079FA034687F85B3117E0D7F869
:10ECCC004C313033184604F007FB034687F85B31B0
:10ECDC000DE0012387F85B3109E000BF07E000BFBE
:10ECEC0005E000BF03E000BF000C024400BF97F832
:10ECFC005B31002B0DD1AF4BD3F8DC3023F070011E
:10ED0C00D7F84C31D3F88830AA4A0B43C2F8DC3020
:10ED1C0003E097F85B3187F85A31D7F84C31D3E9D7
:10ED2C00002302F48053C7F8F0300023C7F8F43006
:10ED3C00D7E93C120B46134355D0D7F84C31D3F8D6
:10ED4C008C30B3F1A06F31D0B3F1A06F2AD8B3F1EE
:10ED5C00806F2DD0B3F1806F24D8B3F1407F29D0D0
:10ED6C00B3F1407F1ED8B3F1007F11D0B3F1007F17
:10ED7C0018D8002B20D0B3F1807F13D1D7F84C31A9
:10ED8C000833184604F010FA034687F85B3114E098
:10ED9C00D7F84C313033184604F09EFA034687F806
:10EDAC005B310AE0012387F85B3106E000BF04E029
:10EDBC0000BF02E000BF00E000BF97F85B31002B02
:10EDCC000DD17C4BD3F8E03023F0E061D7F84C3117
:10EDDC00D3F88C30774A0B43C2F8E03003E097F855
:10EDEC005B3187F85A31D7F84C31D3E9002302F460
:10EDFC000053C7F8E8300023C7F8EC30D7E93A12D3
:10EE0C000B4613433DD0D7F84C31D3F89030B3F5C3
:10EE1C00403F1BD0B3F5403F14D8B3F5003F17D09B
:10EE2C00B3F5003F0ED8002B14D0B3F5803F09D1B9
:10EE3C00D7F84C313033184604F04EFA034687F8B5
:10EE4C005B3108E0012387F85B3104E000BF02E08E
:10EE5C0000BF00E000BF97F85B31002B0DD1554B84
:10EE6C00D3F8E43023F44031D7F84C31D3F8903058
:10EE7C00504A0B43C2F8E43003E097F85B3187F853
:10EE8C005A31D7F84C31D3E9002302F48043C7F848
:10EE9C00E0300023C7F8E430D7E938120B461343AF
:10EEAC003DD0D7F84C31D3F89430B3F5402F1BD06C
:10EEBC00B3F5402F14D8B3F5002F17D0B3F5002FAE
:10EECC000ED8002B14D0B3F5802F09D1D7F84C31C4
:10EEDC003033184604F000FA034687F85B3108E03B
:10EEEC00012387F85B3104E000BF02E000BF00E0C3
:10EEFC0000BF97F85B31002B0DD12E4BD3F8E430CB
:10EF0C0023F44021D7F84C31D3F89430294A0B43E1
:10EF1C00C2F8E43003E097F85B3187F85A31D7F840
:10EF2C004C31D3E9002302F40043C7F8D830002356
:10EF3C00C7F8DC30D7E936120B46134340D0D7F86C
:10EF4C004C31D3F89830B3F5401F1BD0B3F5401FAC
:10EF5C0014D8B3F5001F17D0B3F5001F0ED8002B33
:10EF6C0014D0B3F5801F09D1D7F84C313033184683
:10EF7C0004F0B2F9034687F85B3108E0012387F807
:10EF8C005B3104E000BF02E000BF00E000BF97F877
:10EF9C005B31002B10D1074BD3F8E43023F4401134
:10EFAC00D7F84C31D3F89830024A0B43C2F8E4300E
:10EFBC0006E000BF000C024497F85B3187F85A3129
:10EFCC00D7F84C31D3E900230021C7F8D01003F453
:10EFDC008063C7F8D430D7E934120B4613433DD0C5
:10EFEC00D7F84C31D3F89C30B3F5400F1BD0B3F5A8
:10EFFC00400F14D8B3F5000F17D0B3F5000F0ED88F
:10F00C00002B14D0B3F5800F09D1D7F84C31303325
:10F01C00184604F061F9034687F85B3108E00123D8
:10F02C0087F85B3104E000BF02E000BF00E000BFE6
:10F03C0097F85B31002B0DD1BE4BD3F8E43023F4A1
:10F04C004001D7F84C31D3F89C30BA4A0B43C2F884
:10F05C00E43003E097F85B3187F85A31D7F84C313C
:10F06C00D3E9002302F48033C7F8C8300023C7F873
:10F07C00CC30D7E932120B46134335D0D7F84C318C
:10F08C00D3F8A030B3F1007F15D0B3F1007F0ED8C8
:10F09C00002B12D0B3F1807F09D1D7F84C3130332B
:10F0AC00184604F019F9034687F85B3106E0012392
:10F0BC0087F85B3102E000BF00E000BF97F85B31DE
:10F0CC00002B0DD19B4BD3F8E43023F04071D7F8D3
:10F0DC004C31D3F8A030974A0B43C2F8E43003E02C
:10F0EC0097F85B3187F85A31D7F84C31D3E90023C4
:10F0FC000021C7F8C01003F40063C7F8C430D7E987
:10F10C0030120B4613430ED08A4BDB69894A23F429
:10F11C000043D361874BD969D7F84C31D3F804310C
:10F12C00844A0B43D361D7F84C31D3E9002302F462
:10F13C000033C7F8B8300023C7F8BC30D7E92E121B
:10F14C000B46134355D0D7F84C31D3F8A430B3F554
:10F15C00A06F31D0B3F5A06F2AD8B3F5806F2DD046
:10F16C00B3F5806F24D8B3F5407F29D0B3F5407F39
:10F17C001ED8B3F5007F11D0B3F5007F18D8002B43
:10F18C0020D0B3F5807F13D1D7F84C310833184613
:10F19C0004F00AF8034687F85B3114E0D7F84C31D9
:10F1AC003033184604F098F8034687F85B310AE0D0
:10F1BC00012387F85B3106E000BF04E000BF02E0EA
:10F1CC0000BF00E000BF97F85B31002B0DD1594B0D
:10F1DC00D3F8DC3023F4E061D7F84C31D3F8A43009
:10F1EC00544A0B43C2F8DC3003E097F85B3187F8E4
:10F1FC005A31D7F84C31D3E9002302F48023C7F8F5
:10F20C00B0300023C7F8B430D7E92C120B461343A7
:10F21C0055D0D7F84C31D3F8A830B3F5A04F31D036
:10F22C00B3F5A04F2AD8B3F5804F2DD0B3F5804F4E
:10F23C0024D8B3F5405F29D0B3F5405F1ED8B3F5A1
:10F24C00005F11D0B3F5005F18D8002B20D0B3F5B8
:10F25C00805F13D1D7F84C310833184603F0A4FF64
:10F26C00034687F85B3114E0D7F84C31303318463D
:10F27C0004F032F8034687F85B310AE0012387F883
:10F28C005B3106E000BF04E000BF02E000BF00E01D
:10F29C0000BF97F85B31002B0DD1264BD3F8DC3037
:10F2AC0023F4E041D7F84C31D3F8A830214A0B4372
:10F2BC00C2F8DC3003E097F85B3187F85A31D7F8A5
:10F2CC004C31D3E900230021C7F8A81003F0200328
:10F2DC00C7F8AC30D7E92A120B46134357D0D7F8EE
:10F2EC004C31D3F8AC30B3F5A02F33D0B3F5A02FFD
:10F2FC002CD8B3F5802F2FD0B3F5802F26D8B3F5AB
:10F30C00403F2BD0B3F5403F20D8B3F5003F13D08E
:10F31C00B3F5003F1AD8002B22D0B3F5803F15D19E
:10F32C00D7F84C310833184603F03EFF034687F8F4
:10F33C005B3116E0000C0244D7F84C3130331846E0
:10F34C0003F0CAFF034687F85B310AE0012387F814
:10F35C005B3106E000BF04E000BF02E000BF00E04C
:10F36C0000BF97F85B31002B0DD1BB4BD3F8DC30D1
:10F37C0023F4E021D7F84C31D3F8AC30B64A0B4328
:10F38C00C2F8DC3003E097F85B3187F85A31D7F8D4
:10F39C004C31D3E900230021C7F8A01003F040033F
:10F3AC00C7F8A430D7E928120B46134355D0D7F829
:10F3BC004C31D3F8B030B3F5A00F31D0B3F5A00F6A
:10F3CC002AD8B3F5800F2DD0B3F5800F24D8B3F520
:10F3DC00401F29D0B3F5401F1ED8B3F5001F11D024
:10F3EC00B3F5001F18D8002B20D0B3F5801F13D114
:10F3FC00D7F84C310833184603F0D6FE034687F88D
:10F40C005B3114E0D7F84C313033184603F064FF0D
:10F41C00034687F85B310AE0012387F85B3106E08D
:10F42C0000BF04E000BF02E000BF00E000BF97F89F
:10F43C005B31002B0DD1884BD3F8DC3023F4E00189
:10F44C00D7F84C31D3F8B030834A0B43C2F8DC30D8
:10F45C0003E097F85B3187F85A31D7F84C31D3E990
:10F46C0000230021C7F8981003F08003C7F89C30E4
:10F47C00D7E926120B46134355D0D7F84C31D3F8A5
:10F48C00B430B3F1A06F31D0B3F1A06F2AD8B3F17F
:10F49C00806F2DD0B3F1806F24D8B3F1407F29D089
:10F4AC00B3F1407F1ED8B3F1007F11D0B3F1007FD0
:10F4BC0018D8002B20D0B3F1807F13D1D7F84C3162
:10F4CC000833184603F070FE034687F85B3114E0EE
:10F4DC00D7F84C313033184603F0FEFE034687F85C
:10F4EC005B310AE0012387F85B3106E000BF04E0E2
:10F4FC0000BF02E000BF00E000BF97F85B31002BBB
:10F50C000DD1554BD3F8DC3023F0E061D7F84C31FA
:10F51C00D3F8B430504A0B43C2F8DC3003E097F810
:10F52C005B3187F85A31D7F84C31D3E900230021ED
:10F53C00C7F8901003F48073C7F89430D7E92412FD
:10F54C000B46134355D0D7F84C31D3F8B830B3F140
:10F55C00A04F31D0B3F1A04F2AD8B3F1804F2DD0AA
:10F56C00B3F1804F24D8B3F1405F29D0B3F1405FA1
:10F57C001ED8B3F1005F11D0B3F1005F18D8002B87
:10F58C0020D0B3F1805F13D1D7F84C310833184633
:10F59C0003F00AFE034687F85B3114E0D7F84C31D0
:10F5AC003033184603F098FE034687F85B310AE0C7
:10F5BC00012387F85B3106E000BF04E000BF02E0E6
:10F5CC0000BF00E000BF97F85B31002B0DD1224B40
:10F5DC00D3F8DC3023F0E041D7F84C31D3F8B83015
:10F5EC001D4A0B43C2F8DC3003E097F85B3187F817
:10F5FC005A31D7F84C31D3E9002302F40023C7F871
:10F60C0088300023C7F88C30D7E922120B461343FD
:10F61C0055D0D7F84C31D3F8C030B3F5802F35D056
:10F62C00B3F5802F2ED8B3F5403F31D0B3F5403F22
:10F63C0028D8B3F5003F1BD0B3F5003F22D8002BE0
:10F64C0003D0B3F5803F09D01CE0034B9B6A024A00
:10F65C0043F4003393621CE0000C0244D7F84C31A5
:10F66C000833184603F0A0FD034687F85B3110E021
:10F67C00D7F84C313033184603F02EFE034687F88A
:10F68C005B3106E0012387F85B3102E000BF00E04C
:10F69C0000BF97F85B31002B0DD1C34BD3F8E8308A
:10F6AC0023F4E021D7F84C31D3F8C030BE4A0B43D9
:10F6BC00C2F8E83003E097F85B3187F85A31D7F895
:10F6CC004C31D3E9002302F48013C7F880300023B7
:10F6DC00C7F88430D7E920120B46134351D0D7F822
:10F6EC004C31D3F8C430B3F5001F33D0B3F5001F41
:10F6FC002CD8B3F5C01F2DD0B3F5C01F26D8B3F549
:10F70C00801F19D0B3F5801F20D8002B03D0B3F580
:10F71C00002F07D01AE0A44B9B6AA34A43F4003392
:10F72C00936218E0D7F84C310833184603F03CFDCF
:10F73C00034687F85B310EE0D7F84C31303318466E
:10F74C0003F0CAFD034687F85B3104E0012387F818
:10F75C005B3100E000BF97F85B31002B0DD1924B71
:10F76C00D3F8E83023F46011D7F84C31D3F8C43017
:10F77C008D4A0B43C2F8E83003E097F85B3187F809
:10F78C005A31D7F84C31D3E9002302F40013BB678C
:10F79C000023FB67D7E91E120B46134332D0D7F870
:10F7AC004C31D3F8D430052B0FD8032B11D2012BAD
:10F7BC0011D9022B09D1D7F84C310833184603F074
:10F7CC00F3FC034687F85B3106E0012387F85B31D5
:10F7DC0002E000BF00E000BF97F85B31002B0DD1B9
:10F7EC00714BD3F8E83023F00701D7F84C31D3F83C
:10F7FC00D4306D4A0B43C2F8E83003E097F85B3124
:10F80C0087F85A31D7F84C31D3E9002300213967F6
:10F81C0003F400737B67D7E91C120B46134324D007
:10F82C00D7F84C31D3F8D830002B05D0082B05D0A5
:10F83C00012387F85B3102E000BF00E000BF97F8BE
:10F84C005B31002B0DD1584BD3F8E83023F0080175
:10F85C00D7F84C31D3F8D830534A0B43C2F8E830C0
:10F86C0003E097F85B3187F85A31D7F84C31D3E97C
:10F87C00002302F00073BB660023FB66D7E91A1263
:10F88C000B46134300F0B980484B5B6A474A43F080
:10F89C0001035362FDF71CFAC7F854010BE0FDF7A6
:10F8AC0017FA0246D7F85431D31A022B03D9032383
:10F8BC0087F85B3105E03D4B5B6A03F00103002BDD
:10F8CC00EDD097F85B31002B40F09380364BD3F89A
:10F8DC00F03003F44073C7F85C31D7F85C31002B7F
:10F8EC0023D0D7F84C31D3F8F820D7F85C319342B9
:10F8FC001BD02D4BD3F8F03023F44073C7F85C3198
:10F90C00294BD3F8F030284A43F48033C2F8F03056
:10F91C00254BD3F8F030244A23F48033C2F8F0306E
:10F92C00214AD7F85C31C2F8F030D7F85C3103F0DB
:10F93C000103002B19D0FDF7CBF9C7F854010DE0EA
:10F94C00FDF7C6F90246D7F85431D21A41F2883382
:10F95C009A4203D9032387F85B3106E0124BD3F8A4
:10F96C00F03003F00203002BEAD097F85B31002B48
:10F97C003AD1D7F84C31D3F8F83003F44073B3F5DF
:10F98C00407F15D1084BDB6923F47C51D7F84C31FF
:10F99C00D3F8F8301B0923F07F4323F03003024ADD
:10F9AC000B43D3610AE000BF000C02440008024480
:10F9BC009F4BDB699E4A23F47C53D3619C4BD3F859
:10F9CC00F0309B4A23F44073C2F8F030984BD3F8D4
:10F9DC00F010D7F84C31D3F8F830C3F30B03944A3A
:10F9EC000B43C2F8F03008E097F85B3187F85A31D6
:10F9FC0003E097F85B3187F85A31D7F84C31D3E9EB
:10FA0C00002302F080633B6600237B66D7E9181263
:10FA1C000B46134335D0D7F84C31D3F8C830302BC4
:10FA2C0014D0302B0ED8202B12D0202B0AD8002B20
:10FA3C0010D0102B06D17E4B9B6A7D4A43F40033C9
:10FA4C00936208E0012387F85B3104E000BF02E019
:10FA5C0000BF00E000BF97F85B31002B0DD1744B59
:10FA6C00D3F8E83023F03001D7F84C31D3F8C83054
:10FA7C006F4A0B43C2F8E83003E097F85B3187F824
:10FA8C005A31D7F84C31D3E9002302F48003BB651B
:10FA9C000023FB65D7E916120B46134333D0D7F876
:10FAAC004C31D3F8CC30002B02D0402B07D010E0D7
:10FABC005F4B9B6A5E4A43F4003393620DE0D7F8C8
:10FACC004C310833184603F06FFB034687F85B3163
:10FADC0003E0012387F85B3100BF97F85B31002B03
:10FAEC000DD1534BD3F8E43023F04001D7F84C310F
:10FAFC00D3F8CC304E4A0B43C2F8E43003E097F80D
:10FB0C005B3187F85A31D7F84C31D3E9002302F432
:10FB1C0000033B6500237B65D7E914120B461343A6
:10FB2C0033D0D7F84C31D3F8D030002B02D0802B07
:10FB3C0007D010E03E4B9B6A3D4A43F4003393627E
:10FB4C000DE0D7F84C310833184603F02DFB034673
:10FB5C0087F85B3103E0012387F85B3100BF97F82E
:10FB6C005B31002B0DD1324BD3F8E43023F0800104
:10FB7C00D7F84C31D3F8D0302D4A0B43C2F8E430CF
:10FB8C0003E097F85B3187F85A31D7F84C31D3E959
:10FB9C00002302F00063BB640023FB64D7E912125C
:10FBAC000B4613434AD0D7F84C31D3F8E030042B32
:10FBBC0027D801A252F823F0D9FB0008E7FB000874
:10FBCC00FBFB000817FC000817FC0008184B9B6A8D
:10FBDC00174A43F40033936218E0D7F84C310833DA
:10FBEC00184603F0E1FA034687F85B310EE0D7F8CC
:10FBFC004C313033184603F06FFB034687F85B310A
:10FC0C0004E0012387F85B3100E000BF97F85B311B
:10FC1C00002B0FD1064BD3F8E03023F00701D7F8B7
:10FC2C004C31D3F8E030024A0B43C2F8E03005E027
:10FC3C00000C024497F85B3187F85A31D7F84C31F5
:10FC4C00D3E9002302F080533B6400237B64D7E9A3
:10FC5C0010120B46134300F08180D7F84C31D3F8C7
:10FC6C00E430202B5FD801A252F823F0FDFC0008F1
:10FC7C0033FD000833FD000833FD000833FD000898
:10FC8C0033FD000833FD000833FD00080BFD0008B0
:10FC9C0033FD000833FD000833FD000833FD000878
:10FCAC0033FD000833FD000833FD00081FFD00087C
:10FCBC0033FD000833FD000833FD000833FD000858
:10FCCC0033FD000833FD000833FD00083BFD000840
:10FCDC0033FD000833FD000833FD000833FD000838
:10FCEC0033FD000833FD000833FD00083BFD000820
:10FCFC00AB4B9B6AAA4A43F40033936218E0D7F8E3
:10FD0C004C310833184603F04FFA034687F85B3141
:10FD1C000EE0D7F84C313033184603F0DDFA0346C9
:10FD2C0087F85B3104E0012387F85B3100E000BF0A
:10FD3C0097F85B31002B0DD1994BD3F8E03023F0C1
:10FD4C003801D7F84C31D3F8E430954A0B43C2F85C
:10FD5C00E03003E097F85B3187F85A31D7F84C3133
:10FD6C00D3E9002302F00053BB630023FB63D7E904
:10FD7C000E120B4613434ED0D7F84C31D3F8E83063
:10FD8C00B3F5807F2ED0B3F5807F27D8C02B2BD036
:10FD9C00C02B23D8802B17D0802B1FD8002B02D040
:10FDAC00402B07D01AE07E4B9B6A7D4A43F400330C
:10FDBC0093621AE0D7F84C310833184603F0F4F983
:10FDCC00034687F85B3110E0D7F84C3130331846D6
:10FDDC0003F082FA034687F85B3106E0012387F8CB
:10FDEC005B3102E000BF00E000BF97F85B31002BF5
:10FDFC000DD16B4BD3F8E03023F4E071D7F84C31D4
:10FE0C00D3F8E830664A0B43C2F8E03003E097F8C9
:10FE1C005B3187F85A31D7F84C31D3E9002302F023
:10FE2C0080433B6300237B63D7E90C120B461343DF
:10FE3C0055D0D7F84C31D3F8EC30B3F5206F31D026
:10FE4C00B3F5206F2AD8B3F5006F2DD0B3F5006F42
:10FE5C0024D8B3F5C06F29D0B3F5C06F1ED8B3F555
:10FE6C00806F11D0B3F5806F18D8002B20D0B3F56C
:10FE7C00007F13D1D7F84C310833184603F094F9AE
:10FE8C00034687F85B3114E0D7F84C313033184611
:10FE9C0003F022FA034687F85B310AE0012387F866
:10FEAC005B3106E000BF04E000BF02E000BF00E0F1
:10FEBC0000BF97F85B31002B0DD1394BD3F8E030F4
:10FECC0023F46061D7F84C31D3F8EC30344A0B434F
:10FEDC00C2F8E03003E097F85B3187F85A31D7F875
:10FEEC004C31D3E9002302F00043BB620023FB62D8
:10FEFC00D7E90A120B46134358D0D7F84C31D3F834
:10FF0C00F030B3F5A04F31D0B3F5A04F2AD8B3F5EC
:10FF1C00804F2DD0B3F5804F24D8B3F5405F29D056
:10FF2C00B3F5405F1ED8B3F5005F11D0B3F5005F99
:10FF3C0018D8002B20D0B3F5805F13D1D7F84C31F3
:10FF4C000833184603F030F9034687F85B3114E0A8
:10FF5C00D7F84C313033184603F0BEF9034687F816
:10FF6C005B310AE0012387F85B3106E000BF04E057
:10FF7C0000BF02E000BF00E000BF97F85B31002B30
:10FF8C0010D1074BD3F8E03023F4E042D7F84C31D2
:10FF9C00D3F8F03002491343C1F8E03006E000BF5B
:10FFAC00000C024497F85B3187F85A31D7F84C3182
:10FFBC00D3E900230021396203F001037B62D7E906
:10FFCC0008120B46134355D0D7F84C31D3F8F43004
:10FFDC00B3F5203F31D0B3F5203F2AD8B3F5003F1D
:10FFEC002DD0B3F5003F24D8B3F5C03F29D0B3F5DD
:04FFFC00C03F1ED80C
:020000040801F1
:10000000B3F5803F11D0B3F5803F18D8002B20D036
:10001000B3F5004F13D1D7F84C310833184603F02D
:10002000C9F8034687F85B3114E0D7F84C31303318
:10003000184603F057F9034687F85B310AE00123BD
:1000400087F85B3106E000BF04E000BF02E000BFBC
:1000500000E000BF97F85B31002B0DD1884BD3F83F
:10006000E03023F46032D7F84C31D3F8F4308449CF
:100070001343C1F8E03003E097F85B3187F85A3159
:10008000D7F84C31D3E900230021B96103F0020312
:10009000FB61D7E906120B4613433DD0D7F84C312C
:1000A000D3F8DC30032B1CD801A252F823F000BF98
:1000B000EB000108C1000108CF000108EB000108B6
:1000C0006F4B9B6A6E4A43F4003393620EE0D7F89D
:1000D0004C310833184603F06DF8034687F85B315E
:1000E00004E0012387F85B3100E000BF97F85B3143
:1000F000002B0DD1624BD3F8E43023F00302D7F884
:100100004C31D3F8DC305E491343C1F8E43003E0EE
:1001100097F85B3187F85A31D7F84C31D3E900238F
:100120000021396103F004037B61D7E904120B4617
:1001300013433AD0D7F84C31D3F8BC30B3F5007F35
:100140000ED0B3F5007F15D8002B17D0B3F5807F04
:1001500010D14B4B9B6A4A4A43F4003393620EE042
:10016000D7F84C310833184603F024F8034687F8D3
:100170005B3104E0012387F85B3100E000BF97F8B2
:100180005B31002B0DD13E4BD3F8E83023F44072A5
:10019000D7F84C31D3F8BC3039491343C1F8E830B3
:1001A00003E097F85B3187F85A31D7F84C31D3E93F
:1001B00000230021B96003F01003FB60D7E90212AD
:1001C0000B46134338D0D7F84C31D3F80031302BDD
:1001D0001BD0302B15D8102B02D0202B07D010E0CD
:1001E000274B9B6A264A43F4003393620EE0D7F80C
:1001F0004C313033184603F075F8034687F85B310D
:1002000004E0012387F85B3100E000BF97F85B3121
:10021000002B0DD11A4BD3F8E43023F03002D7F87D
:100220004C31D3F8003116491343C1F8E43003E0F0
:1002300097F85B3187F85A31D7F84C31D3E900236E
:100240000021396003F008037B60D7E900120B46F8
:1002500013430CD00A4BD3F8E83023F0C002D7F890
:100260004C31D3F8FC3006491343C1F8E83097F815
:100270005A31184607F5B077BD46BDE8B08F00BFCC
:10028000000C024480B48BB000AF7860AD4B5B6B68
:10029000C3F308033B62AB4B9B6A03F00303FB61B0
:1002A000A84B9B6A1B0A03F03F03BB61A54B9B6AEB
:1002B00003F010037B61A34B9B6BDB08C3F30C03C0
:1002C0007A6902FB03F307EE903AF8EE677AC7ED1E
:1002D000047ABB69002B00F02681FB69032B53D005
:1002E000FB69032B6FD8FB69012B03D0FB69022B41
:1002F0002BD068E0934B1B68DB0803F00303924AA2
:1003000022FA03F3FB60FB6807EE903AF8EE676AA7
:10031000BB6907EE903AF8EE677A86EEA77A3B6AF9
:1003200007EE903AF8EE676A97ED046ADFED875AB8
:10033000C6EE257A76EEA77AF7EE006A77EEA67A11
:1003400067EE277AC7ED097A68E0BB6907EE903A55
:10035000F8EE677ADFED7E6A86EEA77A3B6A07EEF3
:10036000903AF8EE676A97ED046ADFED785AC6EEC8
:10037000257A76EEA77AF7EE006A77EEA67A67EE30
:10038000277AC7ED097A49E0BB6907EE903AF8EEA3
:10039000677ADFED706A86EEA77A3B6A07EE903ADD
:1003A000F8EE676A97ED046ADFED685AC6EE257AC3
:1003B00076EEA77AF7EE006A77EEA67A67EE277AEE
:1003C000C7ED097A2AE05F4B1B68DB0803F00303E3
:1003D0005D4A22FA03F3FB60FB6807EE903AF8EE01
:1003E000676ABB6907EE903AF8EE677A86EEA77AFD
:1003F0003B6A07EE903AF8EE676A97ED046ADFED24
:10040000535AC6EE257A76EEA77AF7EE006A77EEB3
:10041000A67A67EE277AC7ED097A00BF494B1B68B9
:1004200003F00073B3F1007F21D1464B9B6A03F4C4
:100430008033002B17D0434B5B6B5B0A03F07F03C9
:1004400007EE903AF8EE677AB7EE007A37EE877AE1
:10045000D7ED096AC6EE877AFCEEE77A17EE902AA6
:100460007B681A6006E07B6800221A6002E07B6805
:1004700000221A60334B1B6803F00073B3F1007F56
:1004800021D1304B9B6A03F40033002B17D02D4B46
:100490005B6B1B0C03F07F0307EE903AF8EE677A74
:1004A000B7EE007A37EE877AD7ED096AC6EE877A1B
:1004B000FCEEE77A17EE902A7B685A6006E07B68CC
:1004C00000225A6002E07B6800225A601D4B1B68C4
:1004D00003F00073B3F1007F21D11A4B9B6A03F440
:1004E0008023002B17D0174B5B6B1B0E03F07F0391
:1004F00007EE903AF8EE677AB7EE007A37EE877A31
:10050000D7ED096AC6EE877AFCEEE77A17EE902AF5
:100510007B689A6010E07B6800229A600CE07B6840
:1005200000229A6008E07B6800221A607B68002243
:100530005A607B6800229A6000BF2C37BD465DF888
:10054000047B7047000C02440090D003000000467A
:100550000024744A20BCBE4B80B48BB000AF7860DE
:10056000AD4BDB6BC3F308033B62AB4BDB6A03F0C1
:100570000303FB61A84BDB6A1B0A03F03F03BB616B
:10058000A54BDB6A03F010037B61A34B1B6CDB08FC
:10059000C3F30C037A6902FB03F307EE903AF8EE1B
:1005A000677AC7ED047ABB69002B00F02681FB69EE
:1005B000032B53D0FB69032B6FD8FB69012B03D0AE
:1005C000FB69022B2BD068E0934B1B68DB0803F020
:1005D0000303924A22FA03F3FB60FB6807EE903AAA
:1005E000F8EE676ABB6907EE903AF8EE677A86EE36
:1005F000A77A3B6A07EE903AF8EE676A97ED046ACD
:10060000DFED875AC6EE257A76EEA77AF7EE006A16
:1006100077EEA67A67EE277AC7ED097A68E0BB69BC
:1006200007EE903AF8EE677ADFED7E6A86EEA77AFB
:100630003B6A07EE903AF8EE676A97ED046ADFEDE1
:10064000785AC6EE257A76EEA77AF7EE006A77EE4C
:10065000A67A67EE277AC7ED097A49E0BB6907EE0B
:10066000903AF8EE677ADFED706A86EEA77A3B6A19
:1006700007EE903AF8EE676A97ED046ADFED685A84
:10068000C6EE257A76EEA77AF7EE006A77EEA67ABE
:1006900067EE277AC7ED097A2AE05F4B1B68DB0813
:1006A00003F003035D4A22FA03F3FB60FB6807EEE5
:1006B000903AF8EE676ABB6907EE903AF8EE677A0F
:1006C00086EEA77A3B6A07EE903AF8EE676A97EDF6
:1006D000046ADFED535AC6EE257A76EEA77AF7EE76
:1006E000006A77EEA67A67EE277AC7ED097A00BF2F
:1006F000494B1B6803F00063B3F1006F21D1464BF7
:10070000DB6A03F48033002B17D0434BDB6B5B0AAF
:1007100003F07F0307EE903AF8EE677AB7EE007ABF
:1007200037EE877AD7ED096AC6EE877AFCEEE77A6C
:1007300017EE902A7B681A6006E07B6800221A6038
:1007400002E07B6800221A60334B1B6803F00063F1
:10075000B3F1006F21D1304BDB6A03F40033002B7F
:1007600017D02D4BDB6B1B0C03F07F0307EE903A89
:10077000F8EE677AB7EE007A37EE877AD7ED096A36
:10078000C6EE877AFCEEE77A17EE902A7B685A600D
:1007900006E07B6800225A6002E07B6800225A6013
:1007A0001D4B1B6803F00063B3F1006F21D11A4B9E
:1007B000DB6A03F48023002B17D0174BDB6B1B0E77
:1007C00003F07F0307EE903AF8EE677AB7EE007A0F
:1007D00037EE877AD7ED096AC6EE877AFCEEE77ABC
:1007E00017EE902A7B689A6010E07B6800229A607E
:1007F0000CE07B6800229A6008E07B6800221A60A7
:100800007B6800225A607B6800229A6000BF2C3708
:10081000BD465DF8047B7047000C02440090D00395
:10082000000000460024744A20BCBE4B80B48BB04C
:1008300000AF7860AD4B5B6CC3F308033B62AB4B1E
:100840001B6B03F00303FB61A84B1B6B1B0A03F03C
:100850003F03BB61A54B1B6B03F010037B61A34BF4
:100860009B6CDB08C3F30C037A6902FB03F307EE0E
:10087000903AF8EE677AC7ED047ABB69002B00F076
:100880002681FB69032B53D0FB69032B6FD8FB69CF
:10089000012B03D0FB69022B2BD068E0934B1B6824
:1008A000DB0803F00303924A22FA03F3FB60FB68C0
:1008B00007EE903AF8EE676ABB6907EE903AF8EEF9
:1008C000677A86EEA77A3B6A07EE903AF8EE676A97
:1008D00097ED046ADFED875AC6EE257A76EEA77AA1
:1008E000F7EE006A77EEA67A67EE277AC7ED097A07
:1008F00068E0BB6907EE903AF8EE677ADFED7E6A52
:1009000086EEA77A3B6A07EE903AF8EE676A97EDB3
:10091000046ADFED785AC6EE257A76EEA77AF7EE0E
:10092000006A77EEA67A67EE277AC7ED097A49E082
:10093000BB6907EE903AF8EE677ADFED706A86EEF3
:10094000A77A3B6A07EE903AF8EE676A97ED046A79
:10095000DFED685AC6EE257A76EEA77AF7EE006AE2
:1009600077EEA67A67EE277AC7ED097A2AE05F4B21
:100970001B68DB0803F003035D4A22FA03F3FB6004
:10098000FB6807EE903AF8EE676ABB6907EE903AAB
:10099000F8EE677A86EEA77A3B6A07EE903AF8EEB1
:1009A000676A97ED046ADFED535AC6EE257A76EE54
:1009B000A77AF7EE006A77EEA67A67EE277AC7ED98
:1009C000097A00BF494B1B6803F00053B3F1005F85
:1009D00021D1464B1B6B03F48033002B17D0434BC4
:1009E0005B6C5B0A03F07F0307EE903AF8EE677AE0
:1009F000B7EE007A37EE877AD7ED096AC6EE877AC6
:100A0000FCEEE77A17EE902A7B681A6006E07B68B6
:100A100000221A6002E07B6800221A60334B1B68D8
:100A200003F00053B3F1005F21D1304B1B6B03F493
:100A30000033002B17D02D4B5B6C1B0C03F07F0396
:100A400007EE903AF8EE677AB7EE007A37EE877ADB
:100A5000D7ED096AC6EE877AFCEEE77A17EE902AA0
:100A60007B685A6006E07B6800225A6002E07B687F
:100A700000225A601D4B1B6803F00053B3F1005F66
:100A800021D11A4B1B6B03F48023002B17D0174B7B
:100A90005B6C1B0E03F07F0307EE903AF8EE677A6B
:100AA000B7EE007A37EE877AD7ED096AC6EE877A15
:100AB000FCEEE77A17EE902A7B689A6010E07B687C
:100AC00000229A600CE07B6800229A6008E07B6854
:100AD00000221A607B6800225A607B6800229A60BC
:100AE00000BF2C37BD465DF8047B7047000C024404
:100AF0000090D003000000460024744A20BCBE4B86
:100B000090B58FB000AFC7E90001D7E9000100F14F
:100B10007E44214350D1264BD3F8F03003F4407388
:100B20003B63234BD3F8F03003F00203022B08D1D0
:100B30003B6BB3F5807F04D14FF400437B6302F03D
:100B40002ABB1B4BD3F8F03003F00063B3F1006F06
:100B500008D13B6BB3F5007F04D14FF4FA437B63BC
:100B600002F019BB124B1B6803F40033B3F5003FCE
:100B700019D13B6BB3F5407F15D10D4BDB6903F405
:100B80007C53B3F5007F0AD3094BDB691B0A03F0E2
:100B90003F03084AB2FBF3F37B6302F0FCBA002385
:100BA0007B6302F0F8BA00237B6302F0F4BA00BF63
:100BB000000C024440787D01D7E90001A1F5806472
:100BC00050EA040101F07582D7E90001012871F5AE
:100BD000806182F0DD82D7E90001A1F5007450EA5E
:100BE000040101F06C81D7E90001012871F5007161
:100BF00082F0CE82D7E90001A1F5807450EA0401A9
:100C000001F00286D7E90001012871F5807182F0B8
:100C1000BF82D7E90001A1F1800450EA040101F08C
:100C20004C85D7E90001012871F1800182F0B08282
:100C3000D7E90001A1F1400450EA040101F09E84CB
:100C4000D7E90001012871F1400182F0A182D7E9C2
:100C50000001A1F1200450EA040101F0E883D7E982
:100C60000001012871F1200182F09282D7E9000190
:100C7000A1F1100450EA040102F05682D7E9000104
:100C8000012871F1100182F08382D7E90001A1F1FE
:100C9000080450EA040102F0CC81D7E900010128E0
:100CA00071F1080182F07482D7E900010C1F50EA4B
:100CB000040101F04886D7E90001012871F104011F
:100CC00082F06682D7E900018C1E50EA040102F02E
:100CD0004381D7E90001012871F1020182F05882B5
:100CE000D7E900014C1E50EA040102F0CE80D7E99A
:100CF0000001012871F1010182F04A82D7E9000167
:100D000000F10044214302F05980D7E90001D94C99
:100D1000A04271F1000182F03B82D7E9000100F1AD
:100D20004044214301F0D987D7E90001D24CA042C9
:100D300071F1000182F02C82D7E9000100F16044DA
:100D4000214301F05187D7E90001CC4CA04271F159
:100D5000000182F01D82D7E9000100F170442143B7
:100D600001F09A86D7E90001C54CA04271F100015B
:100D700082F00E82D7E9000100F17844214301F0AE
:100D80001286D7E90001BF4CA04271F1000182F048
:100D9000FF81D7E9000100F17C44214302F07E810C
:100DA000D7E90001B84CA04271F1000182F0F08156
:100DB000D7E90001A0F50004214300F09E82D7E9A5
:100DC0000001B24CA04271F1000182F0E181D7E94B
:100DD0000001A0F58004214300F06D82D7E90001F5
:100DE000AB4CA04271F1000182F0D281D7E9000141
:100DF000A0F50014214301F00D80D7E90001A54CB6
:100E0000A04271F1000182F0C381D7E90001A0F591
:100E10008014214300F0D081D7E900019E4CA0420C
:100E200071F1000182F0B481D7E90001A0F500243E
:100E3000214300F04281D7E90001984CA04271F1B2
:100E4000000182F0A581D7E90001A0F580242143AB
:100E500001F04E82D7E90001914CA04271F10001EE
:100E600082F09681D7E90001A0F50034214301F01A
:100E70009781D7E900018B4CA04271F1000182F00B
:100E80008781D7E90001A0F58034214301F0548126
:100E9000D7E90001B0F1011F71F1000182F0788102
:100EA000D7E90001A0F50044214301F0B780D7E95C
:100EB000000148F20104A04271F1000182F0688152
:100EC000D7E90001A0F58044214301F06480D7E90F
:100ED000000144F20104A04271F1000182F0588146
:100EE000D7E90001A0F50054214301F01180D7E9B2
:100EF000000142F20104A04271F1000182F0488138
:100F0000D7E90001A0F58054214300F01E87D7E9FE
:100F1000000141F20104A04271F1000182F0388128
:100F2000D7E90001A0F50064214300F0A886D7E9C5
:100F3000000140F60104A04271F1000182F0288115
:100F4000D7E90001A0F58064214300F03286D7E99B
:100F5000000140F20144A04271F1000182F01881C9
:100F6000D7E90001A0F50074214300F0B085D7E96E
:100F7000000140F20124A04271F1000182F00881D9
:100F8000D7E90001A0F58074214300F03585D7E949
:100F9000000140F20114A04271F1000182F0F880DA
:100FA000D7E90001A0F18004214300F0BA84D7E919
:100FB0000001812871F1000182F0EA80D7E9000187
:100FC000212871F100016FD2D7E90001014302F03D
:100FD000DF80D7E90001421E41F1FF33202A73F17F
:100FE000000182F0D5801F2A02F2D28001A151F8BF
:100FF00022F000BF551301082114010891310108A6
:10100000E114010891310108913101089131010881
:10101000B1150108913101089131010891310108A0
:101020009131010891310108913101089131010894
:10103000931601089131010891310108913101089D
:101040009131010891310108913101089131010874
:101050009131010891310108913101089131010864
:101060009131010891310108913101089131010854
:101070006917010801000080010000400100002004
:1010800001000010010000080100000401008000C0
:1010900001004000010020000100100001000800D4
:1010A0000100040001000200D7E90023A2F1400181
:1010B0000B4300F0C48302F06BB8A14BD3F8E830C7
:1010C00003F4E0233B633B6BB3F5802F36D03B6BDF
:1010D000B3F5802F6BD83B6BB3F5403F2BD03B6B08
:1010E000B3F5403F63D83B6BB3F5003F1BD03B6B80
:1010F000B3F5003F5BD83B6B002B04D03B6BB3F5E3
:10110000803F08D053E007F120031846FFF7BAF8F4
:101110007B6A7B634EE007F114031846FFF71CFA65
:101120007B697B6346E007F108031846FFF77EFB07
:10113000BB687B633EE0834B7B633BE0804BD3F833
:10114000E83003F04043FB627D4B1B6803F0020371
:10115000022B0CD1FB6A002B09D1794B1B68DB08F1
:1011600003F00303784A22FA03F37B631EE0744B17
:101170001B6803F40073B3F5007F06D1FB6AB3F17B
:10118000804F02D1714B7B6310E06D4B1B6803F401
:101190000033B3F5003F06D1FB6AB3F1004F02D133
:1011A0006B4B7B6302E000237B6303E002E00023E0
:1011B0007B6300BF01F0EFBF614BD3F8E83003F46D
:1011C00060133B633B6BB3F5001F36D03B6BB3F54D
:1011D000001F6BD83B6BB3F5C01F2BD03B6BB3F537
:1011E000C01F63D83B6BB3F5801F1BD03B6BB3F5BF
:1011F000801F5BD83B6B002B04D03B6BB3F5002FFB
:1012000008D053E007F120031846FFF73BF87B6A4C
:101210007B634EE007F114031846FFF79DF97B69E5
:101220007B6346E007F108031846FFF7FFFABB6847
:101230007B633EE0434B7B633BE0414BD3F8E830BC
:1012400003F04043FB623E4B1B6803F00203022B9A
:101250000CD1FB6A002B09D1394B1B68DB0803F06A
:101260000303394A22FA03F37B631EE0344B1B6805
:1012700003F40073B3F5007F06D1FB6AB3F1804F2E
:1012800002D1324B7B6310E02D4B1B6803F400331B
:10129000B3F5003F06D1FB6AB3F1004F02D12C4BEE
:1012A0007B6302E000237B6303E002E000237B63B7
:1012B00000BF01F070BF224BD3F8E43003F04003CD
:1012C0003B633B6B002B08D107F120031846FEF768
:1012D000D9FF7B6A7B6301F05EBF3B6B402B08D17B
:1012E00007F114031846FFF737F9FB697B6301F038
:1012F00052BF00237B6301F04EBF114BD3F8E430A3
:1013000003F080033B633B6B002B08D107F1200304
:101310001846FEF7B7FF7B6A7B6301F03CBF3B6B6F
:10132000802B08D107F114031846FFF715F9FB6964
:101330007B6301F030BF00237B6301F02CBF00BF53
:10134000000C02440080BB000090D00300093D0067
:1013500040787D019D4BD3F8D83003F007033B6301
:101360003B6B002B04D1FCF7D7FF786301F013BF70
:10137000964B1B6803F00063B3F1006F0AD13B6B1F
:10138000012B07D107F114031846FFF7E5F8BB69F5
:101390007B6343E08D4B1B6803F00053B3F1005FA8
:1013A0000AD13B6B022B07D107F108031846FFF760
:1013B0003DFAFB687B6331E0844B1B6803F002035A
:1013C000022B0CD13B6B032B09D1804B1B68DB0834
:1013D00003F003037E4A22FA03F37B631EE07B4B98
:1013E0001B6803F40073B3F5007F05D13B6B042B3E
:1013F00002D1784B7B6311E0744BD3F8F03003F0EB
:101400000203022B06D13B6B052B03D14FF40043A3
:101410007B6303E000237B6301F0BDBE01F0BBBE34
:101420006A4BD3F8D83003F038033B633B6B002B97
:1014300004D1FCF75BFF786301F0ADBE634B1B6822
:1014400003F00063B3F1006F0AD13B6B082B07D1A7
:1014500007F114031846FFF77FF8BB697B633DE093
:101460003B6B102B08D107F108031846FFF7DEF994
:10147000FB687B6301F08FBE544B1B6803F00203D3
:10148000022B0CD13B6B182B09D1504B1B68DB088E
:1014900003F003034E4A22FA03F37B631EE04B4B37
:1014A0001B6803F40073B3F5007F05D13B6B202B61
:1014B00002D1484B7B6311E0444BD3F8F03003F08A
:1014C0000203022B06D13B6B282B03D14FF40043C0
:1014D0007B6303E000237B6301F05DBE01F05BBE34
:1014E0003A4BD3F8D83003F4E0733B633B6B002BEB
:1014F00004D1FCF7FBFE786301F04DBE334B1B6853
:1015000003F00063B3F1006F0AD13B6B402B07D1AE
:1015100007F114031846FFF71FF8BB697B6345E02A
:101520002A4B1B6803F00053B3F1005F0AD13B6BF9
:10153000802B07D107F108031846FFF777F9FB68FE
:101540007B6333E0214B1B6803F00203022B0CD1B9
:101550003B6BC02B09D11D4B1B68DB0803F0030359
:101560001B4A22FA03F37B6320E0184B1B6803F449
:101570000073B3F5007F06D13B6BB3F5807F02D1DA
:10158000144B7B6312E0114BD3F8F03003F00203ED
:10159000022B07D13B6BB3F5A07F03D14FF400437F
:1015A0007B6303E000237B6301F0F5BD01F0F3BD35
:1015B000064BD3F8D83003F460633B633B6B002BDE
:1015C0000AD1FCF793FE786301F0E5BD000C0244FC
:1015D0000090D00300093D00A04B1B6803F000639E
:1015E000B3F1006F0BD13B6BB3F5007F07D107F16F
:1015F00014031846FEF7B0FFBB697B6347E0974BC7
:101600001B6803F00053B3F1005F0BD13B6BB3F5E4
:10161000806F07D107F108031846FFF707F9FB6849
:101620007B6334E08D4B1B6803F00203022B0DD16A
:101630003B6BB3F5C06F09D1884B1B68DB0803F027
:101640000303874A22FA03F37B6320E0834B1B6882
:1016500003F40073B3F5007F06D13B6BB3F5006F65
:1016600002D1804B7B6312E07C4BD3F8F03003F067
:101670000203022B07D13B6BB3F5206F03D14FF46C
:1016800000437B6303E000237B6301F084BD01F032
:1016900082BD724BD3F8D83003F4E0433B633B6B1D
:1016A000002B04D1FCF722FE786301F074BD6B4B74
:1016B0001B6803F00063B3F1006F0BD13B6BB3F514
:1016C000805F07D107F114031846FEF745FFBB6999
:1016D0007B6347E0614B1B6803F00053B3F1005F8D
:1016E0000BD13B6BB3F5005F07D107F10803184638
:1016F000FFF79CF8FB687B6334E0584B1B6803F0F2
:101700000203022B0DD13B6BB3F5405F09D1534B64
:101710001B68DB0803F00303514A22FA03F37B63DF
:1017200020E04E4B1B6803F40073B3F5007F06D135
:101730003B6BB3F5804F02D14A4B7B6312E0474BC2
:10174000D3F8F03003F00203022B07D13B6BB3F563
:10175000A04F03D14FF400437B6303E000237B637E
:1017600001F019BD01F017BD3C4BD3F8D83003F49C
:1017700060333B633B6B002B04D1FCF7B7FD786310
:1017800001F009BD354B1B6803F00063B3F1006F36
:101790000BD13B6BB3F5004F07D107F1140318468B
:1017A000FEF7DAFEBB697B6347E02C4B1B6803F056
:1017B0000053B3F1005F0BD13B6BB3F5803F07D112
:1017C00007F108031846FFF731F8FB687B6334E044
:1017D000224B1B6803F00203022B0DD13B6BB3F5C8
:1017E000C03F09D11D4B1B68DB0803F003031C4AF3
:1017F00022FA03F37B6320E0184B1B6803F40073A9
:10180000B3F5007F06D13B6BB3F5003F02D1154B1A
:101810007B6312E0114BD3F8F03003F00203022B8C
:1018200007D13B6BB3F5203F03D14FF400437B63FB
:1018300003E000237B6301F0AEBC01F0ACBC074BBE
:10184000D3F8D83003F4E0133B633B6B002B0BD190
:10185000FCF74CFD786301F09EBC00BF000C024415
:101860000090D00300093D00A04B1B6803F000630B
:10187000B3F1006F0BD13B6BB3F5802F07D107F1AC
:1018800014031846FEF768FEBB697B6347E0974B7D
:101890001B6803F00053B3F1005F0BD13B6BB3F552
:1018A000002F07D107F108031846FEF7BFFFFB68BA
:1018B0007B6334E08D4B1B6803F00203022B0DD1D8
:1018C0003B6BB3F5402F09D1884B1B68DB0803F055
:1018D0000303874A22FA03F37B6320E0834B1B68F0
:1018E00003F40073B3F5007F06D13B6BB3F5801FA3
:1018F00002D1804B7B6312E07C4BD3F8F03003F0D5
:101900000203022B07D13B6BB3F5A01F03D14FF4A9
:1019100000437B6303E000237B6301F03CBC01F0E8
:101920003ABC724BD3F8D83003F460033B633B6B93
:10193000002B04D1FCF7DAFC786301F02CBC6B4B74
:101940001B6803F00063B3F1006F0BD13B6BB3F581
:10195000001F07D107F114031846FEF7FDFDBB6910
:101960007B6347E0614B1B6803F00053B3F1005FFA
:101970000BD13B6BB3F5800F07D107F10803184675
:10198000FEF754FFFB687B6334E0584B1B6803F0A1
:101990000203022B0DD13B6BB3F5C00F09D1534BA2
:1019A0001B68DB0803F00303514A22FA03F37B634D
:1019B00020E04E4B1B6803F40073B3F5007F06D1A3
:1019C0003B6BB3F5000F02D14A4B7B6312E0474BF0
:1019D000D3F8F03003F00203022B07D13B6BB3F5D1
:1019E000200F03D14FF400437B6303E000237B63AC
:1019F00001F0D1BB01F0CFBB3C4BD3F8D83003F0A2
:101A0000E0633B633B6B002B04D1FCF76FFC786316
:101A100001F0C1BB354B1B6803F00063B3F1006FED
:101A20000BD13B6BB3F1807F07D107F1140318464C
:101A3000FEF792FDBB697B6347E02C4B1B6803F00C
:101A40000053B3F1005F0BD13B6BB3F1007F07D1C3
:101A500007F108031846FEF7E9FEFB687B6334E0F4
:101A6000224B1B6803F00203022B0DD13B6BB3F139
:101A7000407F09D11D4B1B68DB0803F003031C4AA0
:101A800022FA03F37B6320E0184B1B6803F4007316
:101A9000B3F5007F06D13B6BB3F1806F02D1154BDC
:101AA0007B6312E0114BD3F8F03003F00203022BFA
:101AB00007D13B6BB3F1A06F03D14FF400437B63BD
:101AC00003E000237B6301F066BB01F064BB074BBE
