:020000040800F2
:10C0000000000A209D1301083D1001084510010899
:10C010004D100108551001085D100108ED130108CD
:10C020000000000000000000000000006510010892
:10C030007310010800000000811001088F10010832
:10C04000ED130108ED130108ED130108ED130108CC
:10C05000ED130108ED130108ED130108ED130108BC
:10C06000ED130108ED130108ED130108ED130108AC
:10C070009B100108ED130108ED130108ED130108F1
:10C08000ED130108ED130108A9100108ED130108D3
:10C09000ED130108ED130108B7100108ED130108B5
:10C0A000ED130108ED130108ED130108ED1301086C
:10C0B000ED130108ED130108ED130108ED1301085C
:10C0C000ED130108ED130108ED130108ED1301084C
:10C0D000ED130108ED130108ED130108ED1301083C
:10C0E000ED130108ED130108ED130108ED1301082C
:10C0F000ED130108ED130108ED130108ED1301081C
:10C10000ED130108ED130108ED130108ED1301080B
:10C11000ED130108ED130108ED130108ED130108FB
:10C12000ED130108ED130108ED130108ED130108EB
:10C13000ED130108C9100108DD100108ED13010815
:10C14000ED130108ED130108ED130108ED130108CB
:10C15000ED130108ED130108ED130108ED130108BB
:10C16000ED130108ED130108ED130108ED130108AB
:10C17000ED130108ED130108ED130108ED1301089B
:10C18000ED130108ED130108ED130108ED1301088B
:10C19000ED130108ED13010805110108ED13010865
:10C1A000ED130108ED130108ED130108ED1301086B
:10C1B000ED130108ED130108ED130108ED1301085B
:10C1C000ED130108ED130108ED130108F11001084A
:10C1D000ED130108ED130108ED130108ED1301083B
:10C1E000ED130108ED130108ED130108ED1301082B
:10C1F000ED130108ED130108ED130108ED1301081B
:10C20000ED130108ED130108ED130108ED1301080A
:10C21000ED130108ED130108ED130108ED130108FA
:10C22000ED130108ED130108ED130108ED130108EA
:10C23000ED130108ED130108ED130108ED130108DA
:0CC24000ED130108ED130108ED130108D7
:10C2500010B5054C237833B9044B13B10448AFF340
:10C2600000800123237010BD900200200000000018
:10C27000C4F0010808B5034B1BB103490348AFF3F1
:10C28000008008BD0000000094020020C4F00108F6
:10C29000034613F8012B002AFBD1181A0138704706
:10C2A00081F0004102E000BF83F0004330B54FEA67
:10C2B00041044FEA430594EA050F08BF90EA020FD4
:10C2C0001FBF54EA000C55EA020C7FEA645C7FEA67
:10C2D000655C00F0E2804FEA5454D4EB5555B8BF8A
:10C2E0006D420CDD2C4480EA020281EA030382EAFB
:10C2F000000083EA010180EA020281EA0303362D8D
:10C3000088BF30BD11F0004F4FEA01314FF4801C5F
:10C310004CEA113102D0404261EB410113F0004F71
:10C320004FEA03334CEA133302D0524263EB430328
:10C3300094EA050F00F0A780A4F10104D5F1200EC6
:10C340000DDB02FA0EFC22FA05F2801841F1000121
:10C3500003FA0EF2801843FA05F359410EE0A5F1F5
:10C3600020050EF1200E012A03FA0EFC28BF4CF026
:10C37000020C43FA05F3C01851EBE37101F00045DC
:10C3800007D54FF0000EDCF1000C7EEB00006EEBE9
:10C390000101B1F5801F1BD3B1F5001F0CD3490873
:10C3A0005FEA30004FEA3C0C04F101044FEA4452CA
:10C3B00012F5800F80F09A80BCF1004F08BF5FEA51
:10C3C000500C50F1000041EB045141EA050130BD31
:10C3D0005FEA4C0C404141EB0101013C28BFB1F543
:10C3E000801FE9D291F0000F04BF01460020B1FA8E
:10C3F00081F308BF2033A3F10B03B3F120020CDA61
:10C400000C3208DD02F1140CC2F10C0201FA0CF03E
:10C4100021FA02F10CE002F11402D8BFC2F1200CA3
:10C4200001FA02F120FA0CFCDCBF41EA0C01904059
:10C43000E41AA2BF01EB0451294330BD6FEA0404A2
:10C440001F3C1CDA0C340EDC04F11404C4F120028D
:10C4500020FA04F001FA02F340EA030021FA04F39F
:10C4600045EA030130BDC4F10C04C4F1200220FAF6
:10C4700002F001FA04F340EA0300294630BD21FA34
:10C4800004F0294630BD94F0000F83F4801306BFFA
:10C4900081F480110134013D4EE77FEA645C18BFEE
:10C4A0007FEA655C29D094EA050F08BF90EA020F85
:10C4B00005D054EA000C04BF1946104630BD91EA7D
:10C4C000030F1EBF0021002030BD5FEA545C05D180
:10C4D0004000494128BF41F0004130BD14F58004BF
:10C4E0003CBF01F5801130BD01F0004545F0FE4133
:10C4F00041F470014FF0000030BD7FEA645C1ABF68
:10C50000194610467FEA655C1CBF0B46024650EA9E
:10C51000013406BF52EA033591EA030F41F40021CA
:10C5200030BD00BF90F0000F04BF0021704730B550
:10C530004FF4806404F132044FF000054FF0000125
:10C5400050E700BF90F0000F04BF0021704730B5E6
:10C550004FF4806404F1320410F0004548BF4042BB
:10C560004FF000013EE700BF42004FEAE2014FEA10
:10C5700031014FEA02701FBF12F07F4393F07F4FEB
:10C5800081F06051704732F07F4208BF704793F0EE
:10C590007F4F04BF41F40021704730B54FF4607401
:10C5A00001F0004521F000411CE700BF50EA010204
:10C5B00008BF704730B54FF000050AE050EA0102AD
:10C5C00008BF704730B511F0004502D5404261EB1D
:10C5D00041014FF4806404F132045FEA915C3FF45E
:10C5E000D8AE4FF003025FEADC0C18BF03325FEAFB
:10C5F000DC0C18BF033202EBDC02C2F1200300FAAC
:10C6000003FC20FA02F001FA03FE40EA0E0021FAD0
:10C6100002F11444BDE600BF70B54FF0FF0C4CF4BE
:10C62000E06C1CEA11541DBF1CEA135594EA0C0F70
:10C6300095EA0C0F00F0DEF82C4481EA030621EAAB
:10C640004C5123EA4C5350EA013518BF52EA0335E6
:10C6500041F4801143F4801338D0A0FB02CE4FF098
:10C660000005E1FB02E506F00042E0FB03E54FF0C8
:10C670000006E1FB03569CF0000F18BF4EF0010EC0
:10C68000A4F1FF04B6F5007F64F5407404D25FEABC
:10C690004E0E6D4146EB060642EAC62141EA55516F
:10C6A0004FEAC52040EA5E504FEACE2EB4F1FD0CB1
:10C6B00088BFBCF5E06F1ED8BEF1004F08BF5FEA2F
:10C6C000500E50F1000041EB045170BD06F00046E1
:10C6D00046EA010140EA020081EA0301B4EB5C048E
:10C6E000C2BFD4EB0C0541EA045170BD41F4801186
:10C6F0004FF0000E013C00F3AB8014F1360FDEBFAB
:10C70000002001F0004170BDC4F10004203C35DA86
:10C710000C341BDC04F11404C4F1200500FA05F309
:10C7200020FA04F001FA05F240EA020001F00042AA
:10C7300021F0004110EBD37021FA04F642EB060120
:10C740005EEA430E08BF20EAD37070BDC4F10C044A
:10C75000C4F1200500FA04F320FA05F001FA04F20E
:10C7600040EA020001F0004110EBD37041F10001FA
:10C770005EEA430E08BF20EAD37070BDC4F1200505
:10C7800000FA05F24EEA020E20FA04F301FA05F26D
:10C7900043EA020321FA04F001F0004121FA04F215
:10C7A00020EA020000EBD3705EEA430E08BF20EAE5
:10C7B000D37070BD94F0000F0FD101F0004640001F
:10C7C00041EB010111F4801F08BF013CF7D041EAA1
:10C7D000060195F0000F18BF704703F000465200A5
:10C7E00043EB030313F4801F08BF013DF7D043EA76
:10C7F0000603704794EA0C0F0CEA135518BF95EA2C
:10C800000C0F0CD050EA410618BF52EA4306D1D1B2
:10C8100081EA030101F000414FF0000070BD50EAD1
:10C82000410606BF1046194652EA430619D094EA5B
:10C830000C0F02D150EA013613D195EA0C0F05D145
:10C8400052EA03361CBF104619460AD181EA030199
:10C8500001F0004141F0FE4141F470014FF0000051
:10C8600070BD41F0FE4141F4780170BD70B54FF0EC
:10C87000FF0C4CF4E06C1CEA11541DBF1CEA13556C
:10C8800094EA0C0F95EA0C0F00F0A7F8A4EB05044E
:10C8900081EA030E52EA03354FEA013100F0888045
:10C8A0004FEA03334FF0805545EA131343EA12630E
:10C8B0004FEA022245EA111545EA10654FEA0026C3
:10C8C0000EF000419D4208BF964244F1FD0404F57C
:10C8D000407402D25B084FEA3202B61A65EB0305D8
:10C8E0005B084FEA32024FF480104FF4002CB6EB95
:10C8F000020E75EB030E22BFB61A754640EA0C0015
:10C900005B084FEA3202B6EB020E75EB030E22BF54
:10C91000B61A754640EA5C005B084FEA3202B6EB95
:10C92000020E75EB030E22BFB61A754640EA9C0054
:10C930005B084FEA3202B6EB020E75EB030E22BF24
:10C94000B61A754640EADC0055EA060E18D04FEAE2
:10C95000051545EA16754FEA06164FEAC30343EA82
:10C9600052734FEAC2025FEA1C1CC0D111F4801F4F
:10C970000BD141EA00014FF000004FF0004CB6E748
:10C9800011F4801F04BF01430020B4F1FD0C88BFE7
:10C99000BCF5E06F3FF6AFAEB5EB030C04BFB6EBF2
:10C9A000020C5FEA500C50F1000041EB045170BDE5
:10C9B0000EF0004E4EEA113114EB5C04C2BFD4EB12
:10C9C0000C0541EA045170BD41F480114FF0000E96
:10C9D000013C90E645EA060E8DE60CEA135594EA12
:10C9E0000C0F08BF95EA0C0F3FF43BAF94EA0C0F15
:10C9F0000AD150EA01347FF434AF95EA0C0F7FF48A
:10CA000025AF104619462CE795EA0C0F06D152EADD
:10CA100003353FF4FDAE1046194622E750EA4106C1
:10CA200018BF52EA43067FF4C5AE50EA41047FF4D2
:10CA30000DAF52EA43057FF4EBAE12E74FF0FF3C37
:10CA400006E000BF4FF0010C02E000BF4FF0010C08
:10CA50004DF804CD4FEA410C7FEA6C5C4FEA430C81
:10CA600018BF7FEA6C5C1BD001B050EA410C0CBFD0
:10CA700052EA430C91EA030F02BF90EA020F002032
:10CA8000704710F1000F91EA030F58BF994208BF99
:10CA900090422CBFD8176FEAE37040F00100704756
:10CAA0004FEA410C7FEA6C5C02D150EA013C07D1AD
:10CAB0004FEA430C7FEA6C5CD6D152EA033CD3D0F8
:10CAC0005DF8040B704700BF8446104662468C46F2
:10CAD0001946634600E000BF01B5FFF7B7FF002825
:10CAE00048BF10F1000F01BD4DF808EDFFF7F4FF4E
:10CAF0000CBF012000205DF808FB00BF4DF808EDD9
:10CB0000FFF7EAFF34BF012000205DF808FB00BFFB
:10CB10004DF808EDFFF7E0FF94BF012000205DF81D
:10CB200008FB00BF4DF808EDFFF7CEFF94BF0120D2
:10CB300000205DF808FB00BF4DF808EDFFF7C4FFCB
:10CB400034BF012000205DF808FB00BF4FEA410C14
:10CB50007FEA6C5C02D150EA013C0AD14FEA430CF7
:10CB60007FEA6C5C02D152EA033C02D14FF0000034
:10CB700070474FF0010070474FEA410212F5001272
:10CB800015D211D56FF47873B3EB625212D94FEA14
:10CB9000C12343F0004343EA505311F0004F23FAFE
:10CBA00002F018BF404270474FF00000704750EA53
:10CBB000013005D111F0004008BF6FF00040704710
:10CBC0004FF00000704700BF4FEA4102B2F1E0436E
:10CBD00024BFB3F5001CDCF1FE5C0DD901F0004C64
:10CBE0004FEAC0024CEA5070B2F1004F40EB8300B4
:10CBF00008BF20F00100704711F0804F21D113F1E0
:10CC00003872BCBF01F00040704741F480114FEA18
:10CC10005252C2F11802C2F1200C10FA0CF320FAA1
:10CC200002F018BF40F001004FEAC1234FEAD323BE
:10CC300003FA0CFC40EA0C0023FA02F34FEA430328
:10CC4000CCE77FEA625307D150EA01331EBF4FF0B1
:10CC5000FE4040F44000704701F0004040F0FE40CC
:10CC600040F40000704700BF53B94AB9002908BF1B
:10CC700000281CBF4FF0FF314FF0FF3000F07EB9AD
:10CC8000ADF1080C6DE904CE00F006F8DDF804E023
:10CC9000DDE9022304B070472DE9F04F099D0C46F1
:10CCA000002B4DD18A420F4684469646B2FA82F353
:10CCB00060D94BB102FA03FEC3F120029F4000FA93
:10CCC00003FC20FA02F217434FEA1E461FFA8EF4C5
:10CCD0004FEA1C42B7FBF6F106FB117701FB04F0AB
:10CCE00042EA0742904208D91EEB020201F1FF37E7
:10CCF00002D2904200F22D813946121A1FFA8CFCA2
:10CD0000B2FBF6F006FB102200FB04F44CEA024CE6
:10CD1000644508D91EEB0C0C00F1FF3202D26445C9
:10CD200000F21A81104640EA0140ACEB040C0021ED
:10CD300025B12CFA03F30022C5E90032BDE8F08FDB
:10CD40008B4205D90DB1C5E9000100210846F5E780
:10CD5000B3FA83F100294DD1A342C0F0F280904292
:10CD600080F0EF80064623460846002DE6D0C5E950
:10CD70000063E3E7002B40F0A2808A1A4FEA1E47C7
:10CD80001FFA8EF60121B2FBF7F407FB14204FEADD
:10CD90001C4242EA004206FB04F090420FD91EEB0F
:10CDA000020204F1FF382CBF4FF001094FF00009D7
:10CDB000904203D9B9F1000F00F0C8804446121A1E
:10CDC0001FFA8CFCB2FBF7F007FB102200FB06F603
:10CDD0004CEA024C664508D91EEB0C0C00F1FF3200
:10CDE00002D2664500F2BB801046ACEB060C40EA6E
:10CDF00004409DE7C1F120068B4004FA01FE22FAAF
:10CE000006F720FA06FCF4408A401F434EEA0C0362
:10CE100000FA01FE4FEA17484FEA13491FFA87FC50
:10CE2000B4FBF8F008FB104449EA044400FB0CF999
:10CE3000A1450ED93C1900F1FF3A2CBF4FF0010B70
:10CE40004FF0000BA14503D9BBF1000F00F0938018
:10CE50005046A4EB09041FFA83F9B4FBF8F308FB6E
:10CE6000134403FB0CFC49EA0444A44506D93C19CD
:10CE700003F1FF3801D2A4457AD8434643EA004083
:10CE8000A4EB0C04A0FB02984445CC46434602D3D5
:10CE900006D1CE4504D20138B9EB020C68EB07038A
:10CEA0005DB1BEEB0C0264EB030404FA06F622FA51
:10CEB00001F3CC401E43C5E9006400213EE702FABD
:10CEC00003FEC3F1200104FA03F200FA03FCCC4094
:10CED0004FEA1E4720FA01F11FFA8EF6B4FBF7F075
:10CEE0000A4307FB1044110C41EA044100FB06F41D
:10CEF0008C420ED91EEB010100F1FF382CBF4FF020
:10CF000001094FF000098C4202D9B9F1000F2CD071
:10CF10004046091B92B2B1FBF7F407FB141142EA39
:10CF2000014204FB06F1914207D91EEB020204F113
:10CF3000FF3801D2914215D84446521A44EA0041C2
:10CF400021E7861A64EB030301200EE7023C7244DA
:10CF500035E702397244D0E6F4440238E3E6F4449B
:10CF6000023842E7023C7244E7E702387144D0E7F6
:10CF7000023B3C4482E702383C446AE7704700BF0A
:10CF800080B582B000AF0023FB7117E00023BB71B6
:10CF900008E0BA79FB791146184600F01DF8BB7914
:10CFA0000133BB71BB79032BF3D90A4B1B78002BE0
:10CFB00001D001F0E9FFFB790133FB71FB79022B12
:10CFC000E4D9044B01221A70002318460837BD46E5
:10CFD00080BD00BF0C030020B0B592B000AF034687
:10CFE0000A46FB711346BB710023FB6007F1100377
:10CFF00000221A605A609A60DA601A615A611A83D4
:10D000000023FB724FF000033B6300237B6400238B
:10D01000A7F842304FF00003FB62944B40221A7095
:10D02000924B11225A70914B0C229A708F4B002216
:10D03000DA708E4B76221A718C4BEA225A718B4B26
:10D040001E229A71894B8222DA71884B87221A72CA
:10D05000864BFB225A72854B00229A72834B102218
:10D06000DA72824B00221A73804B00225A737F4B74
:10D0700000229A737D4B0022DA737C4B00221A74D3
:10D080007A4B40225A74794B00229A74774B0022D3
:10D09000DA74764B00221A75744B00229A74BB79AD
:10D0A000032B27D801A252F823F000BFBDD00008FF
:10D0B000CBD00008D9D00008E7D000086B4B432242
:10D0C0001A716A4BF5225A7214E0684B10221A71D9
:10D0D000664BF2225A720DE0644B9A221A71634B2E
:10D0E000F8225A7206E0614B76221A715F4BFB22DE
:10D0F0005A7200BFFB79022B00F0EC83022B00F385
:10D10000B185002B04D0012B00F0E88100F0AABD0E
:10D1100000224021564804F0EDFD00224FF48061CA
:10D12000534804F0E7FD00220421524804F0E2FDD8
:10D13000012204214F4804F0DDFD002240214C482B
:10D1400004F0D8FD4FF0FF33132248494A480BF052
:10D1500075FE012004F00AFA01224021444804F03F
:10D16000C9FD01224FF48061414804F0C3FD012054
:10D1700004F0FCF9002240213D4804F0BBFD3B4B8C
:10D1800019221A704FF0FF33012238493A480BF048
:10D1900055FE01224021364804F0ACFD374B1B6898
:10D1A000184604F0E3F900224021314804F0A2FDC2
:10D1B0002E4B13221A700023FB6370E04FF6FF73AF
:10D1C00001222A492C480BF039FE012004F0CEF947
:10D1D000FB6B5B002A4A99184FF6FF730222264820
:10D1E0000CF042F8012004F0C1F9254AFB6B32F83B
:10D1F00013301B0A9BB21AB22149FB6B31F8133072
:10D200001B021BB213431BB299B21D4AFB6B22F8DF
:10D210001310FB6B002B37DD194AFB6B32F8133010
:10D220001946FB6B013B164A32F81330CB1A012B1F
:10D230000CDDFB6B013B124A32F813301946104AE1
:10D24000FB6B32F81330CB1A012B08DC0C4AFB6B5A
:10D2500032F813301A467B6C13447B641CE0094B94
:10D260001B780133DAB2074B1A7015E0AC020020CC
:10D270000014024200080242405800200000002032
:10D28000D00200200D030020C54AFB6B32F813309A
:10D290001A467B6C13447B64FB6B0133FB63FB6BB3
:10D2A000092B8BDDBF4B1B78052B01D900237B6439
:10D2B000BC4B00221A7001224021BB4804F01AFD29
:10D2C000786CFFF72FF94FF00002B84BFFF7CEFA5A
:10D2D00002460B4610461946FFF776FC0346FB62F2
:10D2E0007B6CB34AA2FB0323DB08A7F84230D7EDDF
:10D2F0000B7A9FEDB07A67EE877AF1EE006A87EEDF
:10D30000A67ADFEDAD6AC7EE267AC7ED0C7A9FEDFF
:10D31000AB7AD7ED0C7AF4EEC77AF1EE10FA50DB67
:10D32000DFEDA77AF1EE677A17EE903A1846FFF72D
:10D330001BF904460D469FEDA27ADFEDA17A27EE98
:10D34000277ADFEDA06AF1EE007A66EEA76ADFEDDC
:10D350009B5A97ED0C6AC6EE257AB7EE006A76EE18
:10D36000677A66EEA77A77EE677A17EE900AFFF78C
:10D37000FBF802460B4643EC102B11F099FD53ECE1
:10D38000102B20462946FEF791FF02460B46144615
:10D390001D46DFED8C7A77EEA77A17EE900AFFF73D
:10D3A000E3F802460B4620462946FFF75FFA02469D
:10D3B0000B4610461946FFF707FC0346824A1360E6
:10D3C00017E09FED7E7AD7ED0C7A77EEC77A17EEED
:10D3D000900AFFF7C9F870A3D3E90023FFF746FAD4
:10D3E00002460B4610461946FFF7EEFB0346764A07
:10D3F0001360FA7C754B5B7A9A420ED101224FF48E
:10D400000061734804F076FC012004F0AFF80022BC
:10D410004FF400616E4804F06DFC00224021624828
:10D4200004F068FC694B21221A70684B00225A7084
:10D430004FF6FF730222654966480BF0FFFC07F1C7
:10D440000B014FF6FF73012262480BF00DFF012222
:10D450004021554804F04EFCFB7A184600F028FCA9
:10D460000346002B0ED00023FB72574B4FF00002F7
:10D470001A600023A7F842301422002148480FF018
:10D480001EFC15E0B7F84230184600F0F9FB0346E1
:10D49000002B0DD00023FB724B4B4FF000021A60A3
:10D4A0000023A7F84230142200213D480FF007FC6A
:10D4B0000023FB72F979BB79434A12684648890018
:10D4C0000B449B0003441A60FA79BB7943499200EC
:10D4D0001344B7F8422021F81320C3E300224FF48D
:10D4E00000613F4804F006FC002240213D4804F062
:10D4F00001FC00224FF480713A4804F0FBFB01224A
:10D500004FF48071374804F0F5FB00224FF40061BE
:10D51000334804F0EFFB4FF0FF3313222B4932481E
:10D520000BF08CFC012004F021F801224FF4006183
:10D530002B4804F0DFFB012240212A4804F0DAFBEB
:10D54000012004F013F800224FF40061244804F095
:10D55000D1FB1E4B19221A704FF0FF3301221B49D9
:10D5600021480BF06BFC01224FF400611C4804F0D1
:10D57000C1FB1E4B1B68184603F0F8FF00224FF456
:10D580000061174804F0B6FB104B13221A700023F9
:10D59000BB6363E0AFF30080A4703D0AD7A3D83F1C
:10D5A000D00200200D03002000140242000024409D
:10D5B000CDCCCCCC0000FA4400FF7F470000C8422D
:10D5C0003211803B7F051BB5CC020020AC0200204D
:10D5D00000100242405800201003002040030020A9
:10D5E00000040242001802422057002000000020E0
:10D5F0004FF6FF730122A849A8480BF01FFC012039
:10D6000003F0B4FFBB6B5B00A54A99184FF6FF739C
:10D610000222A2480BF028FE012003F0A7FFA04A37
:10D62000BB6B32F813301B0A9BB21AB29C49BB6B1E
:10D6300031F813301B021BB213431BB299B2984A44
:10D64000BB6B22F81310964ABB6B32F813301A46A4
:10D650007B6C13447B64BB6B0133BB63BB6B092BDB
:10D66000C6DD7B6C8F4AA2FB0323DB08A7F84230A0
:10D67000786CFEF757FF4FF000028B4BFFF7F6F880
:10D6800002460B4610461946FFF79EFA0346FB6218
:10D6900001224FF40061854804F02CFBD7ED0B7A92
:10D6A0009FED837A67EE877AF1EE006A87EEA67ABD
:10D6B000DFED806AC7EE267AC7ED0C7A9FED7E7AA1
:10D6C000D7ED0C7AF4EEC77AF1EE10FA50DBDFED0D
:10D6D0007B7AF1EE677A17EE903A1846FEF744FF30
:10D6E00004460D469FED757ADFED747A27EE277AB2
:10D6F000DFED736AF1EE007A66EEA76ADFED6E5A2F
:10D7000097ED0C6AC6EE257AB7EE006A76EE677A78
:10D7100066EEA77A77EE677A17EE900AFEF724FF97
:10D7200002460B4643EC102B11F0C2FB53EC102BBE
:10D7300020462946FEF7BAFD02460B4614461D4612
:10D74000DFED5F7A77EEA77A17EE900AFEF70CFF0F
:10D7500002460B4620462946FFF788F802460B464C
:10D7600010461946FFF730FA0346564A136017E091
:10D770009FED517AD7ED0C7A77EEC77A17EE900AC3
:10D78000FEF7F2FE42A3D3E90023FFF76FF802464B
:10D790000B4610461946FFF717FA0346494A13602D
:10D7A000FA7C3D4B5B7A9A420ED101224FF48051B4
:10D7B000454804F09FFA012003F0D8FE00224FF400
:10D7C0008051414804F096FA00224FF40061374836
:10D7D00004F090FA304B21221A702F4B00225A701D
:10D7E0004FF6FF7302222C492C480BF027FB07F160
:10D7F0000B014FF6FF73012228480BF035FD012283
:10D800004FF40061294804F075FAFB7A184600F0DD
:10D810004FFA0346002B0ED00023FB72294B4FF02A
:10D8200000021A600023A7F84230142200211C488D
:10D830000FF045FA15E0B7F84230184600F020FA2C
:10D840000346002B0DD00023FB721E4B4FF000024D
:10D850001A600023A7F842301422002110480FF06C
:10D860002EFA0023FB72F979BB79164A1268174821
:10D8700089000B449B0003441A60FA79BB79144970
:10D8800092001344B7F8422021F81320EAE100BFC8
:10D89000A4703D0AD7A3D83FAC0200202057002037
:10D8A000E4020020CDCCCCCC000024400004024295
:10D8B0000000FA4400FF7F470000C8423211803B5D
:10D8C0007F051BB5CC02002000100242100300208F
:10D8D0004003002000221021BD4804F00BFA002272
:10D8E0004FF48061BB4804F005FA00224FF48051E8
:10D8F000B84804F0FFF901224FF48051B54804F014
:10D90000F9F900221021B24804F0F4F94FF0FF3386
:10D910001322B149B1480BF091FA012003F026FE21
:10D9200001221021AA4804F0E5F901224FF4806198
:10D93000A84804F0DFF9012003F018FE00221021AE
:10D94000A34804F0D7F9A44B19221A704FF0FF3303
:10D950000122A149A1480BF071FA012210219C4833
:10D9600004F0C8F99E4B1B68184603F0FFFD002227
:10D970001021974804F0BEF9974B13221A70002328
:10D980007B6335E04FF6FF730122934993480BF018
:10D9900055FA012003F0EAFD7B6B5B00914A991870
:10D9A0004FF6FF7302228D480BF05EFC012003F05E
:10D9B000DDFD8C4A7B6B32F813301B0A9BB21AB226
:10D9C00088497B6B31F813301B021BB213431BB227
:10D9D00099B2844A7B6B22F81310824A7B6B32F82F
:10D9E00013301A467B6C13447B647B6B01337B637F
:10D9F0007B6B092BC6DD7B6C7B4AA2FB0323DB0818
:10DA0000A7F84230786CFEF78DFD4FF00002774B9F
:10DA1000FEF72CFF02460B4610461946FFF7D4F8D6
:10DA20000346FB6201221021694804F063F9D7ED37
:10DA30000B7A9FED6F7A67EE877AF1EE006A87EED8
:10DA4000A67ADFED6C6AC7EE267AC7ED0C7A9FEDF9
:10DA50006A7AD7ED0C7AF4EEC77AF1EE10FA50DB61
:10DA6000DFED667AF1EE677A17EE903A1846FEF728
:10DA70007BFD04460D469FED617ADFED607A27EE6F
:10DA8000277ADFED5F6AF1EE007A66EEA76ADFEDD6
:10DA90005A5A97ED0C6AC6EE257AB7EE006A76EE12
:10DAA000677A66EEA77A77EE677A17EE900AFEF746
:10DAB0005BFD02460B4643EC102B11F0F9F953ECD9
:10DAC000102B20462946FEF7F1FB02460B46144672
:10DAD0001D46DFED4B7A77EEA77A17EE900AFEF738
:10DAE00043FD02460B4620462946FEF7BFFE02468E
:10DAF0000B4610461946FFF767F80346414A136084
:10DB000017E09FED3D7AD7ED0C7A77EEC77A17EEE6
:10DB1000900AFEF729FD2CA3D3E90023FEF7A6FE09
:10DB200002460B4610461946FFF74EF80346354AA3
:10DB30001360FA7C284B5B7A9A420ED101224FF493
:10DB40000051314804F0D6F8012003F00FFD002207
:10DB50004FF400512C4804F0CDF8002210211C484D
:10DB600004F0C8F81C4B21221A701B4B00225A707B
:10DB70004FF6FF730222184918480BF05FF907F1BE
:10DB80000B014FF6FF73012214480BF06DFB0122CD
:10DB900010210F4804F0AEF8FB7A184600F088F820
:10DBA0000346002B32D00023FB72164B4FF00002CD
:10DBB0001A600023A7F842301422002109480FF010
:10DBC0007EF839E0AFF30080A4703D0AD7A3D83FB8
:10DBD000000C024200000242AC020020B0570020BC
:10DBE00000000020F8020020CDCCCCCC0000244066
:10DBF0000000FA4400FF7F470000C8423211803B1A
:10DC00007F051BB5CC02002000100242B7F842305D
:10DC1000184600F035F80346002B0DD00023FB72A8
:10DC2000134B4FF000021A600023A7F84230142271
:10DC3000002110480FF043F80023FB72F979BB79FB
:10DC40000B4A12680C4889000B449B0003441A607D
:10DC5000FA79BB79094992001344B7F8422021F8B8
:10DC6000132000BF002318464837BD46B0BD00BF93
:10DC7000CC020020F8020020100300204003002006
:10DC800080B483B000AF0346FB80FB8842F2D632FB
:10DC9000934204D9FB8846F26662934201D901237C
:10DCA00000E0002318460C37BD465DF8047B704742
:10DCB00080B485B000AF0346FB710023FB731B4BA0
:10DCC000DB79C22B02D10123FB7308E0174BDB7910
:10DCD000822B02D10223FB7301E00023FB73FB7B49
:10DCE000012B02D0022B0AD013E0FB79012B01D1CA
:10DCF000012314E0FB79002B0DD100230FE0FB7909
:10DD0000032B01D101230AE0FB79022B05D100236B
:10DD100005E0002303E000BF00E000BF0023184639
:10DD20001437BD465DF8047B704700BFAC0200208D
:10DD3000B0B588B004AF4FF40061A34803F0F2FF20
:10DD4000C82003F013FCA14B1B78002B00F0868643
:10DD50009E4B00221A709E4B1B6819469D480EF080
:10DD6000B6FF0346002B03D09B4B01221A70E6E15D
:10DD70009A4B1B68194697480EF0A9FF0346002BE3
:10DD800003D0954B02221A70D9E1954B1B681946B6
:10DD900090480EF09CFF0346002B03D08E4B0322CD
:10DDA0001A70CCE18F4B1B6819468A480EF08FFF22
:10DDB0000346002B03D0884B04221A70BFE18A4B24
:10DDC0001B68194683480EF082FF0346002B03D0E0
:10DDD000814B05221A70B2E1844B1B6819467D48BD
:10DDE0000EF075FF0346002B03D07B4B06221A7002
:10DDF000A5E17F4B1B68194676480EF068FF034685
:10DE0000002B03D0744B07221A7098E1794B1B68E2
:10DE1000194670480EF05BFF0346002B03D06E4B93
:10DE200008221A708BE1744B1B68194669480EF082
:10DE30004EFF0346002B03D0674B09221A707EE188
:10DE40006E4B1B68194663480EF041FF0346002BDA
:10DE500003D0614B0A221A7071E1694B1B681946A5
:10DE60005C480EF034FF0346002B03D05A4B0B22C4
:10DE70001A7064E1634B1B68194656480EF027FF81
:10DE80000346002B03D0544B0C221A7057E15E4B13
:10DE90001B6819464F480EF01AFF0346002B03D0AB
:10DEA0004D4B0D221A704AE1584B1B6819464948E0
:10DEB0000EF00DFF0346002B03D0474B0E221A70C5
:10DEC0003DE1534B1B68194642480EF000FF0346E4
:10DED000002B03D0404B0F221A7030E14D4B1B68D2
:10DEE00019463C480EF0F3FE0346002B03D03A4B94
:10DEF00010221A7023E1484B1B68194635480EF072
:10DF0000E6FE0346002B03D0334B11221A7016E1B4
:10DF1000424B1B6819462F480EF0D9FE0346002BD2
:10DF200003D02D4B12221A7009E13D4B1B68194694
:10DF300028480EF0CCFE0346002B03D0264B1322BC
:10DF40001A70FCE0374B1B68194622480EF0BFFEE2
:10DF50000346002B03D0204B14221A70EFE0324B03
:10DF60001B6819461B480EF0B2FE0346002B03D077
:10DF7000194B15221A70E2E02C4B1B681946154804
:10DF80000EF0A5FE0346002B03D0134B16221A7089
:10DF9000D5E0274B1B6819460E480EF098FE034645
:10DFA000002B03D00C4B17221A70C8E0214B1B68C2
:10DFB000194608480EF08BFE0346002B3CD0064B5A
:10DFC00018221A70BBE000BF001002426D0300204F
:10DFD00004000020580300206E03002008000020E9
:10DFE0000C00002010000020140000201800002069
:10DFF0001C00002020000020240000202800002019
:10E000002C000020300000203400002038000020C8
:10E010003C00002040000020440000204800002078
:10E020004C00002050000020540000205800002028
:10E030005C00002060000020B54B1B681946B54805
:10E040000EF045FE0346002B1AD00421B24803F01F
:10E0500039FE0346012B03D1B04B19221A706EE032
:10E06000AF4B1B680F221946AE480BF06DFD6422C2
:10E070000021AD480EF023FE642003F077FA5EE045
:10E08000AA4B1B681946A3480EF021FE0346002B3D
:10E090000DD0A048FEF7FCF80346043B1A46A449FD
:10E0A000A4480EF0B0FE9D4B1A221A7047E0A24B16
:10E0B0001B68194697480EF00AFE0346002B0DD048
:10E0C0009448FEF7E5F80346043B1A4698499948F8
:10E0D0000EF099FE914B1B221A7030E0974B1B6893
:10E0E00019468C480EF0F3FD0346002B0DD08948ED
:10E0F000FEF7CEF80346043B1A468D498D480EF0D4
:10E1000082FE864B1C221A7019E08D4B1B68194643
:10E1100080480EF0DCFD0346002B0DD07D48FEF755
:10E12000B7F80346043B1A46814982480EF06BFE5D
:10E130007A4B1D221A7002E0784B00221A701422CA
:10E14000002174480EF0BBFD744B1B78013B1C2B67
:10E1500000F2808401A252F823F000BFD1E1000850
:10E160001BE2000863E200089DE20008D7E2000815
:10E1700051E300088BE30008C5E300080DE4000844
:10E1800055E40008A1E40008EDE4000839E50008C2
:10E1900085E50008D1E5000849E6000895E6000895
:10E1A000E1E6000821E700086DE70008B9E700088C
:10E1B00005E800088FE8000897E80008A3E80008D1
:10E1C00063E900088FE90008D5E9000815EA0008AE
:10E1D000524B00221A706422002153480EF06FFD4A
:10E1E0002021584803F06EFD03461A4656494E4812
:10E1F0000EF002FD4C48FEF74BF803469BB21A4660
:10E20000494948480BF0A0FC20214E4803F08AFD04
:10E21000052003F0ABF900F021BC404B00221A703E
:10E220006422002140480EF04AFD4021454803F099
:10E2300049FD03461A4644493B480EF0DDFC3A4886
:10E24000FEF726F803469BB21A46374935480BF0CD
:10E250007BFC40213B4803F065FD052003F086F977
:10E26000FCE32E4B00221A70642200212E480EF08F
:10E2700026FD0421284803F025FD03461A463249AD
:10E2800029480EF0B9FC2848FEF702F803469BB275
:10E290001A46254923480BF057FCDFE31F4B0022A9
:10E2A0001A706422002120480EF009FD08211A4846
:10E2B00003F008FD03461A4623491B480EF09CFC58
:10E2C0001948FDF7E5FF03469BB21A461649154863
:10E2D0000BF03AFCC2E3114B00221A7064220021B9
:10E2E00011480EF0ECFC1021184803F0EBFC03463B
:10E2F0001A4615490C480EF07FFC0B48FDF7C8FF85
:10E3000003469BB21A46084906480BF01DFCA5E3DC
:10E310006400002058030020000C02426E0300201D
:10E320007800002064590020840300206800002049
:10E330005B030020700300206C00002070000020B0
:10E34000740000200000024298F10108001002420F
:10E35000B24B00221A7064220021B1480EF0AFFCCB
:10E360002021B04803F0AEFC03461A46AE49AC4843
:10E370000EF042FCAA48FDF78BFF03469BB21A46FB
:10E38000A749AA480BF0E0FB68E3A44B00221A70EF
:10E3900064220021A2480EF092FC4021A14803F023
:10E3A00091FC03461A46A0499D480EF025FC9C4866
:10E3B000FDF76EFF03469BB21A4699499B480BF046
:10E3C000C3FB4BE3954B00221A7064220021944852
:10E3D0000EF075FC0121964803F074FC03461A46C2
:10E3E00091498F480EF008FC8D48FDF751FF034618
:10E3F0009BB21A468A498D480BF0A6FB01218C4836
:10E4000003F090FC052003F0B1F827E3834B0022D2
:10E410001A706422002182480EF051FC02218448C7
:10E4200003F050FC03461A467F497D480EF0E4FB9A
:10E430007B48FDF72DFF03469BB21A4678497B487F
:10E440000BF082FB02217A4803F06CFC052003F0FC
:10E450008DF803E3714B00221A7000210020FEF7B3
:10E46000BBFD322003F082F8724B1B881C46724BB6
:10E470001B681846FEF778F802460B46CDE90223E2
:10E480000094012301226D4965480EF0B5FB64221A
:10E49000634966480BF058FB322003F067F8DDE271
:10E4A0005E4B00221A7001210020FEF795FD3220FC
:10E4B00003F05CF85F4B5B881C465F4B5B6818465B
:10E4C000FEF752F802460B46CDE9022300940223E0
:10E4D00001225A4952480EF08FFB6422504953489A
:10E4E0000BF032FB322003F041F8B7E24B4B002235
:10E4F0001A7002210020FEF76FFD322003F036F87B
:10E500004C4B9B881C464C4B9B681846FEF72CF8DE
:10E5100002460B46CDE9022300940323012247491A
:10E520003F480EF069FB64223D4940480BF00CFB6C
:10E53000322003F01BF891E2384B00221A700321BD
:10E540000020FEF749FD322003F010F8394BDB883C
:10E550001C46394BDB681846FEF706F802460B46A8
:10E56000CDE9022300940423012235492C480EF002
:10E5700043FB64222A492D480BF0E6FA322002F0D0
:10E58000F5FF6BE2254B00221A7000210120FEF7F7
:10E5900023FD322002F0EAFF264B1B891C46264B46
:10E5A0001B691846FDF7E0FF02460B46CDE9022342
:10E5B000009401230222234919480EF01DFB642216
:10E5C00017491A480BF0C0FA322002F0CFFF45E29B
:10E5D000124B00221A7001210120FEF7FDFC3220AF
:10E5E00002F0C4FF134B5B891C46134B5B69184652
:10E5F000FDF7BAFF02460B46CDE902230094022341
:10E6000002220E4906480EF0F7FA64220449074830
:10E610000BF09AFA322002F0A9FF1FE26E030020ED
:10E62000840300200010024298F101086459002080
:10E63000000402424003002010030020A8F101085A
:10E64000D0F10108F8F101089E4B00221A70022156
:10E650000120FEF7C1FC322002F088FF9A4B9B8913
:10E660001C469A4B9B691846FDF77EFF02460B46F7
:10E67000CDE90223009403230222954995480EF028
:10E68000BBFA6422934994480BF05EFA322002F000
:10E690006DFFE3E18B4B00221A7003210120FEF78E
:10E6A0009BFC322002F062FF874BDB891C46874BC4
:10E6B000DB691846FDF758FF02460B46CDE90223F9
:10E6C000009404230222854982480EF095FA6422C0
:10E6D000804981480BF038FA322002F047FFBDE153
:10E6E000784B00221A7000210220FEF775FC764B51
:10E6F0001B8A1C46754B1B6A1846FDF735FF024600
:10E700000B46CDE90223009401230322744971488A
:10E710000EF072FA64226F496F480BF015FA9DE112
:10E72000684B00221A7001210220FEF755FC3220AE
:10E7300002F01CFF644B5B8A1C46644B5B6A184604
:10E74000FDF712FF02460B46CDE902230094022397
:10E75000032262495F480EF04FFA64225D495E4829
:10E760000BF0F2F9322002F001FF77E1554B002265
:10E770001A7002210220FEF72FFC322002F0F6FE72
:10E78000514B9B8A1C46514B9B6A1846FDF7ECFE89
:10E7900002460B46CDE902230094032303224C4991
:10E7A0004C480EF029FA64224A494B480BF0CCF948
:10E7B000322002F0DBFE51E1424B00221A700321AD
:10E7C0000220FEF709FC322002F0D0FE3E4BDB8A2D
:10E7D0001C463E4BDB6A1846FDF7C6FE02460B465A
:10E7E000CDE90223009404230322394939480EF06D
:10E7F00003FA6422374938480BF0A6F9322002F0B8
:10E80000B5FE2BE12F4B00221A7000233B60002342
:10E810007B60344BBB60642200212E480EF04FFA1F
:10E82000642002F0A3FEB9683A4607232E480AF096
:10E83000FFFFBB79002B1AD0BB781C467B781D46A6
:10E840003B783A797979B8790390029101920093F3
:10E850002B46224625491F480EF0CEF964221D4959
:10E860001D480BF071F9642002F080FEF6E0204BA9
:10E8700001221A701F4B54221A701E4B32225A70FA
:10E880001C4B32229A701B4B4522DA70E6E00D4B8E
:10E8900000221A70E2E00B4B00221A7000F022FBFB
:10E8A000DCE0084B00221A700023FB81124B00228F
:10E8B0001A80114B00229A800F4B00225A800023AD
:10E8C000FB8132E06E030020400300201003002093
:10E8D000A8F101088403002064590020D0F1010848
:10E8E00024F20108F9FF0760205B00204CF20108C8
:10E8F0006D03002058030020E8030020594AFB89DB
:10E9000093805849584804F09BF80346002B09D0DF
:10E91000564B1B681422194655480BF015F9642014
:10E9200002F024FEFB890133FB81FB8940F6FE7275
:10E930009342E3D94F4B1B681A2219464C480BF0FF
:10E9400003F9642002F012FE4B4B00221A704B4B6D
:10E9500000221A8000F084FD00F0A8FD00F0FCFD0C
:10E960007CE0474B00221A704648FDF791FC0346B5
:10E970009BB21A4643493E480BF0E6F8642002F089
:10E98000F5FD142200213F480EF099F966E03C4B5A
:10E9900000221A70012201213B4803F0ABF901204B
:10E9A00002F0E4FD3748FDF773FC03469BB21A46BC
:10E9B000344936480BF0C8F8642002F0D7FD142221
:10E9C000002130480EF07BF9002201212E4803F08F
:10E9D00091F943E02A4B00221A70012202212A48B1
:10E9E00003F088F92748FDF753FC03469BB21A460B
:10E9F000244927480BF0A8F8642002F0B7FD142240
:10EA0000002120480EF05BF9002202211E4803F08D
:10EA100071F923E01A4B00221A70012204211A48CE
:10EA200003F068F91748FDF733FC03469BB21A461A
:10EA3000144918480BF088F8642002F097FD14225E
:10EA4000002110480EF03BF9002204210E4803F08B
:10EA500051F903E00A4B00221A7000BF00BF1037C3
:10EA6000BD46B0BDE8030020785B00208000002098
:10EA7000645900207C000020B5550020B8550020C6
:10EA80006E0300207003002000000242F8590020AD
:10EA90008C5A0020D058002080B5ADF5005D82B0C2
:10EAA00000AF4FF40041454803F03CF9444B1B884C
:10EAB0007F2B0BD900F082F9414B00221A8040498C
:10EAC000404803F0BDFF642002F050FD4FF40052B7
:10EAD00000213D480EF0F3F84FF4005200213B486E
:10EAE0000EF0EDF807F108031A46002342F8043C43
:10EAF000104641F6FC731A4600210EF0E0F8334848
:10EB000000F02EFC4FF40052002130480EF0D7F8F0
:10EB10002E4800F025FC2E4B1B68194607F1080211
:10EB2000043A4FF400532B480AF0DCFE0123274A35
:10EB30002349244803F050FB0123234A204921485C
:10EB400003F0F0F94FF400521F49204800F0CBF8D1
:10EB5000034607F5005202F10602138007F5005341
:10EB600003F106031B88312B13D8154B1B88002B90
:10EB700008D1134B1888124B9988114B5A880123DE
:10EB800000F05CF80E4B1B8801339AB20C4B1A80D4
:10EB900007E0114B00221A8000F0CEF80E4B002245
:10EBA0001A800E4B01221A7000F046FC00F058FC4F
:10EBB00000BF07F500570837BD4680BD0010024270
:10EBC000E8030020785B0020F4030020F4230020F9
:10EBD00088000020205B0020B6550020B45500209E
:10EBE00080B582B000AF0023FB8016E00F4AFB889F
:10EBF000938001230E4A0D490E4803F045FC0C4B4F
:10EC00001B78FF2B0CBF01230023DAB2FB881146CF
:10EC1000094AD154FB880133FB80FB88B3F5805F40
:10EC2000E4D300BF00BF0837BD4680BDE803002025
:10EC3000F4430020785B0020B445002090B585B0F7
:10EC400000AF0446084611461A462346FB80034699
:10EC5000BB800B467B8013467B7000233B81BB88C7
:10EC60007B817B88BB8107F1080101230D4A0E4897
:10EC700003F00AFC7B78002B01D0FF2200E0002289
:10EC8000084B1A70BB8809497A78CA5407F1080101
:10EC90000123044A044803F062FD00BF1437BD4657
:10ECA00090BD00BFF4430020785B0020B4450020F5
:10ECB00080B485B000AF0346FB710023FB6008E021
:10ECC000FB7903F00103FA681344FB60FB795B08EE
:10ECD000FB71FB79002BF3D1FB6818461437BD4656
:10ECE0005DF8047B704780B586B000AFF860B9600E
:10ECF0007A6000237B6100233B6113E0FA683B6983
:10ED000013441A78B9683B690B441B785340DBB253
:10ED10001846FFF7CDFF02467B6913447B613B69D0
:10ED200001333B613A697B689A42E7D37B691846B5
:10ED30001837BD4680BD000080B500AF1A4B0022D9
:10ED40001A801949194803F07BFE642002F00EFC7A
:10ED5000174B1B885A1C91B2154A118040F6FE725F
:10ED600093421FD80123134A0F49104803F034FA85
:10ED70000123114A0C490D4803F0D4F80A4B1888B6
:10ED8000094B9988084B5A880023FFF757FF064B19
:10ED900000221A8000F012F8FFF7CEFF0A2002F0DE
:10EDA000E5FB00E000BF80BDE8030020785B0020A9
:10EDB000B6550020F4230020F403002080B400AFF7
:10EDC00010E01A4B9B8801339AB2184B9A80174B6C
:10EDD0009B88B3F5805F05D3144B00229A80144BB7
:10EDE00001221A70114B9B8840F6FE72934206D89E
:10EDF0000E4B9B8801330F4AD35C002BE1D00B4BA9
:10EE00009B8801339AB2094B9A80084B9B88B3F5D3
:10EE1000805F05D3054B00229A80054B01221A70B2
:10EE200000BFBD465DF8047B704700BFE8030020CB
:10EE3000B5550020B445002080B586B000AF03462C
:10EE40000A46FB801346BB80FB887B6135E00023CC
:10EE50003B612CE07B699BB2BB813B699BB23B81F0
:10EE600000237B811A4B9B881A467B69934205D10C
:10EE7000174B1B881A463B69934223DA154B5B7884
:10EE80002A2B21D007F108010123134A134803F06C
:10EE900049F84FF0FF334FF400520F4910480AF081
:10EEA000B5FD012002F062FB3B6901333B613B6928
:10EEB0007F2BCFDD7B6901337B61BB887A699A4206
:10EEC000C5DD02E000BF00E000BF1837BD4680BDD1
:10EED000E8030020F0030020F4030020785B00200A
:10EEE0006459002080B582B000AF244B5B782A2B98
:10EEF00006D10322002121480DF0E1FE002338E075
:10EF00001F4B1B78002B2DD01E4B9B8840F2762286
:10EF1000934210D91B4B9B88A3F276237B60194B3D
:10EF20009B883B607B689BB23A6892B21146184658
:10EF3000FFF782FF1CE0134B9B8803F689537B602D
:10EF400040F6FF733B607B689BB23A6892B2114611
:10EF50001846FFF771FF0B4B9B8819460020FFF7FF
:10EF60006BFF05E0074B9B8819460020FFF764FF05
:10EF7000002318460837BD4680BD00BFF0030020BF
:10EF8000B5550020E80300202DE9F04FD7B034AF8D
:10EF90000023C7F880300023C7F88430A64B1B68D5
:10EFA000194607F180020723A4480AF041FCA44B4C
:10EFB0001B6819460123A34AA0480AF093FC97F85E
:10EFC0008020A14B1B789A4200F0A58101224FF4CA
:10EFD00080419E4802F08EFE012002F0C7FA002216
:10EFE0004FF48041994802F085FE4FF4AF72002142
:10EFF00097480DF064FE974B40221A70964B1B68A1
:10F000001846FDF7B1FAC7E91E01944B1B887B67D0
:10F01000914B5B681846FDF7A7FAC7E91A018F4BB9
:10F020005B883B678C4B9B681846FDF79DFAC7E9E8
:10F0300018018A4B9B88FB65874BDB681846FDF7F8
:10F0400093FAC7E91401854BDB88BB65824B1B69CA
:10F050001846FDF789FAC7E91201804B1B897B64CA
:10F060007D4B5B691846FDF77FFAC7E90E017B4BC4
:10F070005B893B64784B9B691846FDF775FAC7E9D5
:10F080000C01764B9B89FB62734BDB691846FDF7DD
:10F090006BFAC7E90801714BDB89BB626E4B1B6AD7
:10F0A0001846FDF761FAC7E906016C4B1B8A7B61C4
:10F0B000694B5B6A1846FDF757FA82468B46674BE9
:10F0C0005B8A3B61644B9B6A1846FDF74DFA8046AC
:10F0D0008946624B9B8AFB605F4BDB6A1846FDF7F3
:10F0E00043FA04460D465D4BDB8ABB6097F88230DD
:10F0F0007B6097F881301E4697F88030184697F865
:10F100008430194697F885301A4697F8863032933E
:10F11000319230912F902E9679682D91B9682C916B
:10F12000CDE92A45F9682891CDE9268939692491E4
:10F13000CDE922AB7969209197ED067B8DED1E7BA1
:10F14000B96A1C9197ED087B8DED1A7BF96A1891CD
:10F1500097ED0C7B8DED167B396C149197ED0E7B42
:10F160008DED127B796C109197ED127B8DED0E7BFE
:10F17000B96D0C9197ED147B8DED0A7BF96D0891BB
:10F1800097ED187B8DED067B396F049197ED1A7B17
:10F190008DED027B7B6F0093D7E91E2330492C480D
:10F1A0000DF02AFD03469AB22A4BA3F86221294B9F
:10F1B000B3F86231033B274A134424225A70294B87
:10F1C0001B681946234BB3F862310133214A1B48AF
:10F1D0000AF088FB1F4BB3F862311A46214B1B68BB
:10F1E000134401331F4A13601A4BB3F862211E4BBC
:10F1F0001B8813449BB201339AB21B4B1A80012225
:10F2000002211A4802F076FD01220421174802F07B
:10F2100071FD01220121154802F06CFD022002F06F
:10F22000A5F90C4BB3F8623101339BB21A46094978
:10F230000F480AF089FC1DE098000020205B0020A8
:10F240009C000020A0000020BA55002000100242BF
:10F25000BD550020BC5500201003002040030020B5
:10F2600078F2010884000020B85500200000024216
:10F27000F85900202F4BB3F8623101339BB21A4684
:10F280002C492D480AF060FC2A4BB3F86231013357
:10F290009BB21A46274929480AF056FC254BB3F879
:10F2A000623101339BB21A46224925480AF04CFCD0
:10F2B000642002F05BF900220121224802F01AFDCD
:10F2C000002202211F4802F015FD002204211D48E2
:10F2D00002F010FD1C4B1B881A46164BB3F8623126
:10F2E00001331344B3F5005F0FDD184B1B68184A58
:10F2F00013604FF4AF72002116480DF0E0FC0D4B87
:10F300000022A3F86221FFF7C7FB00F0CFF897F8BF
:10F310008020114B1A70114B1B78002B04D00F4B1F
:10F3200000221A7000F02AF9002318468C37BD46D7
:10F33000BDE8F08FBC5500208C5A0020D05800202A
:10F340006459002000000242B855002088000020C7
:10F3500084000020BD550020BA550020DE5B00204F
:10F3600080B5ADF5005D82B000AF07F1080343F84A
:10F37000040C07F1080300221A60043341F6FC7202
:10F38000002118460DF09BFC144B1B68194607F131
:10F3900008031A464FF4005352F8042C10480AF0A0
:10F3A00047FA0E4B1B68194607F108031A464FF43B
:10F3B000005352F8042C0A480AF03AFA074B1B682B
:10F3C000194607F108024FF4005305480AF08AFA7B
:10F3D00000BF07F500570837BD4680BD88000020F4
:10F3E000205B002080B500AF104B1B680833194626
:10F3F00006230F4A0F480AF01BFA0D4B1B887F2B80
:10F4000002D90B4B00221A80094B9B88B3F5805F11
:10F4100002D3074B00229A80054B5B88022B02D94E
:10F42000034B00225A800023184680BD8C00002028
:10F43000E8030020205B002080B500AF054B1B686F
:10F44000083319460623044A04480AF04BFA00BF61
:10F4500080BD00BF8C000020E8030020205B00205E
:10F4600080B500AF044B1B6819460123034A0448CA
:10F470000AF038FA00BF80BD90000020B55500208A
:10F48000205B002080B500AF054B1B6819460123A7
:10F49000044A05480AF0CCF9024B1B78184680BD97
:10F4A00090000020B5550020205B002080B500AF03
:10F4B000094B1B6819460223084A09480AF012FA48
:10F4C000084B1B78012B05D1064B00221A70034B09
:10F4D00000221A8000BF80BD94000020B855002093
:10F4E000205B0020B455002080B582B000AF00231F
:10F4F0007B60154B1B6819460223144A14480AF016
:10F5000097F9124B1B88002B04D1FFF7CFFF114B4B
:10F510001B6815E00D4B1B8841F60572934207D915
:10F520000A4B00221A80FFF7C1FF0A4B1B6807E055
:10F53000064B1B881A46074B1B6813447B607B688D
:10F5400018460837BD4680BD94000020B8550020FD
:10F55000205B00208800002080B500AF064B002211
:10F560001A80054B00229A80034B00225A80FFF735
:10F5700063FF0023184680BDE803002080B582B0F9
:10F5800000AF7B4B1B78402B40F0ED80784B1B7D10
:10F59000242B40F0E880764B5B792D2B40F0E38004
:10F5A000734B1B7A2D2B40F0DE80714BDB7A202BC6
:10F5B00040F0D9806E4B9B7B3A2B40F0D4806C4B53
:10F5C0005B7C3A2B40F0CF80694B9B79303BDBB2C0
:10F5D0001B01DAB2664BDB791344DBB2303BFB71C3
:10F5E000634BDB78303BDBB21B01DAB2604B1B793B
:10F5F0001344DBB2303BBB715D4B5B7A303BDBB21B
:10F600001B01DAB25A4B9B7A1344DBB2303B7B715D
:10F61000574BDB7B303BDBB21B01DAB2544B1B7C1C
:10F620001344DBB2303B3B71514B1B7B303BDBB2B5
:10F630001B01DAB24E4B5B7B1344DBB2303BFB70F9
:10F640004B4B9B7C303BDBB21B01DAB2484BDB7C83
:10F650001344DBB2303BBB70464B474A1A60474B02
:10F6600080221A70434B1B681946454B1B68434A5E
:10F6700044480AF037F93F4B434A1A603F4ABB7887
:10F6800013703C4B1B6819463D4B1B683B4A3D4879
:10F690000AF028F9374B3D4A1A60384A3B79137013
:10F6A000344B1B681946364B1B68344A35480AF000
:10F6B00019F9304B364A1A60304AFB7813702D4BDB
:10F6C0001B6819462E4B1B682C4A2E480AF00AF973
:10F6D000284B304A1A60294B02221A70254B1B68AE
:10F6E0001946274B1B68254A26480AF0FBF8214B90
:10F6F000294A1A60214A7B7913701E4B1B681946F0
:10F700001F4B1B681D4A1F480AF0ECF8194B234A8F
:10F710001A601A4AFB791370164B1B681946184B6E
:10F720001B68164A17480AF0DDF8124B1C4A1A608B
:10F73000124ABB7913700F4B1B681946104B1B689C
:10F740000E4A10480AF0CEF80A4B0B4A1A600B4BCF
:10F7500000221A70074B1B681946094B1B68074AA1
:10F7600008480AF0BFF800BF0837BD4680BD00BF9B
:10F77000BC5B0020B85B0020F8FF0760A100002000
:10F78000A4000020205B0020F9FF0760FAFF07605B
:10F79000FBFF0760FCFF0760FDFF0760FEFF0760DF
:10F7A000FFFF076080B5ADF5005D00AF01F020FE02
:10F7B00000F082F800F004FC00F036FB00F000F9E5
:10F7C00000F054F900F0A8F900F0FCF900F046FA56
:10F7D00000F090FA00F0DCFA00F0DEF800F0A0FD96
:10F7E0002B4B2C4A1A602C4B00221A70284B1B689A
:10F7F00019460123284A29480AF074F8284802F0DB
:10F8000057FBFFF7EDF9FFF7EDFDFFF73BFEFFF7C5
:10F810006BFE0346234A13603B4600221A60043302
:10F8200041F6FC72002118460DF049FA002204212D
:10F830001D4802F05FFA01E0FDF7A2FB10211B4812
:10F8400002F040FA0346002B12D10821184802F0BA
:10F8500039FA0346002BEFD00AE0FEF769FA154BA0
:10F860001B78002B04D0134B00221A70FFF786FE82
:10F8700010210E4802F026FA0346002BDED10821A3
:10F880000B4802F01FFA0346012BE6D0D6E700BF73
:10F89000B85B0020F8FF0760A1000020205B00207B
:10F8A000785B002084000020000002420010024229
:10F8B000000C0242DE5B002080B59CB000AF07F177
:10F8C00020035022002118460DF0F9F907F1080332
:10F8D00000221A605A609A60DA601A615A612C4BF1
:10F8E0001B692B4A43F030031361294B1B6903F05A
:10F8F00030037B607B6800BF254B5B6903F0080326
:10F90000082BF9D101233B624FF480337B62022341
:10F91000BB640323FB6404233B6550237B65022304
:10F92000BB650223FB6502233B6608237B6600233D
:10F93000BB660023FB6607F12003184603F042F97B
:10F940000346002B01D000F05EFF1F23BB600323A2
:10F95000FB6000233B6100237B610023BB6100232C
:10F96000FB6107F108030521184603F063FD034618
:10F97000002B01D000F047FF064B1B6823F030033B
:10F98000044A43F02003136000BF7037BD4680BDBA
:10F99000000802440020024080B500AF002002F0C1
:10F9A0000DFA0346002B01D000F02DFF02F026FADD
:10F9B0000346002B01D000F026FF00BF80BD0000F1
:10F9C00080B500AF274B284A1A60264B4FF48002BF
:10F9D0005A60244B00229A60224B0722DA60214BA6
:10F9E00000221A611F4B4FF080725A611D4B4FF07D
:10F9F00080629A611B4B4FF0A042DA61194B0022E2
:10FA00001A62184B00225A62164B00229A62154B5A
:10FA10000722DA62134B00225A63124B00229A63C8
:10FA2000104B0022DA630F4B00229A640D4B002228
:10FA3000DA640C4B00221A650A4B00225A65094B06
:10FA400000229A65074B0022DA65064B00221A66EF
:10FA5000044809F083F80346002B01D000F0D3FEE0
:10FA600000BF80BD205700200038004080B500AFA7
:10FA7000274B284A1A60264B4FF480025A60244BC9
:10FA800000229A60224B0722DA60214B00221A6181
:10FA90001F4B4FF080725A611D4B4FF080629A618C
:10FAA0001B4B4FF0A042DA61194B00221A62184B2F
:10FAB00000225A62164B00229A62154B0722DA6224
:10FAC000134B00225A63124B00229A63104B002200
:10FAD000DA630F4B00229A640D4B0022DA640C4B60
:10FAE00000221A650A4B00225A65094B00229A65CA
:10FAF000074B0022DA65064B00221A66044809F01B
:10FB00002DF80346002B01D000F07DFE00BF80BD24
:10FB1000B0570020003C004080B500AF274B284A7A
:10FB20001A60264B4FF480025A60244B00229A60E0
:10FB3000224B0722DA60214B00221A611F4B4FF043
:10FB400080725A611D4B4FF080629A611B4B4FF0DF
:10FB5000A042DA61194B00221A62184B00225A6245
:10FB6000164B00229A62154B0722DA62134B0022D1
:10FB70005A63124B00229A63104B0022DA630F4B38
:10FB800000229A640D4B0022DA640C4B00221A65A5
:10FB90000A4B00225A65094B00229A65074B002246
:10FBA000DA65064B00221A66044808F0D7FF0346C0
:10FBB000002B01D000F027FE00BF80BD4058002080
:10FBC0000020004480B500AF224B234A1A60214B2D
:10FBD0004FF4E1325A601F4B00229A601D4B002205
:10FBE000DA601C4B00221A611A4B0C225A61194B25
:10FBF00000229A61174B0022DA61164B00221A622A
:10FC0000144B00225A62134B00229A62114809F0E9
:10FC1000ADFE0346002B01D000F0F5FD00210D489C
:10FC20000CF049F80346002B01D000F0ECFD002158
:10FC300008480CF07EF80346002B01D000F0E3FDED
:10FC400004480BF0FFFF0346002B01D000F0DBFD62
:10FC500000BF80BDD0580020004C004080B500AFF0
:10FC6000224B234A1A60214B4FF4E1325A601F4B5A
:10FC700000229A601D4B0022DA601C4B00221A61A0
:10FC80001A4B0C225A61194B00229A61174B002221
:10FC9000DA61164B00221A62144B00225A62134B8F
:10FCA00000229A62114809F061FE0346002B01D040
:10FCB00000F0A9FD00210D480BF0FDFF0346002BCD
:10FCC00001D000F0A0FD002108480CF032F80346F6
:10FCD000002B01D000F097FD04480BF0B3FF034662
:10FCE000002B01D000F08FFD00BF80BD64590020C3
:10FCF0000050004080B500AF234B244A1A60224BCD
:10FD00004FF4E1325A60204B00229A601E4B0022D1
:10FD1000DA601D4B00221A611B4B0C225A611A4BF0
:10FD200000229A61184B0022DA61174B00221A62F6
:10FD3000154B00225A62144B00229A62124809F0B5
:10FD400015FE0346002B01D000F05DFD4FF0204171
:10FD50000D480BF0B0FF0346002B01D000F053FD1F
:10FD6000002109480BF0E5FF0346002B01D000F00D
:10FD70004AFD05480BF066FF0346002B01D000F05A
:10FD800042FD00BF80BD00BFF8590020007C00404C
:10FD900080B500AF224B234A1A60214B4FF4E13269
:10FDA0005A601F4B00229A601D4B0022DA601C4BE8
:10FDB00000221A611A4B0C225A61194B00229A61D7
:10FDC000174B0022DA61164B00221A62144B0022F4
:10FDD0005A62134B00229A62114809F0C7FD03468C
:10FDE000002B01D000F00FFD00210D480BF063FF48
:10FDF0000346002B01D000F006FD002108480BF05F
:10FE000098FF0346002B01D000F0FDFC04480BF0E6
:10FE100019FF0346002B01D000F0F5FC00BF80BDA8
:10FE20008C5A00200068004080B590B000AF07F108
:10FE300020032022002118460CF041FF07F1100397
:10FE400000221A605A609A60DA603B4600221A600B
:10FE50005A609A60DA60554B554A1A60534B554ABE
:10FE60005A60524B00229A60504B0022DA604F4B8E
:10FE700000221A614D4B00225A614C4B00229A61BC
:10FE80004A4B0022DA61494B00221A62474B4FF479
:10FE900080525A62454B00229A62444B0022DA6239
:10FEA000424B00221A63414B00225A633F4B00220F
:10FEB0009A633E4B0022DA633C4B00225A643B4B70
:10FEC00000221A64394B002283F848200F233B623A
:10FED0000F237B62FF23BB620323FB620F233B6381
:10FEE00010237B631123BB630023FB6307F1200313
:10FEF000002219462D4809F04BFC0346002B01D087
:10FF000000F081FC2C4B2D4A1A602B4B4FF4807271
:10FF10005A60294B02229A60274B0022DA60264B56
:10FF200040221A61244B4FF420225A61224B0F22A7
:10FF30009A61214B0F22DA611F4B4FF400525A6233
:10FF40001D4B4FF4E0729A621B4B8022DA621A4B0F
:10FF50004FF480521A63184B02225A63164B4FF427
:10FF600000629A63144B012283F83C2013233B6107
:10FF700013237B610623BB610323FB6113233B60D7
:10FF800013237B600A23BB600923FB603A4607F119
:10FF900010031946084801F041FF0346002B01D029
:10FFA00000F031FC00BF4037BD4680BD205B002023
:10FFB0000004004704050047785B002080040047E8
:10FFC00080B58EB000AF07F1240300221A605A609A
:10FFD0009A60DA601A61C24BD3F88C30C04A43F0A1
:10FFE0001003C2F88C30BE4BD3F88C3003F01003F2
:10FFF0003B623B6ABA4BD3F88C30B94A43F00403F6
:020000040801F1
:10000000C2F88C30B64BD3F88C3003F00403FB619C
:10001000FB69B34BD3F88C30B14A43F02003C2F8EC
:100020008C30AF4BD3F88C3003F02003BB61BB693D
:10003000AB4BD3F88C30AA4A43F08003C2F88C3023
:10004000A74BD3F88C3003F080037B617B69A44B12
:10005000D3F88C30A24A43F00103C2F88C30A04B95
:10006000D3F88C3003F001033B613B699C4BD3F820
:100070008C309B4A43F00203C2F88C30984BD3F883
:100080008C3003F00203FB60FB68954BD3F88C3097
:10009000934A43F04003C2F88C30914BD3F88C3034
:1000A00003F04003BB60BB688D4BD3F88C308C4AA7
:1000B00043F00803C2F88C30894BD3F88C3003F03E
:1000C00008037B607B6800224FF44461854801F09F
:1000D00011FE00220421844801F00CFE002241F2AE
:1000E0006741824801F006FE002240F60301804885
:1000F00001F000FE00224FF478417E4801F0FAFD45
:1001000001224FF480617A4801F0F4FD00224FF49F
:10011000A071794801F0EEFD00221021774801F02E
:10012000E9FD70237B620023BB620023FB6207F1C1
:10013000240319466F4801F073FC4FF488637B6217
:100140000123BB620023FB6203233B6307F124030B
:100150001946644801F064FC02237B62684BBB6271
:100160000023FB6207F1240319465F4801F058FCA5
:1001700004237B620123BB620023FB6203233B63F6
:1001800007F124031946584801F04AFC67237B62B3
:100190000123BB620023FB6200233B6307F12403BE
:1001A0001946524801F03CFC03237B620123BB62E9
:1001B0000023FB6200233B6307F1240319464C48EC
:1001C00001F02EFC4FF400637B620123BB6200232D
:1001D000FB6200233B6307F124031946414801F009
:1001E0001FFC4FF478437B620123BB620023FB6258
:1001F00000233B6307F1240319463E4801F010FC3D
:100200004FF440637B620123BB620023FB62032344
:100210003B6307F124031946354801F001FC4FF414
:10022000A0737B620123BB620023FB6203233B6359
:1002300007F124031946304801F0F2FB80237B626A
:100240002F4BBB620023FB6207F1240319462A48A7
:1002500001F0E6FB4FF4A0537B620123BB62002355
:10026000FB6203233B6307F1240319461F4801F097
:10027000D7FB4FF400637B62214BBB620023FB6220
:1002800007F124031946194801F0CAFB0C237B62CD
:100290000023BB620023FB6207F1240319461748C1
:1002A00001F0BEFB10237B620123BB620023FB62D3
:1002B00003233B6307F124031946104801F0B0FB08
:1002C000002200210C2001F02DFA0C2001F044FA4C
:1002D00000220021122001F025FA122012E000BFB6
:1002E000000C0244001402420008024200000242D4
:1002F000000402420010024200180242000C0242B6
:100300000000211001F028FA00220021162001F03F
:1003100009FA162001F020FA00BF3837BD4680BD2B
:1003200080B500AF01220A490A4809F0B1FC012258
:1003300009490A4809F0ACFC01220949094809F0B9
:10034000A7FC01220849094809F0A2FC00BF80BDB2
:10035000D85B0020D0580020DC5B0020F85900203A
:10036000E05B002064590020E45B00208C5A0020F0
:1003700080B582B000AF78607B681B689B4A93426F
:1003800069D101229A499B4809F082FC984B1B785D
:10039000232B0ED1984B1B785A1CD1B2964A117060
:1003A0001A46934B1978954B9954954B01221A7024
:1003B00018E0934B1B78012B14D18F4B1B785A1CE0
:1003C000D1B28D4A11701A46894B19788B4B9954CA
:1003D000894B1B780F2B05D9874B00221A70884B4D
:1003E00000221A70864B1B78012B40F0E881804B6D
:1003F0001B78242B40F0E3817F4B1B78013B7F4A25
:10040000D35C242B09D17F4B01221A707A4B002236
:100410001A707B4B00221A70D1E1784B5B78322B3B
:100420000DD1764B9B78392B09D1764B01221A706E
:10043000714B00221A70724B00221A70BFE16E4B92
:1004400000221A706E4B00221A700F2200216B4896
:100450000CF035FCB3E17B681B686B4A934240F0BB
:10046000E380012269496A4809F012FC674B1B7856
:10047000402B11D1674B00221A70664B1B785A1C17
:10048000D1B2644A11701A46604B1978624B995484
:10049000624B01221A7018E0604B1B78012B14D1BB
:1004A0005C4B1B785A1CD1B25A4A11701A46574BF2
:1004B0001978594B9954574B1B78162B05D9554B26
:1004C00000221A70554B00221A70504B1B78242BB7
:1004D00012D1504B1B78152B03D1514B01221A70AE
:1004E0000AE04E4B00221A704A4B00221A70192261
:1004F000002149480CF0E3FB444B1B78232B0ED121
:100500003D4B1B785A1CD1B23B4A11701A463F4BE7
:1005100019783A4B99543A4B01221A7018E0384B2B
:100520001B78012B14D1344B1B785A1CD1B2324AA0
:1005300011701A46354B1978304B99542E4B1B7855
:100540000F2B05D92C4B00221A702D4B00221A704C
:100550002B4B1B78012B40F032812C4B1B78242B2A
:1005600040F02D81244B1B78032B12D8224B1B7893
:100570001A4622492B480CF046FC0F2200211F4846
:100580000CF09DFB1C4B00221A701D4B00221A70B0
:1005900015E1194B1B78042B09D11A4B01221A7053
:1005A000154B00221A70164B00221A7007E1134BEC
:1005B0005B78322B0DD1114B9B78362B09D1114B27
:1005C00001221A700C4B00221A700D4B00221A7077
:1005D000F5E0094B00221A70094B00221A700F2215
:1005E000002106480CF06BFBE9E000BF004C004026
:1005F000D85B0020D05800206C0300205803002056
:10060000D65B00206D03002000500040E05B00201E
:1006100064590020D55B0020BC5B0020DD5B00201E
:10062000DE5B0020F00300207B681B68664A934273
:1006300058D101226549664809F02AFB634B1B78B3
:10064000232B0ED1634B1B785A1CD1B2614A117017
:100650001A465E4B1978604B9954604B01221A7010
:1006600018E05E4B1B78012B14D15A4B1B785A1C97
:10067000D1B2584A11701A46544B1978564B9954B6
:10068000544B1B780F2B05D9524B00221A70534B39
:1006900000221A70514B1B78012B40F090804B4B7D
:1006A0001B78242B40F08B804B4B5B78322B0DD189
:1006B000494B9B78372B09D1494B01221A70454B86
:1006C00000221A70454B00221A7078E0414B00223C
:1006D0001A70424B00221A700F2200213E480CF083
:1006E000EEFA6CE07B681B683E4A934267D10122B8
:1006F0003D493E4809F0CCFA3B4B1B78232B0ED1E9
:10070000344B1B785A1CD1B2324A11701A46364B00
:100710001978314B9954314B01221A7018E02F4B44
:100720001B78012B14D12B4B1B785A1CD1B2294AB0
:1007300011701A462C4B1978274B9954254B1B786E
:100740000F2B05D9234B00221A70244B00221A705C
:10075000224B1B78012B32D1234B1B78242B2ED11B
:100760001C4B1B78013B1C4AD35C242B09D11C4B2E
:1007700001221A70174B00221A70184B00221A70AF
:100780001DE0154B5B78322B0DD1134B9B78382B2A
:1007900009D1134B01221A700E4B00221A700F4B15
:1007A00000221A700BE00B4B00221A700B4B002238
:1007B0001A700F22002108480CF081FAFFE700BFF1
:1007C0000837BD4680BD00BF007C0040DC5B0020D8
:1007D000F85900206C03002058030020D65B00204D
:1007E0006D03002000680040E45B00208C5A00206C
:1007F00080B483B000AF0346FB8000BF0C37BD461A
:100800005DF8047B704780B400AF72B600BF00BFD4
:10081000FDE780B400AF00BFBD465DF8047B7047C4
:1008200080B5D0B000AF07F5A073A3F59E73186034
:1008300007F5967300221A605A609A60DA601A61AE
:1008400007F5A073A3F5907318464FF484731A4606
:1008500000210CF034FA07F5A073A3F59E731B6812
:100860001B689C4A93425FD107F5A073A3F5907172
:100870004FF080524FF00003C1E9002307F5A07349
:10088000A3F590730022C3F8E42007F12003184673
:1008900003F012F90346002B01D0FFF7B4FF8E4B93
:1008A000D3F89C308C4A43F48043C2F89C308A4B86
:1008B000D3F89C3003F4804207F5A073A3F592733C
:1008C0001A6007F5A073A3F592731B68824BD3F8E7
:1008D0008C30814A43F00203C2F88C307E4BD3F84F
:1008E0008C3003F0020207F5A073A3F594731A602D
:1008F00007F5A073A3F594731B684FF46043C7F822
:100900002C310223C7F830310023C7F834310023DB
:10091000C7F838310523C7F83C3107F596731946F7
:100920006E4801F07DF8D0E007F5A073A3F59E7343
:100930001B681B686A4A93425FD107F5A073A3F551
:1009400090714FF000524FF00003C1E9002307F50A
:10095000A073A3F590730022C3F8E82007F12003E9
:10096000184603F0A9F80346002B01D0FFF74BFF10
:10097000594BD3F89C30584A43F40043C2F89C309A
:10098000554BD3F89C3003F4004207F5A073A3F550
:1009900096731A6007F5A073A3F596731B684E4B08
:1009A000D3F88C304C4A43F00403C2F88C304A4BE5
:1009B000D3F88C3003F0040207F5A073A3F5987305
:1009C0001A6007F5A073A3F598731B684FF4E05302
:1009D000C7F82C310223C7F830310023C7F834316F
:1009E0000023C7F838310623C7F83C3107F5967362
:1009F00019463C4801F014F867E007F5A073A3F529
:100A00009E731B681B68384A93425ED107F5A0733A
:100A1000A3F590714FF000424FF00003C1E90023AD
:100A200007F5A073A3F590730022C3F8F02007F137
:100A30002003184603F040F80346002B01D0FFF7CF
:100A4000E2FE254BD3F8A830234A43F02003C2F836
:100A5000A830214BD3F8A83003F0200207F5A0738B
:100A6000A3F59A731A6007F5A073A3F59A731B6830
:100A7000194BD3F88C30184A43F02003C2F88C305D
:100A8000154BD3F88C3003F0200207F5A073A3F5C3
:100A90009C731A6007F5A073A3F59C731B684FF451
:100AA0006073C7F82C310223C7F830310023C7F830
:100AB00034310023C7F838310523C7F83C3107F536
:100AC00096731946094800F0ABFF00BF07F5A07701
:100AD000BD4680BD00380040000C024400040242C4
:100AE000003C004000080242002000440014024282
:100AF00080B5D2B000AF07F5A473A3F5A273186058
:100B000007F59A7300221A605A609A60DA601A61D7
:100B100007F5A473A3F5907318464FF484731A462F
:100B200000210CF0CCF807F5A473A3F5A2731B68A1
:100B30001B68A44A934266D107F5A473A3F590718C
:100B40004FF008024FF00003C1E9002307F5A4733A
:100B5000A3F5907300229A6607F12803184602F065
:100B6000ABFF0346002B01D0FFF74DFE964BD3F8A9
:100B70009C30954A43F40023C2F89C30924BD3F842
:100B80009C3003F4002207F5A473A3F592731A6056
:100B900007F5A473A3F592731B688B4BD3F88C30C5
:100BA000894A43F00203C2F88C30874BD3F88C306B
:100BB00003F0020207F5A473A3F594731A6007F516
:100BC000A473A3F594731B684FF44073C7F83431D2
:100BD0000223C7F838310023C7F83C310023C7F897
:100BE00040310823C7F8443107F59A73194677480E
:100BF00000F016FF002200213D2000F093FD3D2073
:100C000000F0AAFD59E107F5A473A3F5A2731B68D0
:100C10001B686F4A934265D107F5A473A3F59071E1
:100C20004FF010024FF00003C1E9002307F5A47351
:100C3000A3F590730022DA6607F12803184602F044
:100C40003BFF0346002B01D0FFF7DDFD5E4BD3F8E1
:100C50009C305D4A43F48013C2F89C305A4BD3F861
:100C60009C3003F4801207F5A473A3F596731A6001
:100C700007F5A473A3F596731B68534BD3F88C3018
:100C8000514A43F00203C2F88C304F4BD3F88C30FA
:100C900003F0020207F5A473A3F598731A6007F531
:100CA000A473A3F598731B686023C7F8343102233B
:100CB000C7F838310023C7F83C310023C7F840316A
:100CC0000E23C7F8443107F59A7319463F4800F0E0
:100CD000A7FE002200213E2000F024FD3E2000F06F
:100CE0003BFDEAE007F5A473A3F5A2731B681B683C
:100CF000384A934272D107F5A473A3F590714FF06F
:100D000080024FF00003C1E9002307F5A473A3F5A7
:100D1000907300229A6707F12803184602F0CCFE70
:100D20000346002B01D0FFF76EFD274BD3F89C3014
:100D3000254A43F00043C2F89C30234BD3F89C3043
:100D400003F0004207F5A473A3F59A731A6007F540
:100D5000A473A3F59A731B681B4BD3F88C301A4A03
:100D600043F01003C2F88C30174BD3F88C3003F0EB
:100D7000100207F5A473A3F59C731A6007F5A4731A
:100D8000A3F59C731B680323C7F834310223C7F80B
:100D900038310023C7F83C310023C7F8403108231D
:100DA000C7F8443107F59A7319460B4800F038FE2E
:100DB00000220021632000F0B5FC632000F0CCFC91
:100DC0007BE000BF004C0040000C024400040242E3
:100DD00000500040007C00400010024207F5A47360
:100DE000A3F5A2731B681B68364A934265D107F5C9
:100DF000A473A3F590714FF400724FF00003C1E9A2
:100E0000002307F5A473A3F590730022C3F8802094
:100E100007F12803184602F04FFE0346002B01D0CD
:100E2000FFF7F1FC284BD3F89C30274A43F080634E
:100E3000C2F89C30244BD3F89C3003F0806207F555
:100E4000A473A3F59E731A6007F5A473A3F59E73AC
:100E50001B681D4BD3F88C301B4A43F01003C2F8BB
:100E60008C30194BD3F88C3003F0100207F5A473C3
:100E7000A3F5A0731A6007F5A473A3F5A0731B680C
:100E80000C23C7F834310223C7F838310023C7F8E0
:100E90003C310023C7F840310723C7F8443107F538
:100EA0009A731946094800F0BBFD00220021562024
:100EB00000F038FC562000F04FFC00BF07F5A47787
:100EC000BD4680BD00680040000C02440010024294
:100ED00080B586B000AF3B1D00221A605A609A6050
:100EE000DA601A61434B1B68002B7FD1414B012212
:100EF0001A60414BD3F894303F4A43F48033C2F830
:100F000094303D4BD3F8943003F480333B603B681E
:100F10004FF23F037B600223BB600023FB6003238F
:100F20003B610C237B613B1D1946344800F078FD82
:100F300080237B600223BB600023FB6003233B61B3
:100F40000D237B613B1D19462D4800F069FD3F23B1
:100F50007B600223BB600023FB6003233B610C2307
:100F60007B613B1D1946274800F05AFD4FF4F063A2
:100F70007B600223BB600023FB6003233B610C23E7
:100F80007B613B1D1946204800F04AFD4FF6830364
:100F90007B600223BB600023FB6003233B610C23C7
:100FA0007B613B1D1946194800F03AFDC0237B6068
:100FB0000223BB600023FB6003233B6109237B61A9
:100FC0003B1D1946124800F02BFD4FF480737B60E7
:100FD0000223BB600023FB6003233B610C237B6186
:100FE0003B1D1946064800F01BFD00E000BF183706
:100FF000BD4680BDE85B0020000C024400140242A4
:10100000000002420018024200100242000C02429C
:101010000008024280B582B000AF7860FFF758FF49
:1010200000BF0837BD4680BD80B582B000AF786094
:10103000FFF74EFF00BF0837BD4680BD80B400AF4C
:1010400000BFFDE780B400AF00BFFDE780B400AF94
:1010500000BFFDE780B400AF00BFFDE780B400AF84
:1010600000BFFDE780B400AF00BFBD465DF8047B64
:10107000704780B400AF00BFBD465DF8047B704789
:1010800080B400AF00BFBD465DF8047B704780B5FB
:1010900000AF00F04BFA00BF80BD80B500AF02206A
:1010A00000F05AFE00BF80BD80B500AF802000F088
:1010B00053FE00BF80BD80B500AF4FF4006000F06C
:1010C0004BFE00BF80BD000080B500AF024808F0B5
:1010D00041FE00BF80BD00BFD058002080B500AFEA
:1010E000024808F037FE00BF80BD00BF64590020F1
:1010F00080B500AF024808F02DFE00BF80BD00BFE4
:10110000F859002080B500AF024808F023FE00BF68
:1011100080BD00BF8C5A002080B400AF0123184668
:10112000BD465DF8047B704780B582B000AF786043
:1011300039600BF02DFE034616221A604FF0FF3384
:1011400018460837BD4680BD80B582B000AF7860D4
:101150004FF0FF317868FFF7E7FF00BFFDE780B58C
:1011600086B000AFF860B9607A6000237B610AE066
:10117000AFF300800146BB685A1CBA60CAB21A704D
:101180007B6901337B617A697B689A42F0DB7B681B
:1011900018461837BD4680BD80B586B000AFF860F0
:1011A000B9607A6000237B6109E0BB685A1CBA60B1
:1011B0001B781846AFF300807B6901337B617A6945
:1011C0007B689A42F1DB7B6818461837BD4680BDC4
:1011D00080B483B000AF78604FF0FF3318460C370F
:1011E000BD465DF8047B704780B483B000AF786083
:1011F00039603B684FF400525A60002318460C37A0
:10120000BD465DF8047B704780B483B000AF786062
:10121000012318460C37BD465DF8047B704780B447
:1012200085B000AFF860B9607A60002318461437C3
:10123000BD465DF8047B704780B586B000AF78602E
:10124000144A154BD31A7B617B693B61134B1B68B6
:10125000002B02D1114B124A1A60104B1A687B689E
:1012600013443A699A4207D20BF092FD03460C22CE
:101270001A604FF0FF3309E0084B1B68FB60074B17
:101280001A687B681344054A1360FB6818461837D0
:10129000BD4680BD00000A2000040000EC5B002079
:1012A000405D002080B483B000AF344BD3F8883069
:1012B000324A43F47003C2F88830314B01221A607D
:1012C0002F4B0022DA612E4B00221A622C4B1A6837
:1012D0002B492C4B13400B60294B00229A62284B60
:1012E0000022DA62264B00221A63254B264A5A63F3
:1012F000234B00229A63224B234ADA63204B0022BD
:101300001A641F4B204A5A641D4B00229A641C4BDE
:101310001B681B4A23F480231360194B00221A65B3
:10132000164B1A4A9A601A4B9B6903F060437B6024
:101330007B68B3F1604F03D07B68B3F1404F17D1A6
:10134000134BDB6903F00103002B05D0104B114A4E
:10135000DA600F4B104ADA600D4BDB690C4A43F040
:101360000203D3610A4BDB69094A43F00103D361ED
:1013700000BF0C37BD465DF8047B704700ED00E010
:10138000000C0244E3EAE2EA8002010100C0000826
:10139000002002403B2A19087F6E5D4C0D488546AF
:1013A000FFF780FF0C480D490D4A002302E0D45896
:1013B000C4500433C4188C42F9D30A4A0A4C00239F
:1013C00001E013600432A242FBD30BF0E7FCFEF70E
:1013D000E9F9FEE700000A2000000020900200204A
:1013E00040F7010890020020405D0020FEE7000069
:1013F00080B500AF032000F08AF902F0D3F902466D
:101400000C4B1B6A03F00F030B49CB5C22FA03F36E
:101410000A4A1360042000F0CFF90F2000F010F802
:101420000346002B01D0012302E0FFF7F2F900236D
:10143000184680BD000C024480F30108A80000207B
:1014400080B584B000AF78600023FB60334B1B781D
:10145000002B01D101235CE0314B1B6803F0040336
:10146000042B0CD12F4B1A682C4B1B7819464FF4C8
:101470007A73B3FBF1F3B2FBF3F3FB6037E000F0F8
:10148000F3F9B860BB68022B23D0BB68022B2DD8C0
:10149000BB68002B03D0BB68012B0DD026E0214B8D
:1014A0001A681E4B1B7819464FF4FA53B3FBF1F33D
:1014B000B2FBF3F3FB601AE0184B1B781A464FF4AB
:1014C0007A73B3FBF2F34FF4FA42B2FBF3F3FB602F
:1014D0000DE0124B1B781A464FF47A73B3FBF2F30C
:1014E0004FF40042B2FBF3F3FB6000E000BFF8688A
:1014F00000F040F90346002B01D0012309E000224F
:1015000079684FF0FF3000F00DF9074A7B681360EF
:10151000002318461037BD4680BD00BFB000002034
:1015200010E000E0A8000020AC00002080B400AF74
:10153000064B1B781A46064B1B681344044A13607B
:1015400000BFBD465DF8047B704700BFB0000020BF
:10155000F05B002080B400AF034B1B681846BD460B
:101560005DF8047B704700BFF05B002080B584B05D
:1015700000AF7860FFF7EEFFB8607B68FB60FB6848
:10158000B3F1FF3F05D00A4B1B781A46FB681344A2
:10159000FB6000BFFFF7DEFF0246BB68D31AFA68A4
:1015A0009A42F7D800BF00BF1037BD4680BD00BFCC
:1015B000B000002080B485B000AF78607B6803F095
:1015C0000703FB600C4BDB68BB60BA684FF6FF0398
:1015D0001340BB60FB681A02BB68134343F0BF6350
:1015E00043F40033BB60044ABB68D36000BF1437C8
:1015F000BD465DF8047B704700ED00E080B400AFAD
:10160000044BDB681B0A03F007031846BD465DF870
:10161000047B704700ED00E080B483B000AF034668
:10162000FB80B7F90630002B0BDBFB8803F01F02B1
:101630000749B7F906305B09012000FA02F241F8C8
:10164000232000BF0C37BD465DF8047B704700BF08
:1016500000E100E080B483B000AF03463960FB8056
:10166000B7F90630002B0ADB3B68DAB20C49B7F950
:1016700006301201D2B20B4483F800230AE03B6823
:10168000DAB20849FB8803F00F03043B1201D2B21F
:101690000B441A7600BF0C37BD465DF8047B7047DB
:1016A00000E100E000ED00E080B489B000AFF86038
:1016B000B9607A60FB6803F00703FB61FB69C3F163
:1016C0000703042B28BF0423BB61FB690433062BEB
:1016D00002D9FB69033B00E000237B614FF0FF323E
:1016E000BB6902FA03F3DA43BB681A407B699A408C
:1016F0004FF0FF317B6901FA03F3D9437B680B405C
:10170000134318462437BD465DF8047B704780B507
:1017100082B000AF78607868FFF74CFF00BF0837F1
:10172000BD4680BD80B586B000AF0346B9607A6023
:10173000FB81FFF763FF78617A68B9687869FFF722
:10174000B3FF0246B7F90E3011461846FFF782FF85
:1017500000BF1837BD4680BD80B582B000AF0346DC
:10176000FB80B7F906301846FFF756FF00BF083771
:10177000BD4680BD80B483B000AF78607B68013B1C
:10178000B3F1807F01D301230DE00A4A7B68013B5E
:101790005360084B00229A60064B1B68054A43F0D1
:1017A00003031360002318460C37BD465DF8047B25
:1017B000704700BF10E000E080B483B000AF7860F5
:1017C0007B68042B44D801A252F823F0EF170108DC
:1017D0000D1801082F18010851180108E117010818
:1017E0001F4B1B681E4A43F00403136031E01C4B7F
:1017F0001B681B4A23F0040313601A4BD3F8E43030
:10180000184A23F00C03C2F8E43022E0144B1B68A2
:10181000134A23F004031360124BD3F8E43023F08F
:101820000C03104A43F00403C2F8E43011E00C4BFF
:101830001B680B4A23F0040313600A4BD3F8E4300F
:1018400023F00C03074A43F00803C2F8E43000E039
:1018500000BF00BF0C37BD465DF8047B704700BF7A
:1018600010E000E0000C024480B483B000AF174BDE
:101870001B6803F00403002B02D004237B601EE0EE
:10188000134BD3F8E43003F00C033B603B68082BA8
:101890000FD03B68082B0FD83B68002B03D03B6868
:1018A000042B03D008E000237B6008E001237B6069
:1018B00005E002237B6002E000237B6000BF7B68C1
:1018C00018460C37BD465DF8047B704710E000E019
:1018D000000C024480B584B000AF7860FFF73AFE98
:1018E000F8607B68002B01D101236BE07B6893F8E3
:1018F0005430DBB2022B08D07B6820229A657B68CB
:10190000002283F84C2001235CE07B681B685A6945
:101910007B681B6842F004025A617B68052283F8E9
:10192000542020E0FFF716FE0246FB68D31A052B71
:1019300019D97B689B6D43F010027B689A657B68C0
:10194000032283F854207B681B6D03F08003002B77
:1019500003D07B685B6F01221A737B68002283F8D7
:101960004C2001232EE07B681B681B6903F40053A5
:10197000002BD7D07B681B685A697B681B6842F0D4
:1019800002025A617B68042283F854207B681B683A
:101990004FF4FE42DA607B68012283F854207B68B2
:1019A0001B6D03F08003002B07D07B685B6F012267
:1019B0001A737B681B6800229A647B68002283F894
:1019C0004C20002318461037BD4680BD80B483B03C
:1019D00000AF78607B68002B01D1012319E07B68A0
:1019E00093F85430DBB2022B04D07B6820229A6536
:1019F00001230EE07B68042283F854207B681B6877
:101A00005B697A68126843F4005343F0040353613E
:101A1000002318460C37BD465DF8047B7047000074
:101A200080B487B000AF7860396000233B6136E155
:101A30003B681A6801213B6901FA03F31340FB601C
:101A4000FB68002B00F028813B685B68022B03D009
:101A50003B685B68122B25D13B69DA087B6808324A
:101A600053F822307B613B6903F007039B000F2290
:101A700002FA03F3DB437A6913407B613B681B691D
:101A800003F00F023B6903F007039B0002FA03F324
:101A90007A6913437B613B69DA087B6808327969AC
:101AA00043F822107B681B687B613B695B00032263
:101AB00002FA03F3DB437A6913407B613B685B689E
:101AC00003F003023B695B0002FA03F37A691343F4
:101AD0007B617B687A691A603B685B68012B0BD07D
