:020000040800F2
:1000000000500020E517000881170008831700083A
:1000100085170008871700088917000800000000EE
:100020000000000000000000000000008B17000826
:100030008D170008000000008F17000891170008B6
:100040002D1800082D1800082D1800082D1800087C
:100050002D1800082D1800082D1800082D1800086C
:100060002D1800082D1800082D1800082D1800085C
:100070002D1800082D1800082D1800082D1800084C
:100080002D1800082D1800082D1800082D1800083C
:100090002D1800082D1800082D1800082D1800082C
:1000A0002D1800082D1800082D1800082D1800081C
:1000B0002D1800082D1800082D1800082D1800080C
:1000C0002D1800082D1800082D1800082D180008FC
:1000D0002D1800082D1800082D1800082D180008EC
:1000E0002D1800082D1800082D1800080000000029
:1000F0000000000000000000000000000000000000
:0C01000000000000000000005FF808F1A3
:10010C0010B5054C237833B9044B13B10448AFF345
:10011C0000800123237010BD10000020000000009F
:10012C007818000808B5034B1BB103490348AFF31B
:10013C00008008BD000000001400002078180008A2
:10014C0010B504460E4B18784FF47A73B3FBF0F3EA
:10015C000C4A1068B0FBF3F000F094F868B90F2C5F
:10016C0001D901200AE0002221464FF0FF3000F0B7
:10017C0055F8034B5C60002000E0012010BD00BF6F
:10018C00000000200C00002008B5074A136843F05B
:10019C0010031360032000F02FF80020FFF7D0FFAE
:1001AC0001F0B0FA002008BD00200240034A11689B
:1001BC00034B1B780B441360704700BF30000020CA
:1001CC0000000020014B1868704700BF3000002071
:1001DC0038B50446FFF7F6FF0546B4F1FF3F02D0F1
:1001EC00044B1B781C44FFF7EDFF401BA042FAD3D5
:1001FC0038BD00BF00000020074AD36823F4E06339
:10020C001B041B0C000200F4E060184340F0BF60BC
:10021C0040F40030D060704700ED00E030B4174B74
:10022C00DB68C3F30223C3F10704042C28BF0424A6
:10023C001D1D062D18D9033B4FF0FF3505FA04F4AC
:10024C0021EA0401994005FA03F322EA0303194356
:10025C0000280BDB0901C9B200F1604000F56140D8
:10026C0080F8001330BC70470023E5E700F00F0066
:10027C000901C9B2024B1954F4E700BF00ED00E0CC
:10028C0014ED00E00138B0F1807F0AD2064B5860C3
:10029C00064AF02182F823100020986007221A6089
:1002AC0070470120704700BF10E000E000ED00E057
:1002BC00F0B482B000263246A2E0002D5AD0012DB7
:1002CC0000D1CE68FF2B69D88446FF2B69D89500E6
:1002DC00DCF800400F27AF4024EA070406FA05F5C6
:1002EC002C43CCF800404C6814F0805F00F0878001
:1002FC005F4CA56945F00105A561A46904F00104F2
:10030C000194019C9508AF1C5A4C54F8274002F0FC
:10031C000307BF004FF00F0C0CFA07FC24EA0C0C7F
:10032C00554CA04243D004F58064A04200F081807B
:10033C0004F58064A0427ED004F58064A04234D0E1
:10034C00042435E04D4FBD4214D00BD94C4FBD4267
:10035C0010D007F58037BD420CD0A7F58017BD42F1
:10036C00B0D107E0A7F58017BD4203D007F5803761
:10037C00BD42A7D18D687DB1012D08D044610826FE
:10038C00A0E7CE6808369DE7CE680C369AE7046184
:10039C00082697E7002695E7042693E700F1040C5E
:1003AC0093E7A2F10805AD0092E7032400E00024D6
:1003BC00BC4044EA0C0402352E4F47F825404C68EB
:1003CC0014F4803F39D02F4D2C681C432C604C68A2
:1003DC0014F4003F37D02B4D6C681C436C604C6898
:1003EC0014F4801F35D0274DAC681C43AC604C68AE
:1003FC0014F4001F33D0234DEC682343EB6001321F
:10040C000B6833FA02F430D00124944023409C4210
:10041C00F5D14D68122DB7D094D8022DB1D07FF6FE
:10042C004CAF032DB6D0112D7FF44CAFCE680436F3
:10043C0048E70124BCE70224BAE7124D2C6824EAF1
:10044C0003042C60C3E70F4D6C6824EA03046C6052
:10045C00C5E70C4DAC6824EA0304AC60C7E7094D52
:10046C00EC6824EA0303EB60C9E702B0F0BC704708
:10047C000010024000000140000801400000211063
:10048C00000031100004014012B9090401617047E9
:10049C000161704782B0084B1B68084AA2FB03231A
:1004AC005B0A00FB03F0019000BF019B5A1E0192F6
:1004BC00002BF9D102B070470C000020D34D621014
:1004CC00002800F0F58170B582B00446036813F083
:1004DC00010F2CD0AB4B5B6803F00C03042B1DD02D
:1004EC00A84B5B6803F00C03082B12D06368B3F5C0
:1004FC00803F41D0002B55D103F1804303F50433E9
:10050C001A6822F480321A601A6822F480221A6067
:10051C0037E09C4B5B6813F4803FE7D0994B1B682A
:10052C0013F4003F03D06368002B00F0C3812368F1
:10053C0013F0020F76D0934B5B6813F00C0F5FD067
:10054C00904B5B6803F00C03082B54D02369002BF1
:10055C0000F08A808C4B01221A60FFF733FE0546AF
:10056C00884B1B6813F0020F75D1FFF72BFE401B55
:10057C000228F5D90320A0E1824A136843F48033A2
:10058C001360636843B3FFF71DFE05467D4B1B6884
:10059C0013F4003FCBD1FFF715FE401B6428F5D9AF
:1005AC0003208AE1B3F5A02F09D0764B1A6822F408
:1005BC0080321A601A6822F480221A60E1E703F193
:1005CC008043A3F53C331A6842F480221A601A68FF
:1005DC0042F480321A60D4E7FFF7F4FD0546694B0C
:1005EC001B6813F4003FA2D0FFF7ECFD401B6428FE
:1005FC00F5D9032061E1634B5B6813F4803FA5D10F
:10060C00604B1B6813F0020F04D02369012B01D03F
:10061C00012052E15B4A136823F0F803616943EA55
:10062C00C1031360236813F0080F32D0A369002BA9
:10063C005BD0564B01221A60FFF7C4FD0546514BA7
:10064C005B6A13F0020F21D1FFF7BCFD401B02289F
:10065C00F5D9032031E14B4A136823F0F8036169A3
:10066C0043EAC1031360DDE7474B00221A60FFF732
:10067C00A9FD0546434B1B6813F0020FD2D0FFF7C0
:10068C00A1FD401B0228F5D9032016E10120FFF73C
:10069C0001FF236813F0040F00F09880394BDB69DD
:1006AC0013F0805F33D1374BDA6942F08052DA6154
:1006BC00DB6903F080530193019B0125344B1B68CC
:1006CC0013F4807F25D0E368012B36D0002B4CD15E
:1006DC0003F1804303F504331A6A22F001021A6213
:1006EC001A6A22F004021A622CE0284B00221A60CB
:1006FC00FFF768FD0546234B5B6A13F0020FC8D069
:10070C00FFF760FD401B0228F5D90320D5E000253A
:10071C00D4E71F4A136843F480731360FFF752FD4C
:10072C0006461B4B1B6813F4807FCCD1FFF74AFDA8
:10073C00801B6428F5D90320BFE0124A136A43F0EA
:10074C0001031362E3687BB3FFF73CFD06460D4BD8
:10075C001B6A13F0020F38D1FFF734FD801B41F2F6
:10076C0088339842F3D90320A7E0052B12D0054B10
:10077C001A6A22F001021A621A6A22F004021A6240
:10078C00E0E700BF001002400000424280044242F9
:10079C00007000404C4B1A6A42F004021A621A6A4A
:1007AC0042F001021A62CDE7FFF70CFD0646464BFC
:1007BC001B6A13F0020F08D0FFF704FD801B41F2F7
:1007CC0088339842F3D9032077E0E5B9E369002B2D
:1007DC0072D03D4A526802F00C02082A56D0022B05
:1007EC0017D03A4B00221A60FFF7ECFC0446364B4C
:1007FC001B6813F0007F47D0FFF7E4FC001B0228B6
:10080C00F5D9032059E0304AD36923F08053D361E2
:10081C00DCE72E4B00221A60FFF7D4FC05462A4B6E
:10082C001B6813F0007F06D0FFF7CCFC401B02289E
:10083C00F5D9032041E0236AB3F5803F1AD0224951
:10084C004B6823F47413226A606A024313434B60AF
:10085C001E4B01221A60FFF7B5FC04461A4B1B68AD
:10086C0013F0007F0ED1FFF7ADFC001B0228F5D969
:10087C00032022E0144A536823F40033A1680B438D
:10088C005360DCE7002018E0002016E0012B16D0A6
:10089C000D4B5B6803F48031226A914201D0012038
:1008AC000BE003F47013626A93420AD0012004E057
:1008BC0001207047012000E0002002B070BD012033
:1008CC00FBE70020F9E700BF001002406000424245
:1008DC0010B487B0164C94E80F000DF1180C0CE90D
:1008EC000F00238AADF80430124B5B6803F00C0246
:1008FC00082A1AD1C3F38342624412F8102C13F461
:10090C00803F05D10C4800FB02F007B010BC7047CB
:10091C00084B5B68C3F34043634413F8143C07482B
:10092C0000FB02F0B0FBF3F0EFE70448EDE700BF8B
:10093C00901800080010024000093D0000127A00D7
:10094C00002800F0A38070B50446524B1B6803F0DE
:10095C0007038B420CD24F4A136823F007030B4357
:10096C001360136803F007038B4201D0012070BDA4
:10097C00236813F0020F17D013F0040F04D0464A6B
:10098C00536843F4E0635360236813F0080F04D0FA
:10099C00414A536843F4605353603F4A536823F011
:1009AC00F003A068034353600D46236813F0010F56
:1009BC0031D06368012B20D0022B25D0364A126827
:1009CC0012F0020F64D034494A6822F00302134338
:1009DC004B60FFF7F7FB06462F4B5B6803F00C03ED
:1009EC006268B3EB820F16D0FFF7ECFB801B41F271
:1009FC0088339842F0D90320B9E7274A126812F4D9
:100A0C00003FE0D10120B2E7234A126812F0007FC8
:100A1C00D9D10120ABE71F4B1B6803F00703AB4296
:100A2C000CD91C4A136823F007032B43136013687B
:100A3C0003F00703AB4201D0012098E7236813F0C1
:100A4C00040F06D0144A536823F4E063E1680B43A7
:100A5C005360236813F0080F07D00F4A536823F430
:100A6C006053216943EAC1035360FFF731FF0A4B1E
:100A7C005B68C3F30313094AD35CD840084B186076
:100A8C00084B1868FFF75CFB002070E701207047EB
:100A9C0001206CE70020024000100240A424000852
:100AAC000C0000200400002010B4036A046A24F037
:100ABC0001040462846924F0F00444EA021223F075
:100ACC000A030B438261036210BC704710B4036AC3
:100ADC0023F0100303628469036A24F4704444EA2B
:100AEC00023223F0A00343EA01138261036210BCBB
:100AFC007047836823F07003194341F0070181604C
:100B0C007047022380F83D300268936803F00703B6
:100B1C00062B03D0136843F001031360012380F804
:100B2C003D3000207047000003681B4A90420AD0F9
:100B3C00B0F1804F07D0A2F59432904203D002F569
:100B4C008062904203D123F070034A681343124A27
:100B5C0090420AD0B0F1804F07D0A2F59432904267
:100B6C0003D002F58062904203D123F44073CA682B
:100B7C00134323F080034A69134303608B68C362F9
:100B8C000B688362044B984202D001234361704787
:100B9C000B690363F9E700BF002C0140A8B110B545
:100BAC00044690F83D305BB1022384F83D30211DA2
:100BBC002068FFF7B9FF012384F83D30002010BDF9
:100BCC0080F83C3000F0C0FDEEE70120704710B417
:100BDC00846824F47F4442EA03230B432343836059
:100BEC0010BC704790F83C30012B66D010B5044611
:100BFC00012380F83C30022380F83D300268936872
:100C0C0023F47F4323F0770393600B68402B4AD087
:100C1C0013D9602B3DD01ED9702B28D0B3F5005FB3
:100C2C0030D1CB684A6889680068FFF7D0FF22682A
:100C3C00936843F48043936024E0102B06D004D9CE
:100C4C00202B03D0302B01D01CE0DBB919462068D7
:100C5C00FFF74FFF16E0502B14D1CA6849680068A3
:100C6C00FFF722FF50212068FFF743FF0AE0CB6813
:100C7C004A6889680068FFF7AAFF2268936843F006
:100C8C0077039360012384F83D30002084F83C0006
:100C9C0010BDCA6849680068FFF718FF602120681A
:100CAC00FFF727FFEEE7CA6849680068FFF7FCFE0C
:100CBC0040212068FFF71DFFE4E70220704790F801
:100CCC003C30012B1CD070B4012680F83C60022310
:100CDC0080F83D3002685568936825F070050C6803
:100CEC002C4323F080054B682B43546002689360BF
:100CFC0080F83D60002380F83C30184670BC70478B
:100D0C000220704770B50646002410E000228021B6
:100D1C000E48FFF7B9FB0D4D002220212846FFF7A6
:100D2C00B3FB012220212846FFF7AEFB0134072C30
:100D3C000ADC06FA04F313F0800FE7D001228021BD
:100D4C000248FFF7A1FBE6E770BD00BF00080140B9
:100D5C0038B504460D4D012240212846FFF794FB7F
:100D6C00F820FFF7CFFF04F0F000FFF7CBFF2001D6
:100D7C0000F0F000FFF7C6FF322000F097FB0022D6
:100D8C0040212846FFF780FB38BD00BF000801401A
:100D9C0038B504460D4D012240212846FFF774FB5F
:100DAC00FA20FFF7AFFF04F0F000FFF7ABFF2001D4
:100DBC0000F0F000FFF7A6FF322000F077FB0022D6
:100DCC0040212846FFF760FB38BD00BF00080140FA
:100DDC0010B51446032812D8DFE800F002080B0EF9
:100DEC0041F08000C0B2FFF7B3FF0EE041F090007D
:100DFC00F8E741F08800F5E741F09800F2E741F0A0
:100E0C008000EFE70134FFF7C3FF20780028F9D109
:100E1C0010BD000008B5012801D0B0B108BD3020CC
:100E2C00FFF796FF0120FFF7D3F93420FFF790FF6F
:100E3C000120FFF7CDF93620FFF78AFF0120FFF7DD
:100E4C00C7F9074B01221A70E8E73020FFF780FF43
:100E5C000120FFF7BDF9024B00221A70DEE700BF3C
:100E6C002C00002070B5064600251AE045F08000E5
:100E7C00FFF76EFF44F08000FFF76AFF04EBC50339
:100E8C0016F81300FFF784FF6300013303EB05131F
:100E9C00F05CFFF77DFF0134E4B2072CE6D9013595
:100EAC00EDB23F2D23D81F2D01D900241CE00024C6
:100EBC00F3E7A5F1200040B260F07F00C0B2FFF76D
:100ECC0047FF44F08800FFF743FF04EBC50316F817
:100EDC001300FFF75DFF6300013303EB0513F05CB8
:100EEC00FFF756FF0134E4B2072CE2D9D7E770BD07
:100EFC0008B50248FFF7B6FF08BD00BF3800002058
:100F0C0038B5194B1B78012B2BD00120FFF720FF94
:100F1C000220FFF75DF938BDA5F1200040B260F06A
:100F2C007F00C0B2FFF714FF8820FFF711FF16E017
:100F3C000020FFF72DFF0020FFF72AFF0134E4B259
:100F4C00072CF5D90135EDB23F2DE4D81F2DE3D890
:100F5C0045F08000FFF7FCFE8020FFF7F9FE00242F
:100F6C00EEE70025F0E700BF2C00002010B51E4C6A
:100F7C00002201212046FFF787FA0A20FFF728F903
:100F8C00012211462046FFF77FFA3220FFF720F9A5
:100F9C003020FFF7DDFE6E2000F088FA3020FFF7DE
:100FAC00D7FE282000F082FA0820FFF7D1FE6E2031
:100FBC0000F07CFA0120FFF7CBFE0C20FFF708F9BC
:100FCC000620FFF7C5FE0120FFF702F90C20FFF702
:100FDC00BFFE0120FFF7FCF80220FFF7B9FE01204D
:100FEC00FFF7F6F810BD00BF000C01401A4B1B7840
:100FFC008B422FD9184B5B7883422BD930B4DB084A
:10100C00C20803FB0123154C00F00705802222FACD
:10101C0005F51A5D2A43D2B21A552270104B1B7873
:10102C008B4201D90E4B19700E4B1B788B4202D898
:10103C0001310C4B19700C4B1B78834201D90A4BB4
:10104C0018700A4B1B78834202D80130074B18707A
:10105C0030BC7047704700BF0800002038000020EB
:10106C00380400203A040020340000203904002009
:10107C002DE9F04F83B004460D4691460193824210
:10108C0023D3A2EB0008019BAB4221D35F1BA145EC
:10109C0021D94FF0010A019BAB421FD94FF0010B34
:1010AC00A8EB070629462046FFF7A0FF4C4518D0B1
:1010BC0073007A429A4202DAF61B5444E4B2984521
:1010CC00F0DD46445D44EDB2ECE7A0EB0208DAE754
:1010DC00019BEF1ADBE74FF0FF3ADCE74FF0FF3BE9
:1010EC00DEE7019B9D42E3D103B0BDE8F08F000029
:1010FC00F8B51F46194B5C78A3B283422DD9174D16
:10110C002E78B5B28D4228D900EB020CA44501DB38
:10111C001A1A92B2CB19B34201DB6F1ABFB2C4B226
:10112C00CDB22244D6B22B46324629462046FFF792
:10113C009FFF2F44FFB23B46324639462046FFF70D
:10114C0097FF3B46224629462046FFF791FF3B4638
:10115C00324629463046FFF78BFFF8BD08000020C9
:10116C002DE9F04190461F46154B5A7893B28342B5
:10117C0023D905460E461249087881B2B1421CD9D2
:10118C0005EB0804944203DBA3EB05081FFA88F86F
:10119C00F319834201DB8F1BBFB200240AE0E8B2D3
:1011AC00A119C9B200EB08020B46D2B2FFF760FFDF
:1011BC000134E4B2A3B2BB42F1D9BDE8F08100BF67
:1011CC00080000202DE9F04F85B0824689469046F4
:1011DC00C2F1010BC2EBC272530003934144C9B27A
:1011EC00FFF704FFA9EB0801C9B25046FFF7FEFE5A
:1011FC0008EB0A004946C0B2FFF7F8FEAAEB08005C
:10120C004946C0B2FFF7F2FE002301220192CDF84D
:10121C000080984642E008F10108019B02330193DB
:10122C009B445FFA88F505EB0A03DBB29DF800409E
:10123C0004EB0907FFB2394602931846FFF7D6FEB6
:10124C00AAEB0506F6B239463046FFF7CFFEA9EBFE
:10125C000407FFB239460298FFF7C8FE39463046FC
:10126C00FFF7C4FE04EB0A06F6B205EB0907FFB262
:10127C0039463046FFF7BAFEAAEB0404E4B239460D
:10128C002046FFF7B3FEA9EB0505EDB22946304623
:10129C00FFF7ACFE29462046FFF7A8FE009B9845B9
:1012AC000ADABBF1000FB6DB009B013B0093039BFA
:1012BC00023303939B44AEE705B0BDE8F08F2DE9F4
:1012CC00F04F85B0924693B2C3F1010636B2C3EB30
:1012DC00C3335A0013B203935FFA80FB5FFA81F8B1
:1012EC005FFA8AF408EB0401C9B25846FFF77EFE98
:1012FC00A8EB0401C9B25846FFF778FE0BEB0405C6
:10130C00EDB241462846FFF771FEABEB0404E4B2A4
:10131C0041462046FFF76AFE43462A464146204690
:10132C00FFF7A6FE0025012301933BE06C1CA4B241
:10133C0025B2019B02339BB21AB201921E4436B203
:10134C00E4B2ABEB04095FFA89F95FFA8AF708EBB0
:10135C000701C9B20BEB0403DBB21A460B4602922F
:10136C004846FFF785FEA8EB0701C9B20B464A4673
:10137C000298FFF77DFE0BEB07095FFA89F908EB82
:10138C000401C9B2ABEB0707FFB20B463A4648461D
:10139C00FFF76EFEA8EB0401C9B20B463A4648466D
:1013AC00FFF766FE55450DDA002EBFDB0AF1FF3A5A
:1013BC000FFA8AFA039B02339BB21AB203921E44B1
:1013CC0036B2B3E705B0BDE8F08F2DE9F04F85B02C
:1013DC00BDF838400094BDF83C400194A2EB0008E5
:1013EC00B8F1000FB8BFC8F100080FFA88F8A3EBEA
:1013FC000109B9F1000FB8BFC9F100090FFA89F959
:10140C0005B20EB2824212D3012202928B4212D347
:10141C0001230393C84512DB08EBD87444F34F0443
:10142C00DDF808A0002302939B4600271AE04FF03A
:10143C00FF320292EAE74FF0FF330393EAE709EB3E
:10144C00D97444F34F044346C8469946DDF80CB0B2
:10145C00002303939A46E8E755442DB25E4436B216
:10146C0001373FB2B84516DB9DF804309DF80020DB
:10147C00F1B2E8B2FFF7FCFD4C44A3B21CB2A0459C
:10148C00EADCA3EB080424B2029B1D442DB2039B9F
:10149C001E4436B2E0E705B0BDE8F08F08B502484F
:1014AC00FFF72FFB08BD00BF3C040020034B1A685C
:1014BC0000235362536A8342FCD370473C040020E0
:1014CC002DE9F04188B00024049405940694079407
:1014DC001F4B9A6942F020029A619A6902F020022D
:1014EC000192019A9A6942F004029A619A6902F097
:1014FC0004020292029A9A6942F008029A619B696C
:10150C0003F008030393039BDFF84C802246E02191
:10151C004046FEF7B9FF0F4E224601213046FEF73A
:10152C00B3FFE02304930125059506940227079742
:10153C0004A94046FEF7BCFE049505950694079752
:10154C0004A93046FEF7B4FE08B0BDE8F08100BF38
:10155C0000100240000C01400008014030B587B07B
:10156C0000240294039404940594009401940F4D68
:10157C000F4B2B6047236B60AC604FF6FE73EB6038
:10158C002C616C61AC612846FFF708FB4FF480536B
:10159C00029302A92846FFF725FB009401946946A3
:1015AC002846FFF78CFB07B030BD00BF3C04002081
:1015BC00002C014030B591B00024089409940B9490
:1015CC000C940194029403940494059401220692C1
:1015DC004FF4803307930A9202250D950E934FF426
:1015EC00E0130F9306A8FEF76BFF0F2301930295F0
:1015FC0003944FF4806304930594294601A8FFF7E4
:10160C009FF911B030BD000000B583B0FEF7BCFDF2
:10161C00FFF7D0FFFFF754FFFFF7A0FFFFF73EFFE8
:10162C00FFF7A4FC324A00210846FFF7D1FB314AF0
:10163C0000210120FFF7CCFB2F4A00210220FFF7ED
:10164C00C7FB2E4A00210320FFF7C2FB4FF4FA60C0
:10165C00FEF7BEFDFFF754FC0120FFF7DBFB284C27
:10166C002046FFF7FFFB4FF4FA60FEF7B1FDFFF7E2
:10167C0047FC04F58060FFF7F5FBFFF741FC6420A5
:10168C00FEF7A6FD0C221F216E20FFF79BFD1022FA
:10169C001F216E20FFF796FD21237F223C21032082
:1016AC00FFF7E6FCFFF724FC0E2314220C21642028
:1016BC00FFF71EFDFFF71CFC0A231E221421104607
:1016CC00FFF74EFDFFF714FC06221E210F20FFF73B
:1016DC00F6FDFFF70DFC0F23019306230093052362
:1016EC000A2219460120FFF770FEFFF701FCFEE706
:1016FC00BC240008C8240008D0240008E0240008FA
:10170C00A418000882B00E4B9A6942F001029A614B
:10171C009A6902F001020092009ADA6942F0805252
:10172C00DA61DB6903F080530193019B054A53682E
:10173C0023F0E06343F00073536002B0704700BFC6
:10174C0000100240000001400268094B9A4200D090
:10175C00704782B003F564439A6942F400629A615F
:10176C009B6903F400630193019B02B0704700BFB7
:10177C00002C01407047FEE7FEE7FEE7FEE77047EE
:10178C007047704708B5FEF711FD08BD0F4B1A687E
:10179C0042F001021A6059680D4A0A405A601A68F0
:1017AC0022F0847222F480321A601A6822F48022A9
:1017BC001A605A6822F4FE025A604FF41F029A60B3
:1017CC00044B4FF000629A60704700BF001002405B
:1017DC000000FFF800ED00E0002103E00B4B5B582C
:1017EC00435004310A480B4B42189A42F6D30A4A2A
:1017FC0002E0002342F8043B084B9A42F9D3FFF76E
:10180C00C5FF00F00FF8FFF7FFFE7047FC2400083F
:10181C000000002010000020100000207C0400209C
:10182C00FEE7000070B500250C4E0D4CA41BA41057
:10183C00A54209D100F01AF800250A4E0A4CA41B47
:10184C00A410A54205D170BD56F825309847013536
:10185C00EEE756F8253098470135F2E7F4240008F6
:10186C00F4240008F4240008F8240008F8B500BF9C
:10187C00F8BC08BC9E467047F8B500BFF8BC08BC65
:04188C009E467047BD
:1018900002030405060708090A0B0C0D0E0F1010B1
:1018A0000102000000000000000000000000000035
:1018B00000000000000000000000000000003FC029
:1018C00000000000000000000000000000007FE0B9
:1018D000000000000000000000000001C000FFF058
:1018E00000000000000000000000007FFF00FFF08B
:1018F0000000000000000000000001E001E1FFF82E
:10190000000000000000000000000F000031FFF8A0
:10191000000000000000000000001E000011FFF8A1
:10192000000000000000000000007FE003F9FFF06D
:1019300000000000000000000000F03C1F00FFF06D
:1019400000000000000000000001C007F000FFF0F0
:1019500000000000000000000003C003E0007FE082
:1019600000000000000000000006600770001F80FB
:101970000000000000000000000E300C1C00000001
:101980000000000000000000000E183806000000F3
:101990000000000000000000001C0C70030010009C
:1019A0000000000000000000001C07C001C01E0075
:1019B00000000000000000000034038000601B00F5
:1019C00000000000000000000024038000301B0025
:1019D0000000000000000000006606E00018110092
:1019E000000000000000000000660C70000C118078
:1019F00000000000000000000042183800043180A0
:101A000000000000000000000043300C00063080A1
:101A1000000000000000000000C32006000320803A
:101A2000000000000000000000C1E0030001E080B1
:101A3000000000000000000000C1C0018000C08064
:101A4000000000000000000000C0C000C000C08016
:101A5000000000000000000000C1C0006001C08064
:101A6000000000000000000000C1E0003001E08044
:101A7000000000000000000000C3300018032080B8
:101A80000000000000000000004310000C06318040
:101A9000000000000000000000421800060C318029
:101AA000000000000000000000660C000398118098
:101AB00000000000000000000066060001F01900B0
:101AC00000000000000000000024030000F01B00E4
:101AD00000000000000000000034018000F01A0047
:101AE0000000000000000000001C00E001981E0043
:101AF000000000000000000000000070030C1C004B
:101B00000000000000000000000000180E061C008D
:101B100000000000000000000000000E1803180084
:101B2000000000000000000000FE0003F001B00013
:101B3000000000000000000001FF8003E000E00062
:101B4000000000000000000003FF800F7800C000CC
:101B5000000000000000000007FFC0FC0FCF800065
:101B6000000000000000000007FFC7C001FF0000E8
:101B7000000000000000000007FFC600001C00007D
:101B8000000000000000000007FFC7800078000090
:101B9000000000000000000007FFC1F007C00000C7
:101BA000000000000000000007FFC03FFE00000032
:101BB000000000000000000003FF800000000000A3
:101BC000000000000000000001FF00000000000015
:101BD0000000000000000000007E00000000000087
:101BE00000000000000000000000000000000000F5
:101BF00000000000000000000000000000000000E5
:101C0000000000000F0F8C27F7E1F0C181F9F0FB15
:101C1000F9F0F18C1939CE21C63398C181819980B0
:101C2000E181918C3030CF2086330CC181818D8051
:101C30004103018C30304F2086320CC181F198F085
:101C400041F301FC30304DE087E20CC18181F01896
:101C5000438301FC3030CCE086630CC18181B00C41
:101C60004103018C1D9FCC608663F8FDF9F999D87A
:101C700041F1D98C0F0F0C208630F0FDF9F98CF072
:101C800041F0F18C000000000000000000000000A6
:101C90000000000000000000000000000000000044
:101CA00000000000FFFFFFFFFFFFFFFFFFFFFFFF40
:101CB000FFFFFFFFFFFFFFFFFFFFFFFFFFFFFFFF34
:101CC000FFFFFFFFFFFFFFFFFFFFFFFFFFFFFFFF24
:101CD000FFFFFFFFFFFFFFFFFFFFFFFFFFFFFFFF14
:101CE000FFFFFFFFFFFFFFFFFFFFFFFFFFFFFFFF04
:101CF000FFFFFFFFFFFFFFFFFFFFFFFFFFFFFFFFF4
:101D0000FFFFFFFFFFFFFFFFFFFFFFFFFFFFFFFFE3
:101D1000FFFFFFFFFFFFFFFFFFFFFFFFFFFFF800D9
:101D20001FFFFFFFFFFFFFFFFFFFFFFFFFFF0000A1
:101D3000001FFFFFFFFFFFFFFFFFFFFFFFE00000AF
:101D400000013FFFFFFFFFFFFFFFFFFFFC00000060
:101D50000000003FFFFFFFFFFFFFFFFF000000004C
:101D600000000007FFFFFFFFFFFFFFF8000000007B
:101D700000000007FFFFFFFFFFFFFFF00000000073
:101D800000000007FFFFFFFFFFFFFFF80000000259
:101D900000000407FFFFFFFFFFFFFFF80000000047
:101DA0000000000FFFFFFFFFFFFFFFF80000000F24
:101DB0008000000FFFFFFFFFFFFFFFF8000003FFA1
:101DC000F000000FFFFFFFFFFFFFFFFC00001FFF01
:101DD000FF00001FFFFFFFFFFFFFFFFC000063FF8E
:101DE000F810001FFFFFFFFFFFFFFFFC00007C7FDC
:101DF00003D0001FFFFFFFFFFFFFFFFE01003F803A
:101E00007FC0003FFFFFFFFFFFFFFFFE00003FE737
:101E1000FFC0003FFFFFFFFFFFFFFFFE00003FE7A7
:101E2000FFC0007FFFFFFFFFFFFFFFFF00003FE756
:101E3000FFA0007FFFFFFFFFFFFFFFFF00003FE766
:101E4000FF80007FFFFFFFFFFFFFFFFF000007E7AE
:101E5000FF0000FFFFFFFFFFFFFFFFFF800001E724
:101E6000F00000FFFFFFFFFFFFFFFFFF80000067A4
:101E7000000000FFFFFFFFFFFFFFFFFFC00010009B
:101E8000000001FFFFFFFFFFFFFFFFFFC00010008A
:101E9000000007FFFFFFFFFFFFFFFFFFF000100044
:101EA00000001FFFFFFFFFFFFFFFFFFFFE0000001E
:101EB00000007FFFFFFFFFFFFFFFFFFFFFC00000ED
:101EC0000001FFFFFFFFFFFFFFFFFFFFFFF000002C
:101ED0000007FFFFFFFFFFFFFFFFFFFFFFFE000008
:101EE000001FFFFFFFFFFFFFFFFFFFFFFFFFC0011E
:101EF00000FFFFFFFFFFFFFFFFFFFFFFFFFFF800F7
:101F000001FFFFFFFFFFFFFFFFFFFFFFDFFFFF00FE
:101F10000FFFFFFFFFFFFFFFFFFFFFFF87FFFFE058
:101F20003FFFFFFFFFFFFFFFFFFFFFFF800FFFFCF3
:101F3000FFFFFFFFFFFFFFFFFFFFFFFF001FFFFF90
:101F4000FFFFFFFFFFFFFFFFFFFFFFFF807FFFFFA0
:101F5000FFFFFFFFFFFFFC04000C181C087FFFFFC2
:101F6000FFFFFFFFFFFFF840020C13D9CFFFFFFF79
:101F7000FFFFFFFFFFFFF81F8E001F9FCFFFFFFF38
:101F8000FFFFFFFFFFFFFC038E001E1F1FFFFFFF71
:101F9000FFFFFFFFFFFFF8C38E211FCC7FFFFFFF76
:101FA000FFFFFFFFFFFFF8438E2113C8FFFFFFFF76
:101FB000FFFFFFFFFFFFFC078E2118180FFFFFFF39
:101FC000FFFFFFFFFFFFFFFFFFFFFFFFFFFFFFFF21
:101FD000FFFFFFFFFFFFFFFFFF01FF87FFFFFFFF87
:101FE000FFFFFFFFFFFFFFFFFE109C80F0FFFFFFE2
:101FF000FFFFFFFFFFFFFFFFFE380800403FFFFF2E
:10200000FFFFFFFFFFFFFFFFFE3F0804003FFFFF52
:10201000FFFFFFFFFFFFFFFFFE380804003FFFFF49
:10202000FFFFFFFFFFFFFFFFFE008000003FFFFFFD
:10203000FFFFFFFFFFFFFFFFFF018000607FFFFF4B
:10204000FFFFFFFFFFFFFFFFFFFFFFFFFFFFFFFFA0
:10205000FFFFFFFFFFFFFFFFFFFFFFFFFFFFFFFF90
:10206000FFFFFFFFFFFFFFFFFFFFFFFFFFFFFFFF80
:10207000FFFFFFFFFFFFFFFFFFFFFFFFFFFFFFFF70
:10208000FFFFFFFFFFFFFFFFFFFFFFFFFFFFFFFF60
:10209000FFFFFFFFFFFFFFFFFFFFFFFFFFFFFFFF50
:1020A000FFFFFFFF00000000000000000000000034
:1020B0000000000000000000000000000000000020
:1020C0000000000000000000000000000000000010
:1020D000000000000000002FFFE00000000007FFEC
:1020E000F0000000000003FFFFFF80000003FFFF7F
:1020F000FFC0000000003FFFFFFFF800001FFFFFD0
:10210000FFF800000001FFFFFFFFFF0000FFFFFFDF
:10211000FFFF00000007FFFFFFFFFFC007FFFFFFFB
:10212000FFFFE000001FFFFFFFFFFFF00FFFFFFFBB
:10213000FFFFF800007FFFFFFFFFFFFC3FFFFFFFF7
:10214000FFFFFC0000FFFFFFFFFFFFFE7FFFFFFF21
:10215000FFFFFF0001FFFFFFFFFFFFFFFFFFFFFF8C
:10216000FFFFFF8003FFFFFFFFFFFFFFFFFFFFFFFA
:10217000FFFFFFC007FFFFFFFFFFFFFFFFFFFFFFA6
:10218000FFFFFFE00FFFFFFFFFFFFFFFFFFFFFFF6E
:10219000FFFFFFF01FFFFFFFFFFFFFFFFFFFFFFF3E
:1021A000FFFFFFF01FFFFFFFFFFFFFFFFFFFFFFF2E
:1021B000FFFFFFF83FFFFFFFFFFFFFFFFFFFFFFFF6
:1021C000FFFFFFF83FFFFFFFFFFFFFFFFFFFFFFFE6
:1021D000FFFFFFFC3FFFFFFFFFFFFFFFFFFFFFFFD2
:1021E000FFFFFFFC3FFFFFFFFFFFFFFFFFFFFFFFC2
:1021F000FFFFFFFC3FFFFFFFFFFFFFFFFFFFFFFFB2
:10220000FFFFFFFC3FFFFFFFFFFFFFFFFFFFFFFFA1
:10221000FFFFFFFC3FFFFFFFFFFFFFFFFFFFFFFF91
:10222000FFFFFFF83FFFFFFFFFFFFFFFFFFFFFFF85
:10223000FFFFFFF81FFFFFFFFFFFFFFFFFFFFFFF95
:10224000FFFFFFF81FFFFFFFFFFFFFFFFFFFFFFF85
:10225000FFFFFFF01FFFFFFFFFFFFFFFFFFFFFFF7D
:10226000FFFFFFF00FFFFFFFFFFFFFFFFFFFFFFF7D
:10227000FFFFFFE007FFFFFFFFFFFFFFFFFFFFFF85
:10228000FFFFFFC003FFFFFFFFFFFFFFFFFFFFFF99
:10229000FFFFFFC001FFFFFFFFFFFFFFFFFFFFFF8B
:1022A000FFFFFF8000FFFFFFFFFFFFFFFFFFFFFFBC
:1022B000FFFFFF00007FFFFFFFFFFFFFFFFFFFFFAC
:1022C000FFFFFC00003FFFFFFFFFFFFFFFFFFFFFDF
:1022D000FFFFF800001FFFFFFFFFFFFFFFFFFFFFF3
:1022E000FFFFF0000007FFFFFFFFFFFFFFFFFFFF03
:1022F000FFFFC0000003FFFFFFFFFFFFFFFFFFFF27
:10230000FFFF00000000FFFFFFFFFFFFFFFFFFFFD9
:10231000FFFE000000003FFFFFFFFFFFFFFFFFFF8A
:10232000FFF8000000000FFFFFFFFFFFFFFFFFFFB0
:10233000FFE00000000007FFFFFFFFFFFFFFFFFFC0
:10234000FF800000000001FFFFFFFFFFFFFFFFFF16
:10235000FE0000000000003FFFFFFFFFFFFFFFFF48
:10236000F80000000000000FFFFFFFFFFFFFFFFF6E
:10237000E000000000000007FFFFFFFFFFFFFFFF7E
:102380008000000000000000FFFFFFFFFFFFFFFED6
:1023900000000000000000003FFFFFFFFFFFFFF80C
:1023A00000000000000000000FFFFFFFFFFFFFE044
:1023B000000000000000000003FFFFFFFFFFFF80A0
:1023C0000000000000000000007FFFFFFFFFFC0096
:1023D0000000000000000000003FFFFFFFFFF800CA
:1023E0000000000000000000000FFFFFFFFFE00002
:1023F00000000000000000000003FFFFFFFF80005E
:1024000000000000000000000000FFFFFFFE0000D1
:10241000000000000000000000003FFFFFF8000087
:10242000000000000000000000000FFFFFF00000AF
:102430000000000000000000000003FFFFC00000DB
:102440000000000000000000000001FFFF0000008D
:102450000000000000000000000000FFFE0000007F
:1024600000000000000000000000003FF800000035
:1024700000000000000000000000000FF00000005D
:10248000000000000000000000000007E000000065
:1024900000000000000000000000000380000000B9
:1024A0000000000000000000000000000102030422
:1024B00006070809000000000102030448454C4CCF
:1024C0004F20574F524C440046524F4D00000000E1
:1024D000434F4E54524F4C4C455253544543480081
:1024E0003132333435363738393021402324255EB4
:0424F00000000000E8
:0424F40031010008AA
:0424F8000D010008CA
:1024FC000100000010000000408000000024F400E7
:04000005080017E5F3
:00000001FF
